{
  "transactions": [
    {
      "hash": "0x5d28388be95f253dd2010e2f7694d3034de1d3c0f396735707c501b3c82bf554",
      "transactionType": "CALL",
      "contractName": null,
      "contractAddress": "0x0793531b3cce2b833298cfecaec63ad5c327302d",
      "function": "adminSettleOverride(bytes32,int64)",
      "arguments": [
        "0x06360b439a7d160094aaf33775270999966d344e3f25de9c2ea43dfc96b96ce9",
        "18200000"
      ],
      "transaction": {
        "from": "0xe5514a31d62d882ec1917aec7a16eccf698d16ab",
        "to": "0x0793531b3cce2b833298cfecaec63ad5c327302d",
        "gas": "0xcdad",
        "value": "0x0",
        "input": "0x1ea8aaf306360b439a7d160094aaf33775270999966d344e3f25de9c2ea43dfc96b96ce9000000000000000000000000000000000000000000000000000000000115b5c0",
        "nonce": "0x13",
        "chainId": "0x14a34"
      },
      "additionalContracts": [],
      "isFixedGasLimit": false
    },
    {
      "hash": "0x076efc4e57aa3a666a172cf30845338e4437426a88fd9cdc0a0e083cd884cb90",
      "transactionType": "CALL",
      "contractName": null,
      "contractAddress": "0x0793531b3cce2b833298cfecaec63ad5c327302d",
      "function": "adminSettleOverride(bytes32,int64)",
      "arguments": [
        "0x8e7edd370d0bbc9e4c927591a6e67e4ac3bafdbd2e5e86968ac05970dd99450c",
        "18200000"
      ],
      "transaction": {
        "from": "0xe5514a31d62d882ec1917aec7a16eccf698d16ab",
        "to": "0x0793531b3cce2b833298cfecaec63ad5c327302d",
        "gas": "0xc250",
        "value": "0x0",
        "input": "0x1ea8aaf38e7edd370d0bbc9e4c927591a6e67e4ac3bafdbd2e5e86968ac05970dd99450c000000000000000000000000000000000000000000000000000000000115b5c0",
        "nonce": "0x14",
        "chainId": "0x14a34"
      },
      "additionalContracts": [],
      "isFixedGasLimit": false
    },
    {
      "hash": "0xb7394bdc7f79ad6a5c6bb984d9b2da17c6060d794e31f6a0eac9a1f6846d6acb",
      "transactionType": "CALL",
      "contractName": null,
      "contractAddress": "0x0793531b3cce2b833298cfecaec63ad5c327302d",
      "function": "adminSettleOverride(bytes32,int64)",
      "arguments": [
        "0x5282d25f627d2edcd47c23f0e26a8a708b36432f4fc3cf099a04f8d5d1bd97fa",
        "18200000"
      ],
      "transaction": {
        "from": "0xe5514a31d62d882ec1917aec7a16eccf698d16ab",
        "to": "0x0793531b3cce2b833298cfecaec63ad5c327302d",
        "gas": "0xc250",
        "value": "0x0",
        "input": "0x1ea8aaf35282d25f627d2edcd47c23f0e26a8a708b36432f4fc3cf099a04f8d5d1bd97fa000000000000000000000000000000000000000000000000000000000115b5c0",
        "nonce": "0x15",
        "chainId": "0x14a34"
      },
      "additionalContracts": [],
      "isFixedGasLimit": false
    },
    {
      "hash": "0x65a96d64ee279c86eaeb970ec342918f120add455c9d477e4484b7bb756157d3",
      "transactionType": "CALL",
      "contractName": null,
      "contractAddress": "0x0793531b3cce2b833298cfecaec63ad5c327302d",
      "function": "adminSettleOverride(bytes32,int64)",
      "arguments": [
        "0x75f12b7d3361161380fa372e63185b6485106bdbfd68f3ca78a9ae6ee080671e",
        "18200000"
      ],
      "transaction": {
        "from": "0xe5514a31d62d882ec1917aec7a16eccf698d16ab",
        "to": "0x0793531b3cce2b833298cfecaec63ad5c327302d",
        "gas": "0xc250",
        "value": "0x0",
        "input": "0x1ea8aaf375f12b7d3361161380fa372e63185b6485106bdbfd68f3ca78a9ae6ee080671e000000000000000000000000000000000000000000000000000000000115b5c0",
        "nonce": "0x16",
        "chainId": "0x14a34"
      },
      "additionalContracts": [],
      "isFixedGasLimit": false
    },
    {
      "hash": "0xc5a1e33e1f77b7fc5ccb114f03ff9278acc3897c1f74e6aa95607db30568525e",
      "transactionType": "CALL",
      "contractName": null,
      "contractAddress": "0x0793531b3cce2b833298cfecaec63ad5c327302d",
      "function": "adminSettleOverride(bytes32,int64)",
      "arguments": [
        "0x7cdd368ce3eda895888107c82c8c4560d706a27122675ff694800833eb3bcf62",
        "18200000"
      ],
      "transaction": {
        "from": "0xe5514a31d62d882ec1917aec7a16eccf698d16ab",
        "to": "0x0793531b3cce2b833298cfecaec63ad5c327302d",
        "gas": "0xc250",
        "value": "0x0",
        "input": "0x1ea8aaf37cdd368ce3eda895888107c82c8c4560d706a27122675ff694800833eb3bcf62000000000000000000000000000000000000000000000000000000000115b5c0",
        "nonce": "0x17",
        "chainId": "0x14a34"
      },
      "additionalContracts": [],
      "isFixedGasLimit": false
    },
    {
      "hash": "0xaf10a1596d3139fe6646cd5940d6dcdd5a68d4851bb5764b3863cfe7307f6e86",
      "transactionType": "CALL",
      "contractName": null,
      "contractAddress": "0x0793531b3cce2b833298cfecaec63ad5c327302d",
      "function": "adminSettleOverride(bytes32,int64)",
      "arguments": [
        "0x04df66ee18a794adff1a141bcc6631192935eb438eb326aaa2d041138b1f23d9",
        "21300000"
      ],
      "transaction": {
        "from": "0xe5514a31d62d882ec1917aec7a16eccf698d16ab",
        "to": "0x0793531b3cce2b833298cfecaec63ad5c327302d",
        "gas": "0xc250",
        "value": "0x0",
        "input": "0x1ea8aaf304df66ee18a794adff1a141bcc6631192935eb438eb326aaa2d041138b1f23d90000000000000000000000000000000000000000000000000000000001450320",
        "nonce": "0x18",
        "chainId": "0x14a34"
      },
      "additionalContracts": [],
      "isFixedGasLimit": false
    },
    {
      "hash": "0xf8ad34e1dfc310553e2a954c28ce3ddd2c56c38bd9a69a9248726cfa5032ea99",
      "transactionType": "CALL",
      "contractName": null,
      "contractAddress": "0x0793531b3cce2b833298cfecaec63ad5c327302d",
      "function": "adminSettleOverride(bytes32,int64)",
      "arguments": [
        "0x76e392e9513fccd72e6cd9e855a3aecad1b08efb223a99a0a34775440da47ee3",
        "21300000"
      ],
      "transaction": {
        "from": "0xe5514a31d62d882ec1917aec7a16eccf698d16ab",
        "to": "0x0793531b3cce2b833298cfecaec63ad5c327302d",
        "gas": "0xc250",
        "value": "0x0",
        "input": "0x1ea8aaf376e392e9513fccd72e6cd9e855a3aecad1b08efb223a99a0a34775440da47ee30000000000000000000000000000000000000000000000000000000001450320",
        "nonce": "0x19",
        "chainId": "0x14a34"
      },
      "additionalContracts": [],
      "isFixedGasLimit": false
    },
    {
      "hash": "0xd66a2b21e1ba9773e8528ce78c4d9dbe944ecf2b283639a0695b2ea08b40ad3d",
      "transactionType": "CALL",
      "contractName": null,
      "contractAddress": "0x0793531b3cce2b833298cfecaec63ad5c327302d",
      "function": "adminSettleOverride(bytes32,int64)",
      "arguments": [
        "0x574346ead2372e39d7b6f10bc44f94d394ab02acbcd0b1b09b61e030d95bb287",
        "21300000"
      ],
      "transaction": {
        "from": "0xe5514a31d62d882ec1917aec7a16eccf698d16ab",
        "to": "0x0793531b3cce2b833298cfecaec63ad5c327302d",
        "gas": "0xc250",
        "value": "0x0",
        "input": "0x1ea8aaf3574346ead2372e39d7b6f10bc44f94d394ab02acbcd0b1b09b61e030d95bb2870000000000000000000000000000000000000000000000000000000001450320",
        "nonce": "0x1a",
        "chainId": "0x14a34"
      },
      "additionalContracts": [],
      "isFixedGasLimit": false
    },
    {
      "hash": "0x332b0ef6e598e1c5e3cf055668ba2cd02b7cecf14597c5f597f6af95eb6f5105",
      "transactionType": "CALL",
      "contractName": null,
      "contractAddress": "0x0793531b3cce2b833298cfecaec63ad5c327302d",
      "function": "adminSettleOverride(bytes32,int64)",
      "arguments": [
        "0x8b57f363af96f3252af2ae1c135c5966179c507427a0738862e2479509d4c131",
        "21300000"
      ],
      "transaction": {
        "from": "0xe5514a31d62d882ec1917aec7a16eccf698d16ab",
        "to": "0x0793531b3cce2b833298cfecaec63ad5c327302d",
        "gas": "0xc250",
        "value": "0x0",
        "input": "0x1ea8aaf38b57f363af96f3252af2ae1c135c5966179c507427a0738862e2479509d4c1310000000000000000000000000000000000000000000000000000000001450320",
        "nonce": "0x1b",
        "chainId": "0x14a34"
      },
      "additionalContracts": [],
      "isFixedGasLimit": false
    },
    {
      "hash": "0x40b7fd2463cc40ac386096b939c5bc4e9cca5da020153badeff9a1c226bd89a8",
      "transactionType": "CALL",
      "contractName": null,
      "contractAddress": "0x0793531b3cce2b833298cfecaec63ad5c327302d",
      "function": "adminSettleOverride(bytes32,int64)",
      "arguments": [
        "0xf4a636c5c4b3251f2904cc11177d8fd7dede2324962f6079ecefe582e2632cbe",
        "39800000"
      ],
      "transaction": {
        "from": "0xe5514a31d62d882ec1917aec7a16eccf698d16ab",
        "to": "0x0793531b3cce2b833298cfecaec63ad5c327302d",
        "gas": "0xc250",
        "value": "0x0",
        "input": "0x1ea8aaf3f4a636c5c4b3251f2904cc11177d8fd7dede2324962f6079ecefe582e2632cbe00000000000000000000000000000000000000000000000000000000025f4cc0",
        "nonce": "0x1c",
        "chainId": "0x14a34"
      },
      "additionalContracts": [],
      "isFixedGasLimit": false
    },
    {
      "hash": "0xc9a40d8a3965767f5f2b1d2b52165a4a6e0cb2ed3d68fb773912167efff4b170",
      "transactionType": "CALL",
      "contractName": null,
      "contractAddress": "0x0793531b3cce2b833298cfecaec63ad5c327302d",
      "function": "adminSettleOverride(bytes32,int64)",
      "arguments": [
        "0xc756abc0d0ac38a690b6c524b0fe6fc844ef17a2195b8fc551bc0223c7f15ba6",
        "39800000"
      ],
      "transaction": {
        "from": "0xe5514a31d62d882ec1917aec7a16eccf698d16ab",
        "to": "0x0793531b3cce2b833298cfecaec63ad5c327302d",
        "gas": "0xc250",
        "value": "0x0",
        "input": "0x1ea8aaf3c756abc0d0ac38a690b6c524b0fe6fc844ef17a2195b8fc551bc0223c7f15ba600000000000000000000000000000000000000000000000000000000025f4cc0",
        "nonce": "0x1d",
        "chainId": "0x14a34"
      },
      "additionalContracts": [],
      "isFixedGasLimit": false
    },
    {
      "hash": "0x4cd9858b3b21c4616f38794287d5bcf2dcb58e40935427ab9d10ebadcbd955bc",
      "transactionType": "CALL",
      "contractName": null,
      "contractAddress": "0x0793531b3cce2b833298cfecaec63ad5c327302d",
      "function": "adminSettleOverride(bytes32,int64)",
      "arguments": [
        "0x7190bcaf5714549be433e2d5b9887f738c4905ef5402bd222b76df2a75af9e50",
        "39800000"
      ],
      "transaction": {
        "from": "0xe5514a31d62d882ec1917aec7a16eccf698d16ab",
        "to": "0x0793531b3cce2b833298cfecaec63ad5c327302d",
        "gas": "0xc250",
        "value": "0x0",
        "input": "0x1ea8aaf37190bcaf5714549be433e2d5b9887f738c4905ef5402bd222b76df2a75af9e5000000000000000000000000000000000000000000000000000000000025f4cc0",
        "nonce": "0x1e",
        "chainId": "0x14a34"
      },
      "additionalContracts": [],
      "isFixedGasLimit": false
    },
    {
      "hash": "0x924ab4e02649c01a4e4599bf3cc6a15ca29e7c37121f4a2152c058ab50591844",
      "transactionType": "CALL",
      "contractName": null,
      "contractAddress": "0x0793531b3cce2b833298cfecaec63ad5c327302d",
      "function": "adminSettleOverride(bytes32,int64)",
      "arguments": [
        "0xd817894a8eab658a39d583dfd9dc0a49a536128371273bc0649a4411ee199ee7",
        "39800000"
      ],
      "transaction": {
        "from": "0xe5514a31d62d882ec1917aec7a16eccf698d16ab",
        "to": "0x0793531b3cce2b833298cfecaec63ad5c327302d",
        "gas": "0xc250",
        "value": "0x0",
        "input": "0x1ea8aaf3d817894a8eab658a39d583dfd9dc0a49a536128371273bc0649a4411ee199ee700000000000000000000000000000000000000000000000000000000025f4cc0",
        "nonce": "0x1f",
        "chainId": "0x14a34"
      },
      "additionalContracts": [],
      "isFixedGasLimit": false
    },
    {
      "hash": "0x702c9bdcb36ba00143c177c2e707c0e13fc68ef4d146c08510342ef5c5315570",
      "transactionType": "CALL",
      "contractName": null,
      "contractAddress": "0x0793531b3cce2b833298cfecaec63ad5c327302d",
      "function": "adminSettleOverride(bytes32,int64)",
      "arguments": [
        "0x7ad479f13e8081e1e44779fafef66194098f30dcd65687dd997f6565666e292e",
        "39800000"
      ],
      "transaction": {
        "from": "0xe5514a31d62d882ec1917aec7a16eccf698d16ab",
        "to": "0x0793531b3cce2b833298cfecaec63ad5c327302d",
        "gas": "0xc250",
        "value": "0x0",
        "input": "0x1ea8aaf37ad479f13e8081e1e44779fafef66194098f30dcd65687dd997f6565666e292e00000000000000000000000000000000000000000000000000000000025f4cc0",
        "nonce": "0x20",
        "chainId": "0x14a34"
      },
      "additionalContracts": [],
      "isFixedGasLimit": false
    },
    {
      "hash": "0xb836d0172b21cfd2fa5158c6437d516791cfc415fc00331ca33eaaee75fc1abd",
      "transactionType": "CALL",
      "contractName": null,
      "contractAddress": "0x0793531b3cce2b833298cfecaec63ad5c327302d",
      "function": "adminSettleOverride(bytes32,int64)",
      "arguments": [
        "0x84788673439e8726d86ef3d0e9d3245c2880f18a2234e2d51608a175cc82f11e",
        "39800000"
      ],
      "transaction": {
        "from": "0xe5514a31d62d882ec1917aec7a16eccf698d16ab",
        "to": "0x0793531b3cce2b833298cfecaec63ad5c327302d",
        "gas": "0xc250",
        "value": "0x0",
        "input": "0x1ea8aaf384788673439e8726d86ef3d0e9d3245c2880f18a2234e2d51608a175cc82f11e00000000000000000000000000000000000000000000000000000000025f4cc0",
        "nonce": "0x21",
        "chainId": "0x14a34"
      },
      "additionalContracts": [],
      "isFixedGasLimit": false
    },
    {
      "hash": "0x2b264590e144a8d01489c25a76a2810623084b5cd92f9e2ebc788bdedd8afe7a",
      "transactionType": "CALL",
      "contractName": null,
      "contractAddress": "0x0793531b3cce2b833298cfecaec63ad5c327302d",
      "function": "adminSettleOverride(bytes32,int64)",
      "arguments": [
        "0x2bbf52073e8f2f593f07313d3becafe65c6e86c805e52deccef8bb32b27252f9",
        "39800000"
      ],
      "transaction": {
        "from": "0xe5514a31d62d882ec1917aec7a16eccf698d16ab",
        "to": "0x0793531b3cce2b833298cfecaec63ad5c327302d",
        "gas": "0xc250",
        "value": "0x0",
        "input": "0x1ea8aaf32bbf52073e8f2f593f07313d3becafe65c6e86c805e52deccef8bb32b27252f900000000000000000000000000000000000000000000000000000000025f4cc0",
        "nonce": "0x22",
        "chainId": "0x14a34"
      },
      "additionalContracts": [],
      "isFixedGasLimit": false
    }
  ],
  "receipts": [
    {
      "status": "0x1",
      "cumulativeGasUsed": "0x3e4379",
      "logs": [
        {
          "address": "0x0793531b3cce2b833298cfecaec63ad5c327302d",
          "topics": [
            "0x75db0622e15103635f1cc53353a7e715f4b71125b33ea33f93e451c23427484a",
            "0x06360b439a7d160094aaf33775270999966d344e3f25de9c2ea43dfc96b96ce9"
          ],
          "data": "0x0000000000000000000000000000000000000000000000000000000000000001000000000000000000000000000000000000000000000000000000000115b5c0",
          "blockHash": "0xf2ddc0a4c6a4a36bfe5bada83b0f516e32e51d65a45991d598c9b36fac3c5949",
          "blockNumber": "0x24df6e4",
          "blockTimestamp": "0x69af4ca8",
          "transactionHash": "0x5d28388be95f253dd2010e2f7694d3034de1d3c0f396735707c501b3c82bf554",
          "transactionIndex": "0x1e",
          "logIndex": "0x7d",
          "removed": false
        }
      ],
      "logsBloom": "0x00000000000000000000000000000080000000000000000000000000000000000000000000000000000000000000000000000000000000000000000000000000000000080000000000000000000000000000000000000000000000000000000000000000000000010000000000000000000000000000000000000000000000000000000000000000000000000000000000000000000010000000000000000000000000000000000000000000000000000000000000000000002000000040000000000000000000000000000000000000040000000000000000000000000000000000000000000000000008000000000000008000000000000000000000000000",
      "type": "0x2",
      "transactionHash": "0x5d28388be95f253dd2010e2f7694d3034de1d3c0f396735707c501b3c82bf554",
      "transactionIndex": "0x1e",
      "blockHash": "0xf2ddc0a4c6a4a36bfe5bada83b0f516e32e51d65a45991d598c9b36fac3c5949",
      "blockNumber": "0x24df6e4",
      "gasUsed": "0x8ca3",
      "effectiveGasPrice": "0x5b8d80",
      "blobGasUsed": "0x364c",
      "from": "0xe5514a31d62d882ec1917aec7a16eccf698d16ab",
      "to": "0x0793531b3cce2b833298cfecaec63ad5c327302d",
      "contractAddress": null,
      "daFootprintGasScalar": "0x8b",
      "l1BaseFeeScalar": "0x44d",
      "l1BlobBaseFee": "0x1af0c8",
      "l1BlobBaseFeeScalar": "0xa118b",
      "l1Fee": "0x9bbf073",
      "l1GasPrice": "0x195769f",
      "l1GasUsed": "0x640"
    },
    {
      "status": "0x1",
      "cumulativeGasUsed": "0x3ed028",
      "logs": [
        {
          "address": "0x0793531b3cce2b833298cfecaec63ad5c327302d",
          "topics": [
            "0x75db0622e15103635f1cc53353a7e715f4b71125b33ea33f93e451c23427484a",
            "0x8e7edd370d0bbc9e4c927591a6e67e4ac3bafdbd2e5e86968ac05970dd99450c"
          ],
          "data": "0x0000000000000000000000000000000000000000000000000000000000000001000000000000000000000000000000000000000000000000000000000115b5c0",
          "blockHash": "0x0000000000000000000000000000000000000000000000000000000000000000",
          "blockNumber": "0x24df6e4",
          "blockTimestamp": "0x69af4ca8",
          "transactionHash": "0xc5a1e33e1f77b7fc5ccb114f03ff9278acc3897c1f74e6aa95607db30568525e",
          "transactionIndex": "0x1f",
          "logIndex": "0x7e",
          "removed": false
        }
      ],
      "logsBloom": "0x00000000000000000000000000000000000000000000000000000000000000000000000000000000000000000000000000000000000000000000000000000000000000080000000000000000000000000000000000000000000000000400000000000000000000010000000000000000000000000000000000000000000000000000000001000000000000000000000000000000000000000000000000000000000000000000000000000000000000000000000000000000002000000040000000000000000000000000000000000000000400000000000000000000000000000000000000000000000008000000000000008000000000000000000000000000",
      "type": "0x2",
      "transactionHash": "0xc5a1e33e1f77b7fc5ccb114f03ff9278acc3897c1f74e6aa95607db30568525e",
      "transactionIndex": "0x1f",
      "blockHash": "0x0000000000000000000000000000000000000000000000000000000000000000",
      "blockNumber": "0x24df6e4",
      "gasUsed": "0x8caf",
      "effectiveGasPrice": "0x5b8d80",
      "blobGasUsed": "0x364c",
      "from": "0xe5514a31d62d882ec1917aec7a16eccf698d16ab",
      "to": "0x0793531b3cce2b833298cfecaec63ad5c327302d",
      "contractAddress": null,
      "daFootprintGasScalar": "0x8b",
      "l1BaseFeeScalar": "0x44d",
      "l1BlobBaseFee": "0x1af0c8",
      "l1BlobBaseFeeScalar": "0xa118b",
      "l1Fee": "0x9bbf073",
      "l1GasPrice": "0x195769f",
      "l1GasUsed": "0x640"
    },
    {
      "status": "0x1",
      "cumulativeGasUsed": "0x3f5cd7",
      "logs": [
        {
          "address": "0x0793531b3cce2b833298cfecaec63ad5c327302d",
          "topics": [
            "0x75db0622e15103635f1cc53353a7e715f4b71125b33ea33f93e451c23427484a",
            "0x5282d25f627d2edcd47c23f0e26a8a708b36432f4fc3cf099a04f8d5d1bd97fa"
          ],
          "data": "0x0000000000000000000000000000000000000000000000000000000000000001000000000000000000000000000000000000000000000000000000000115b5c0",
          "blockHash": "0x0000000000000000000000000000000000000000000000000000000000000000",
          "blockNumber": "0x24df6e4",
          "blockTimestamp": "0x69af4ca8",
          "transactionHash": "0xb7394bdc7f79ad6a5c6bb984d9b2da17c6060d794e31f6a0eac9a1f6846d6acb",
          "transactionIndex": "0x20",
          "logIndex": "0x7f",
          "removed": false
        }
      ],
      "logsBloom": "0x00000000000000000000000000000000000000000000000000000000000000000000000000000000000000000000000000000000000000000000000000000000000000080000000000000000000000000000000000000000000000000000000000000000000040010000000000000000000000000000000000000000000000000000000000000000000000000000000000000000000020000000000000000000000000000000000000000000000000000000000000000000002000000040000000000000000000000000000000000000000000080000000000000000000000000000000000000000000008000000000000008000000000000000000000000000",
      "type": "0x2",
      "transactionHash": "0xb7394bdc7f79ad6a5c6bb984d9b2da17c6060d794e31f6a0eac9a1f6846d6acb",
      "transactionIndex": "0x20",
      "blockHash": "0x0000000000000000000000000000000000000000000000000000000000000000",
      "blockNumber": "0x24df6e4",
      "gasUsed": "0x8caf",
      "effectiveGasPrice": "0x5b8d80",
      "blobGasUsed": "0x364c",
      "from": "0xe5514a31d62d882ec1917aec7a16eccf698d16ab",
      "to": "0x0793531b3cce2b833298cfecaec63ad5c327302d",
      "contractAddress": null,
      "daFootprintGasScalar": "0x8b",
      "l1BaseFeeScalar": "0x44d",
      "l1BlobBaseFee": "0x1af0c8",
      "l1BlobBaseFeeScalar": "0xa118b",
      "l1Fee": "0x9bbf073",
      "l1GasPrice": "0x195769f",
      "l1GasUsed": "0x640"
    },
    {
      "status": "0x1",
      "cumulativeGasUsed": "0x418bbf",
      "logs": [
        {
          "address": "0x0793531b3cce2b833298cfecaec63ad5c327302d",
          "topics": [
            "0x75db0622e15103635f1cc53353a7e715f4b71125b33ea33f93e451c23427484a",
            "0x75f12b7d3361161380fa372e63185b6485106bdbfd68f3ca78a9ae6ee080671e"
          ],
          "data": "0x0000000000000000000000000000000000000000000000000000000000000000000000000000000000000000000000000000000000000000000000000115b5c0",
          "blockHash": "0x0000000000000000000000000000000000000000000000000000000000000000",
          "blockNumber": "0x24df6e4",
          "blockTimestamp": "0x69af4ca8",
          "transactionHash": "0xf8ad34e1dfc310553e2a954c28ce3ddd2c56c38bd9a69a9248726cfa5032ea99",
          "transactionIndex": "0x22",
          "logIndex": "0x81",
          "removed": false
        }
      ],
      "logsBloom": "0x00000000000000020000000000000000000000000000000000000000000000000000000000000000000000000000000000000000000000000000000000000000000000080000000000000000000000000000000000000000000000000000000000800000000000010000000000000000002000000000000000000000000000000000000000000000000000000000000000000000000000000000000000000000000000000000000000000000000000000000000000000000002000000040000000000000000000000000000000000000000000000000000000000000000000000000000000000000000008000000000000008000000000000000000000000000",
      "type": "0x2",
      "transactionHash": "0xf8ad34e1dfc310553e2a954c28ce3ddd2c56c38bd9a69a9248726cfa5032ea99",
      "transactionIndex": "0x22",
      "blockHash": "0x0000000000000000000000000000000000000000000000000000000000000000",
      "blockNumber": "0x24df6e4",
      "gasUsed": "0x8caf",
      "effectiveGasPrice": "0x5b8d80",
      "blobGasUsed": "0x364c",
      "from": "0xe5514a31d62d882ec1917aec7a16eccf698d16ab",
      "to": "0x0793531b3cce2b833298cfecaec63ad5c327302d",
      "contractAddress": null,
      "daFootprintGasScalar": "0x8b",
      "l1BaseFeeScalar": "0x44d",
      "l1BlobBaseFee": "0x1af0c8",
      "l1BlobBaseFeeScalar": "0xa118b",
      "l1Fee": "0x9bbf073",
      "l1GasPrice": "0x195769f",
      "l1GasUsed": "0x640"
    },
    {
      "status": "0x1",
      "cumulativeGasUsed": "0x42186e",
      "logs": [
        {
          "address": "0x0793531b3cce2b833298cfecaec63ad5c327302d",
          "topics": [
            "0x75db0622e15103635f1cc53353a7e715f4b71125b33ea33f93e451c23427484a",
            "0x7cdd368ce3eda895888107c82c8c4560d706a27122675ff694800833eb3bcf62"
          ],
          "data": "0x0000000000000000000000000000000000000000000000000000000000000000000000000000000000000000000000000000000000000000000000000115b5c0",
          "blockHash": "0x0000000000000000000000000000000000000000000000000000000000000000",
          "blockNumber": "0x24df6e4",
          "blockTimestamp": "0x69af4ca8",
          "transactionHash": "0xaf10a1596d3139fe6646cd5940d6dcdd5a68d4851bb5764b3863cfe7307f6e86",
          "transactionIndex": "0x23",
          "logIndex": "0x82",
          "removed": false
        }
      ],
      "logsBloom": "0x00000000000000000000000000000000000000000000000000000000000000000000000000000000000000000000000000000000000004000000000000000000000000080000000000000000000000000000000000000000000000000000000000000000000000010000000000000000000000200000000000000000000000000000000000000000000000000000000000000000000000000000000000000000000000000000000000000000000000000000000000000000002000000040000000000000000000000000000020000000000000000000000000000000000000000000000000000000000008000000000000008000000000000000000000000000",
      "type": "0x2",
      "transactionHash": "0xaf10a1596d3139fe6646cd5940d6dcdd5a68d4851bb5764b3863cfe7307f6e86",
      "transactionIndex": "0x23",
      "blockHash": "0x0000000000000000000000000000000000000000000000000000000000000000",
      "blockNumber": "0x24df6e4",
      "gasUsed": "0x8caf",
      "effectiveGasPrice": "0x5b8d80",
      "blobGasUsed": "0x364c",
      "from": "0xe5514a31d62d882ec1917aec7a16eccf698d16ab",
      "to": "0x0793531b3cce2b833298cfecaec63ad5c327302d",
      "contractAddress": null,
      "daFootprintGasScalar": "0x8b",
      "l1BaseFeeScalar": "0x44d",
      "l1BlobBaseFee": "0x1af0c8",
      "l1BlobBaseFeeScalar": "0xa118b",
      "l1Fee": "0x9bbf073",
      "l1GasPrice": "0x195769f",
      "l1GasUsed": "0x640"
    },
    {
      "status": "0x1",
      "cumulativeGasUsed": "0x42a51d",
      "logs": [
        {
          "address": "0x0793531b3cce2b833298cfecaec63ad5c327302d",
          "topics": [
            "0x75db0622e15103635f1cc53353a7e715f4b71125b33ea33f93e451c23427484a",
            "0x04df66ee18a794adff1a141bcc6631192935eb438eb326aaa2d041138b1f23d9"
          ],
          "data": "0x00000000000000000000000000000000000000000000000000000000000000010000000000000000000000000000000000000000000000000000000001450320",
          "blockHash": "0x0000000000000000000000000000000000000000000000000000000000000000",
          "blockNumber": "0x24df6e4",
          "blockTimestamp": "0x69af4ca8",
          "transactionHash": "0x076efc4e57aa3a666a172cf30845338e4437426a88fd9cdc0a0e083cd884cb90",
          "transactionIndex": "0x24",
          "logIndex": "0x83",
          "removed": false
        }
      ],
      "logsBloom": "0x00000000000000000000000000000000000000000000000000000000000000000000000000000000000000000000000000000000000000000000000000000000000000080000000000000000000000000000000000000000000000000000000000000000000000010000000000000000000000000000000000000000000000000000000000000000000000000000000000000000000000000000000000000000000000000000080000000000000000000000000000000000002000000040000000000000000000000000000000000000000000000000000000000000000000000000000000000000000008000000000080008000000000000000000040000000",
      "type": "0x2",
      "transactionHash": "0x076efc4e57aa3a666a172cf30845338e4437426a88fd9cdc0a0e083cd884cb90",
      "transactionIndex": "0x24",
      "blockHash": "0x0000000000000000000000000000000000000000000000000000000000000000",
      "blockNumber": "0x24df6e4",
      "gasUsed": "0x8caf",
      "effectiveGasPrice": "0x5b8d80",
      "blobGasUsed": "0x364c",
      "from": "0xe5514a31d62d882ec1917aec7a16eccf698d16ab",
      "to": "0x0793531b3cce2b833298cfecaec63ad5c327302d",
      "contractAddress": null,
      "daFootprintGasScalar": "0x8b",
      "l1BaseFeeScalar": "0x44d",
      "l1BlobBaseFee": "0x1af0c8",
      "l1BlobBaseFeeScalar": "0xa118b",
      "l1Fee": "0x9bbf073",
      "l1GasPrice": "0x195769f",
      "l1GasUsed": "0x640"
    },
    {
      "status": "0x1",
      "cumulativeGasUsed": "0x4331cc",
      "logs": [
        {
          "address": "0x0793531b3cce2b833298cfecaec63ad5c327302d",
          "topics": [
            "0x75db0622e15103635f1cc53353a7e715f4b71125b33ea33f93e451c23427484a",
            "0x76e392e9513fccd72e6cd9e855a3aecad1b08efb223a99a0a34775440da47ee3"
          ],
          "data": "0x00000000000000000000000000000000000000000000000000000000000000010000000000000000000000000000000000000000000000000000000001450320",
          "blockHash": "0x0000000000000000000000000000000000000000000000000000000000000000",
          "blockNumber": "0x24df6e4",
          "blockTimestamp": "0x69af4ca8",
          "transactionHash": "0x65a96d64ee279c86eaeb970ec342918f120add455c9d477e4484b7bb756157d3",
          "transactionIndex": "0x25",
          "logIndex": "0x84",
          "removed": false
        }
      ],
      "logsBloom": "0x00000000000000000000000000000000000000000000000000000000000000000000000000000000000000000000000000000000000000000000000000000000000000080000000000000000000000000000000000000000000000000000000000000000000000010000000000000000000000000000000000000010000000000000000000000000000000400000000000000000000000000000000000000000000000000000000000000000000000000000000000000020002000000040000000000000000000000000000000000000000000000000000000000000000000000000000000000000000008000000000000008000000000000000000000000000",
      "type": "0x2",
      "transactionHash": "0x65a96d64ee279c86eaeb970ec342918f120add455c9d477e4484b7bb756157d3",
      "transactionIndex": "0x25",
      "blockHash": "0x0000000000000000000000000000000000000000000000000000000000000000",
      "blockNumber": "0x24df6e4",
      "gasUsed": "0x8caf",
      "effectiveGasPrice": "0x5b8d80",
      "blobGasUsed": "0x364c",
      "from": "0xe5514a31d62d882ec1917aec7a16eccf698d16ab",
      "to": "0x0793531b3cce2b833298cfecaec63ad5c327302d",
      "contractAddress": null,
      "daFootprintGasScalar": "0x8b",
      "l1BaseFeeScalar": "0x44d",
      "l1BlobBaseFee": "0x1af0c8",
      "l1BlobBaseFeeScalar": "0xa118b",
      "l1Fee": "0x9bbf073",
      "l1GasPrice": "0x195769f",
      "l1GasUsed": "0x640"
    },
    {
      "status": "0x1",
      "cumulativeGasUsed": "0x43be7b",
      "logs": [
        {
          "address": "0x0793531b3cce2b833298cfecaec63ad5c327302d",
          "topics": [
            "0x75db0622e15103635f1cc53353a7e715f4b71125b33ea33f93e451c23427484a",
            "0x574346ead2372e39d7b6f10bc44f94d394ab02acbcd0b1b09b61e030d95bb287"
          ],
          "data": "0x00000000000000000000000000000000000000000000000000000000000000000000000000000000000000000000000000000000000000000000000001450320",
          "blockHash": "0xf2ddc0a4c6a4a36bfe5bada83b0f516e32e51d65a45991d598c9b36fac3c5949",
          "blockNumber": "0x24df6e4",
          "blockTimestamp": "0x69af4ca8",
          "transactionHash": "0x332b0ef6e598e1c5e3cf055668ba2cd02b7cecf14597c5f597f6af95eb6f5105",
          "transactionIndex": "0x26",
          "logIndex": "0x85",
          "removed": false
        }
      ],
      "logsBloom": "0x00000000000000000000000000000000000000020000000000000000000000000000000000000000000000000002000000000000000000000000000000000200000000080000000000000000000000000000000000000000000000000000000000000000000000010000000000000000000000000000000000000000000000000000000000000000000000000000000000000000000000000000000000000000000000000000000000000000000000000000000000000000002000000040000000000000000000000000000000000000000000000000000000000000000000000000000000000000000008000000000000008000000000000000000000000000",
      "type": "0x2",
      "transactionHash": "0x332b0ef6e598e1c5e3cf055668ba2cd02b7cecf14597c5f597f6af95eb6f5105",
      "transactionIndex": "0x26",
      "blockHash": "0xf2ddc0a4c6a4a36bfe5bada83b0f516e32e51d65a45991d598c9b36fac3c5949",
      "blockNumber": "0x24df6e4",
      "gasUsed": "0x8caf",
      "effectiveGasPrice": "0x5b8d80",
      "blobGasUsed": "0x364c",
      "from": "0xe5514a31d62d882ec1917aec7a16eccf698d16ab",
      "to": "0x0793531b3cce2b833298cfecaec63ad5c327302d",
      "contractAddress": null,
      "daFootprintGasScalar": "0x8b",
      "l1BaseFeeScalar": "0x44d",
      "l1BlobBaseFee": "0x1af0c8",
      "l1BlobBaseFeeScalar": "0xa118b",
      "l1Fee": "0x9bbf073",
      "l1GasPrice": "0x195769f",
      "l1GasUsed": "0x640"
    },
    {
      "status": "0x1",
      "cumulativeGasUsed": "0x444b2a",
      "logs": [
        {
          "address": "0x0793531b3cce2b833298cfecaec63ad5c327302d",
          "topics": [
            "0x75db0622e15103635f1cc53353a7e715f4b71125b33ea33f93e451c23427484a",
            "0x8b57f363af96f3252af2ae1c135c5966179c507427a0738862e2479509d4c131"
          ],
          "data": "0x00000000000000000000000000000000000000000000000000000000000000000000000000000000000000000000000000000000000000000000000001450320",
          "blockHash": "0xf2ddc0a4c6a4a36bfe5bada83b0f516e32e51d65a45991d598c9b36fac3c5949",
          "blockNumber": "0x24df6e4",
          "blockTimestamp": "0x69af4ca8",
          "transactionHash": "0x924ab4e02649c01a4e4599bf3cc6a15ca29e7c37121f4a2152c058ab50591844",
          "transactionIndex": "0x27",
          "logIndex": "0x86",
          "removed": false
        }
      ],
      "logsBloom": "0x00000000000000000000000000000000000000000000000000000000000000000000000000000000100000000000000000000000000000000000000000000000000000080000000000000000000000000000000000000000000000000000000000000000000000010000000000000000000000000000000000000000000000000800000000000000000000000400000000000000000000000000000000000000000000000000000000000000000000000000000000000000002000000040000000000000000000000000000000000000000000000000000000000000000000000000000000000000000008000000000000008000000000000000000000000000",
      "type": "0x2",
      "transactionHash": "0x924ab4e02649c01a4e4599bf3cc6a15ca29e7c37121f4a2152c058ab50591844",
      "transactionIndex": "0x27",
      "blockHash": "0xf2ddc0a4c6a4a36bfe5bada83b0f516e32e51d65a45991d598c9b36fac3c5949",
      "blockNumber": "0x24df6e4",
      "gasUsed": "0x8caf",
      "effectiveGasPrice": "0x5b8d80",
      "blobGasUsed": "0x364c",
      "from": "0xe5514a31d62d882ec1917aec7a16eccf698d16ab",
      "to": "0x0793531b3cce2b833298cfecaec63ad5c327302d",
      "contractAddress": null,
      "daFootprintGasScalar": "0x8b",
      "l1BaseFeeScalar": "0x44d",
      "l1BlobBaseFee": "0x1af0c8",
      "l1BlobBaseFeeScalar": "0xa118b",
      "l1Fee": "0x9bbf073",
      "l1GasPrice": "0x195769f",
      "l1GasUsed": "0x640"
    },
    {
      "status": "0x1",
      "cumulativeGasUsed": "0x44d7d9",
      "logs": [
        {
          "address": "0x0793531b3cce2b833298cfecaec63ad5c327302d",
          "topics": [
            "0x75db0622e15103635f1cc53353a7e715f4b71125b33ea33f93e451c23427484a",
            "0xf4a636c5c4b3251f2904cc11177d8fd7dede2324962f6079ecefe582e2632cbe"
          ],
          "data": "0x000000000000000000000000000000000000000000000000000000000000000100000000000000000000000000000000000000000000000000000000025f4cc0",
          "blockHash": "0x0000000000000000000000000000000000000000000000000000000000000000",
          "blockNumber": "0x24df6e4",
          "blockTimestamp": "0x69af4ca8",
          "transactionHash": "0xd66a2b21e1ba9773e8528ce78c4d9dbe944ecf2b283639a0695b2ea08b40ad3d",
          "transactionIndex": "0x28",
          "logIndex": "0x87",
          "removed": false
        }
      ],
      "logsBloom": "0x00000000000000000000000000000000000000000000000080000000000000000000000000000000000000000000000000000000000000000000000000000000000000080000000000000000000000000000000000000000000000000000000000000000000000010000000000000000000000000000000000000000000000000000000000000000000000000000000000000000000000000000000000000000000000000000000000000000000000000040000000000400002000000040000000000000000000000000000000000000000000000000000000000000000000000000000000000000000008000000000000008000000000000000000000000000",
      "type": "0x2",
      "transactionHash": "0xd66a2b21e1ba9773e8528ce78c4d9dbe944ecf2b283639a0695b2ea08b40ad3d",
      "transactionIndex": "0x28",
      "blockHash": "0x0000000000000000000000000000000000000000000000000000000000000000",
      "blockNumber": "0x24df6e4",
      "gasUsed": "0x8caf",
      "effectiveGasPrice": "0x5b8d80",
      "blobGasUsed": "0x364c",
      "from": "0xe5514a31d62d882ec1917aec7a16eccf698d16ab",
      "to": "0x0793531b3cce2b833298cfecaec63ad5c327302d",
      "contractAddress": null,
      "daFootprintGasScalar": "0x8b",
      "l1BaseFeeScalar": "0x44d",
      "l1BlobBaseFee": "0x1af0c8",
      "l1BlobBaseFeeScalar": "0xa118b",
      "l1Fee": "0x9bbf073",
      "l1GasPrice": "0x195769f",
      "l1GasUsed": "0x640"
    },
    {
      "status": "0x1",
      "cumulativeGasUsed": "0x503a7",
      "logs": [
        {
          "address": "0x0793531b3cce2b833298cfecaec63ad5c327302d",
          "topics": [
            "0x75db0622e15103635f1cc53353a7e715f4b71125b33ea33f93e451c23427484a",
            "0xc756abc0d0ac38a690b6c524b0fe6fc844ef17a2195b8fc551bc0223c7f15ba6"
          ],
          "data": "0x000000000000000000000000000000000000000000000000000000000000000100000000000000000000000000000000000000000000000000000000025f4cc0",
          "blockHash": "0x0000000000000000000000000000000000000000000000000000000000000000",
          "blockNumber": "0x24df6e5",
          "blockTimestamp": "0x69af4caa",
          "transactionHash": "0x702c9bdcb36ba00143c177c2e707c0e13fc68ef4d146c08510342ef5c5315570",
          "transactionIndex": "0x3",
          "logIndex": "0x3",
          "removed": false
        }
      ],
      "logsBloom": "0x00000000000000000000000000000000000000000000000000000000000000000000000000000000000000000000000000040000000000000000000000000000000000080000000000000000000000008000000000000000000000000000000000000000000000010000000000000020000000000000000000000000000000000000000000000000000000000000000000000000000000000000000000000000000000000000000000000000000000000000000000000000002000000040000000000000000000000000000000000000000000000000000000000000000000000000000000000000000008000000000000008000000000000000000000000000",
      "type": "0x2",
      "transactionHash": "0x702c9bdcb36ba00143c177c2e707c0e13fc68ef4d146c08510342ef5c5315570",
      "transactionIndex": "0x3",
      "blockHash": "0x0000000000000000000000000000000000000000000000000000000000000000",
      "blockNumber": "0x24df6e5",
      "gasUsed": "0x8caf",
      "effectiveGasPrice": "0x5b8d80",
      "blobGasUsed": "0x364c",
      "from": "0xe5514a31d62d882ec1917aec7a16eccf698d16ab",
      "to": "0x0793531b3cce2b833298cfecaec63ad5c327302d",
      "contractAddress": null,
      "daFootprintGasScalar": "0x8b",
      "l1BaseFeeScalar": "0x44d",
      "l1BlobBaseFee": "0x1af0c8",
      "l1BlobBaseFeeScalar": "0xa118b",
      "l1Fee": "0x9bbf073",
      "l1GasPrice": "0x195769f",
      "l1GasUsed": "0x640"
    },
    {
      "status": "0x1",
      "cumulativeGasUsed": "0x59056",
      "logs": [
        {
          "address": "0x0793531b3cce2b833298cfecaec63ad5c327302d",
          "topics": [
            "0x75db0622e15103635f1cc53353a7e715f4b71125b33ea33f93e451c23427484a",
            "0x7190bcaf5714549be433e2d5b9887f738c4905ef5402bd222b76df2a75af9e50"
          ],
          "data": "0x000000000000000000000000000000000000000000000000000000000000000100000000000000000000000000000000000000000000000000000000025f4cc0",
          "blockHash": "0x0000000000000000000000000000000000000000000000000000000000000000",
          "blockNumber": "0x24df6e5",
          "blockTimestamp": "0x69af4caa",
          "transactionHash": "0x4cd9858b3b21c4616f38794287d5bcf2dcb58e40935427ab9d10ebadcbd955bc",
          "transactionIndex": "0x4",
          "logIndex": "0x4",
          "removed": false
        }
      ],
      "logsBloom": "0x00000000000000000000000000000000000000000000000000000000000000000000000000000000000000000000000000000000000000000000000000000000000200080000000000000000000000000000000000000000000000000000000000000000100000010000000000000000000000000000000000000000000000000000000000000000000000000000000000000000000000000000000000000000000000000000000000000000000000000000000000000000002000000040000000000000000000000000000000000000000000000000000002000000000000000000000000000000000008000000000000008000000000000000000000000000",
      "type": "0x2",
      "transactionHash": "0x4cd9858b3b21c4616f38794287d5bcf2dcb58e40935427ab9d10ebadcbd955bc",
      "transactionIndex": "0x4",
      "blockHash": "0x0000000000000000000000000000000000000000000000000000000000000000",
      "blockNumber": "0x24df6e5",
      "gasUsed": "0x8caf",
      "effectiveGasPrice": "0x5b8d80",
      "blobGasUsed": "0x364c",
      "from": "0xe5514a31d62d882ec1917aec7a16eccf698d16ab",
      "to": "0x0793531b3cce2b833298cfecaec63ad5c327302d",
      "contractAddress": null,
      "daFootprintGasScalar": "0x8b",
      "l1BaseFeeScalar": "0x44d",
      "l1BlobBaseFee": "0x1af0c8",
      "l1BlobBaseFeeScalar": "0xa118b",
      "l1Fee": "0x9bbf073",
      "l1GasPrice": "0x195769f",
      "l1GasUsed": "0x640"
    },
    {
      "status": "0x1",
      "cumulativeGasUsed": "0x61d05",
      "logs": [
        {
          "address": "0x0793531b3cce2b833298cfecaec63ad5c327302d",
          "topics": [
            "0x75db0622e15103635f1cc53353a7e715f4b71125b33ea33f93e451c23427484a",
            "0xd817894a8eab658a39d583dfd9dc0a49a536128371273bc0649a4411ee199ee7"
          ],
          "data": "0x000000000000000000000000000000000000000000000000000000000000000000000000000000000000000000000000000000000000000000000000025f4cc0",
          "blockHash": "0xf30e364bacf3e29127f86a49fb00bd607753070f23f2b7a63ad9af11c24a391e",
          "blockNumber": "0x24df6e5",
          "blockTimestamp": "0x69af4caa",
          "transactionHash": "0x40b7fd2463cc40ac386096b939c5bc4e9cca5da020153badeff9a1c226bd89a8",
          "transactionIndex": "0x5",
          "logIndex": "0x5",
          "removed": false
        }
      ],
      "logsBloom": "0x00000000000000000000000000000000000000000000000000000000000000000000000000000000000000000000000000000000000000000000000000000000000000080000000000000000000000000000000000001000000000000000000000000000000000010000000000000000000000000000000000000000000000000000000000000000000000000000000000000000000000000000000000000000000000000100000000000000000000000020000000000000002000000040000000000000000000000000000000000000000000000000000000000000000000000000000000000000000008000000000000008000000000000000000000000000",
      "type": "0x2",
      "transactionHash": "0x40b7fd2463cc40ac386096b939c5bc4e9cca5da020153badeff9a1c226bd89a8",
      "transactionIndex": "0x5",
      "blockHash": "0xf30e364bacf3e29127f86a49fb00bd607753070f23f2b7a63ad9af11c24a391e",
      "blockNumber": "0x24df6e5",
      "gasUsed": "0x8caf",
      "effectiveGasPrice": "0x5b8d80",
      "blobGasUsed": "0x364c",
      "from": "0xe5514a31d62d882ec1917aec7a16eccf698d16ab",
      "to": "0x0793531b3cce2b833298cfecaec63ad5c327302d",
      "contractAddress": null,
      "daFootprintGasScalar": "0x8b",
      "l1BaseFeeScalar": "0x44d",
      "l1BlobBaseFee": "0x1af0c8",
      "l1BlobBaseFeeScalar": "0xa118b",
      "l1Fee": "0x9bbf073",
      "l1GasPrice": "0x195769f",
      "l1GasUsed": "0x640"
    },
    {
      "status": "0x1",
      "cumulativeGasUsed": "0x6a9b4",
      "logs": [
        {
          "address": "0x0793531b3cce2b833298cfecaec63ad5c327302d",
          "topics": [
            "0x75db0622e15103635f1cc53353a7e715f4b71125b33ea33f93e451c23427484a",
            "0x7ad479f13e8081e1e44779fafef66194098f30dcd65687dd997f6565666e292e"
          ],
          "data": "0x000000000000000000000000000000000000000000000000000000000000000000000000000000000000000000000000000000000000000000000000025f4cc0",
          "blockHash": "0x0000000000000000000000000000000000000000000000000000000000000000",
          "blockNumber": "0x24df6e5",
          "blockTimestamp": "0x69af4caa",
          "transactionHash": "0x2b264590e144a8d01489c25a76a2810623084b5cd92f9e2ebc788bdedd8afe7a",
          "transactionIndex": "0x6",
          "logIndex": "0x6",
          "removed": false
        }
      ],
      "logsBloom": "0x00000000000000000000000000000000000000000080000000800000000000000000000000000000000000000000000000000000000000000000000000000000000000080008000000000000000000000000000000000000000000000000000000000000000000010000000000000000000000000000000000000000000000000000000000000000000000000000000000000000000000000000000000000000000000000000000000000000000000000000000000000000002000000040000000000000000000000000000000000000000000000000000000000000000000000000000000000000000008000000000000008000000000000000000000000000",
      "type": "0x2",
      "transactionHash": "0x2b264590e144a8d01489c25a76a2810623084b5cd92f9e2ebc788bdedd8afe7a",
      "transactionIndex": "0x6",
      "blockHash": "0x0000000000000000000000000000000000000000000000000000000000000000",
      "blockNumber": "0x24df6e5",
      "gasUsed": "0x8caf",
      "effectiveGasPrice": "0x5b8d80",
      "blobGasUsed": "0x364c",
      "from": "0xe5514a31d62d882ec1917aec7a16eccf698d16ab",
      "to": "0x0793531b3cce2b833298cfecaec63ad5c327302d",
      "contractAddress": null,
      "daFootprintGasScalar": "0x8b",
      "l1BaseFeeScalar": "0x44d",
      "l1BlobBaseFee": "0x1af0c8",
      "l1BlobBaseFeeScalar": "0xa118b",
      "l1Fee": "0x9bbf073",
      "l1GasPrice": "0x195769f",
      "l1GasUsed": "0x640"
    },
    {
      "status": "0x1",
      "cumulativeGasUsed": "0x73663",
      "logs": [
        {
          "address": "0x0793531b3cce2b833298cfecaec63ad5c327302d",
          "topics": [
            "0x75db0622e15103635f1cc53353a7e715f4b71125b33ea33f93e451c23427484a",
            "0x84788673439e8726d86ef3d0e9d3245c2880f18a2234e2d51608a175cc82f11e"
          ],
          "data": "0x000000000000000000000000000000000000000000000000000000000000000000000000000000000000000000000000000000000000000000000000025f4cc0",
          "blockHash": "0x0000000000000000000000000000000000000000000000000000000000000000",
          "blockNumber": "0x24df6e5",
          "blockTimestamp": "0x69af4caa",
          "transactionHash": "0xc9a40d8a3965767f5f2b1d2b52165a4a6e0cb2ed3d68fb773912167efff4b170",
          "transactionIndex": "0x7",
          "logIndex": "0x7",
          "removed": false
        }
      ],
      "logsBloom": "0x00000000000000000000000000000000000000000000000400000000000000000000000000000000000000000000000000000000000000000000000000000000000000080000000000000000000000000000000000040000000000000000000000000000000000010000000000000000000000000000000000000000000000000000000000000000000000000000000000000000000000000000000000000800000000000000000000000000000000000000000000000000002000000040000000000000000000000000000000000000000000000000000000000000000000000000000000000000000008000000000000008000000000000000000000000000",
      "type": "0x2",
      "transactionHash": "0xc9a40d8a3965767f5f2b1d2b52165a4a6e0cb2ed3d68fb773912167efff4b170",
      "transactionIndex": "0x7",
      "blockHash": "0x0000000000000000000000000000000000000000000000000000000000000000",
      "blockNumber": "0x24df6e5",
      "gasUsed": "0x8caf",
      "effectiveGasPrice": "0x5b8d80",
      "blobGasUsed": "0x364c",
      "from": "0xe5514a31d62d882ec1917aec7a16eccf698d16ab",
      "to": "0x0793531b3cce2b833298cfecaec63ad5c327302d",
      "contractAddress": null,
      "daFootprintGasScalar": "0x8b",
      "l1BaseFeeScalar": "0x44d",
      "l1BlobBaseFee": "0x1af0c8",
      "l1BlobBaseFeeScalar": "0xa118b",
      "l1Fee": "0x9bbf073",
      "l1GasPrice": "0x195769f",
      "l1GasUsed": "0x640"
    },
    {
      "status": "0x1",
      "cumulativeGasUsed": "0x7c312",
      "logs": [
        {
          "address": "0x0793531b3cce2b833298cfecaec63ad5c327302d",
          "topics": [
            "0x75db0622e15103635f1cc53353a7e715f4b71125b33ea33f93e451c23427484a",
            "0x2bbf52073e8f2f593f07313d3becafe65c6e86c805e52deccef8bb32b27252f9"
          ],
          "data": "0x000000000000000000000000000000000000000000000000000000000000000000000000000000000000000000000000000000000000000000000000025f4cc0",
          "blockHash": "0x0000000000000000000000000000000000000000000000000000000000000000",
          "blockNumber": "0x24df6e5",
          "blockTimestamp": "0x69af4caa",
          "transactionHash": "0xb836d0172b21cfd2fa5158c6437d516791cfc415fc00331ca33eaaee75fc1abd",
          "transactionIndex": "0x8",
          "logIndex": "0x8",
          "removed": false
        }
      ],
      "logsBloom": "0x00000000000000000000000000000000000000000000000000000000000000000000000000000000000000000000000000000000000000000000000000000000000000080000000000000000000000000000000000000000000000000000000000000000000000010000000000000000000000000000000000000000000000000000000000000010000000000000000100000000000000000000000000000000000000000000000000000000000000000000000000000000002000000040000000000000000000000000000000000000000000000000000000001000000000000000000000000000000008000000000000008000000000000000000000000000",
      "type": "0x2",
      "transactionHash": "0xb836d0172b21cfd2fa5158c6437d516791cfc415fc00331ca33eaaee75fc1abd",
      "transactionIndex": "0x8",
      "blockHash": "0x0000000000000000000000000000000000000000000000000000000000000000",
      "blockNumber": "0x24df6e5",
      "gasUsed": "0x8caf",
      "effectiveGasPrice": "0x5b8d80",
      "blobGasUsed": "0x364c",
      "from": "0xe5514a31d62d882ec1917aec7a16eccf698d16ab",
      "to": "0x0793531b3cce2b833298cfecaec63ad5c327302d",
      "contractAddress": null,
      "daFootprintGasScalar": "0x8b",
      "l1BaseFeeScalar": "0x44d",
      "l1BlobBaseFee": "0x1af0c8",
      "l1BlobBaseFeeScalar": "0xa118b",
      "l1Fee": "0x9bbf073",
      "l1GasPrice": "0x195769f",
      "l1GasUsed": "0x640"
    }
  ],
  "libraries": [],
  "pending": [],
  "returns": {},
  "timestamp": 1773096106275,
  "chain": 84532,
  "commit": null
}