{
  "transactions": [
    {
      "hash": "0xf0e86aad667da548ba0ca888f0b8914d50cd071abb749cb8888583a6d7f8de20",
      "transactionType": "CALL",
      "contractName": null,
      "contractAddress": "0x0793531b3cce2b833298cfecaec63ad5c327302d",
      "function": "createStrikeMarket(bytes32,int64,uint64)",
      "arguments": [
        "0x4141504c00000000000000000000000000000000000000000000000000000000",
        "23000000",
        "1773086400"
      ],
      "transaction": {
        "from": "0xa695bcdd880e8108ef177f4a151cfcd3eae3b6d4",
        "to": "0x0793531b3cce2b833298cfecaec63ad5c327302d",
        "gas": "0x5dc4d",
        "value": "0x0",
        "input": "0xe73d073a4141504c0000000000000000000000000000000000000000000000000000000000000000000000000000000000000000000000000000000000000000015ef3c00000000000000000000000000000000000000000000000000000000069af26c0",
        "nonce": "0x0",
        "chainId": "0x14a34"
      },
      "additionalContracts": [],
      "isFixedGasLimit": false
    },
    {
      "hash": "0x89ce340dd726364af09118e35f6d9321e294e35c413ddf3e292c9f13d1d5cf23",
      "transactionType": "CALL",
      "contractName": null,
      "contractAddress": "0x0793531b3cce2b833298cfecaec63ad5c327302d",
      "function": "createStrikeMarket(bytes32,int64,uint64)",
      "arguments": [
        "0x4141504c00000000000000000000000000000000000000000000000000000000",
        "24000000",
        "1773086400"
      ],
      "transaction": {
        "from": "0xa695bcdd880e8108ef177f4a151cfcd3eae3b6d4",
        "to": "0x0793531b3cce2b833298cfecaec63ad5c327302d",
        "gas": "0x57a8a",
        "value": "0x0",
        "input": "0xe73d073a4141504c0000000000000000000000000000000000000000000000000000000000000000000000000000000000000000000000000000000000000000016e36000000000000000000000000000000000000000000000000000000000069af26c0",
        "nonce": "0x1",
        "chainId": "0x14a34"
      },
      "additionalContracts": [],
      "isFixedGasLimit": false
    },
    {
      "hash": "0x3cb85e98a478b6858ec425a4eba573348e7801a96fc11df6a2479cb4a34a5048",
      "transactionType": "CALL",
      "contractName": null,
      "contractAddress": "0x0793531b3cce2b833298cfecaec63ad5c327302d",
      "function": "createStrikeMarket(bytes32,int64,uint64)",
      "arguments": [
        "0x4141504c00000000000000000000000000000000000000000000000000000000",
        "25000000",
        "1773086400"
      ],
      "transaction": {
        "from": "0xa695bcdd880e8108ef177f4a151cfcd3eae3b6d4",
        "to": "0x0793531b3cce2b833298cfecaec63ad5c327302d",
        "gas": "0x52caf",
        "value": "0x0",
        "input": "0xe73d073a4141504c0000000000000000000000000000000000000000000000000000000000000000000000000000000000000000000000000000000000000000017d78400000000000000000000000000000000000000000000000000000000069af26c0",
        "nonce": "0x2",
        "chainId": "0x14a34"
      },
      "additionalContracts": [],
      "isFixedGasLimit": false
    },
    {
      "hash": "0x5763c3ec7e7fe5aa801fbd349135e81dfe8869ea639e638327f5076b1d183bf5",
      "transactionType": "CALL",
      "contractName": null,
      "contractAddress": "0x0793531b3cce2b833298cfecaec63ad5c327302d",
      "function": "createStrikeMarket(bytes32,int64,uint64)",
      "arguments": [
        "0x4141504c00000000000000000000000000000000000000000000000000000000",
        "26000000",
        "1773086400"
      ],
      "transaction": {
        "from": "0xa695bcdd880e8108ef177f4a151cfcd3eae3b6d4",
        "to": "0x0793531b3cce2b833298cfecaec63ad5c327302d",
        "gas": "0x52caf",
        "value": "0x0",
        "input": "0xe73d073a4141504c0000000000000000000000000000000000000000000000000000000000000000000000000000000000000000000000000000000000000000018cba800000000000000000000000000000000000000000000000000000000069af26c0",
        "nonce": "0x3",
        "chainId": "0x14a34"
      },
      "additionalContracts": [],
      "isFixedGasLimit": false
    },
    {
      "hash": "0xdc237477f49e6c047262215642ef7e1ef308510889633b971e14a61743ef841a",
      "transactionType": "CALL",
      "contractName": null,
      "contractAddress": "0x0793531b3cce2b833298cfecaec63ad5c327302d",
      "function": "createStrikeMarket(bytes32,int64,uint64)",
      "arguments": [
        "0x4141504c00000000000000000000000000000000000000000000000000000000",
        "27000000",
        "1773086400"
      ],
      "transaction": {
        "from": "0xa695bcdd880e8108ef177f4a151cfcd3eae3b6d4",
        "to": "0x0793531b3cce2b833298cfecaec63ad5c327302d",
        "gas": "0x52caf",
        "value": "0x0",
        "input": "0xe73d073a4141504c0000000000000000000000000000000000000000000000000000000000000000000000000000000000000000000000000000000000000000019bfcc00000000000000000000000000000000000000000000000000000000069af26c0",
        "nonce": "0x4",
        "chainId": "0x14a34"
      },
      "additionalContracts": [],
      "isFixedGasLimit": false
    },
    {
      "hash": "0x56b99def6f5bd68bea70ab755cd33797eb07d48278f6a07c46e1498f35da972e",
      "transactionType": "CALL",
      "contractName": null,
      "contractAddress": "0x0793531b3cce2b833298cfecaec63ad5c327302d",
      "function": "createStrikeMarket(bytes32,int64,uint64)",
      "arguments": [
        "0x4141504c00000000000000000000000000000000000000000000000000000000",
        "28000000",
        "1773086400"
      ],
      "transaction": {
        "from": "0xa695bcdd880e8108ef177f4a151cfcd3eae3b6d4",
        "to": "0x0793531b3cce2b833298cfecaec63ad5c327302d",
        "gas": "0x57a8a",
        "value": "0x0",
        "input": "0xe73d073a4141504c000000000000000000000000000000000000000000000000000000000000000000000000000000000000000000000000000000000000000001ab3f000000000000000000000000000000000000000000000000000000000069af26c0",
        "nonce": "0x5",
        "chainId": "0x14a34"
      },
      "additionalContracts": [],
      "isFixedGasLimit": false
    },
    {
      "hash": "0x08bc3e77eb6ae998c5f49cf11f8e5ce60116fc51df172621c6ac86fa52d67dde",
      "transactionType": "CALL",
      "contractName": null,
      "contractAddress": "0x0793531b3cce2b833298cfecaec63ad5c327302d",
      "function": "createStrikeMarket(bytes32,int64,uint64)",
      "arguments": [
        "0x4d53465400000000000000000000000000000000000000000000000000000000",
        "37000000",
        "1773086400"
      ],
      "transaction": {
        "from": "0xa695bcdd880e8108ef177f4a151cfcd3eae3b6d4",
        "to": "0x0793531b3cce2b833298cfecaec63ad5c327302d",
        "gas": "0x52caf",
        "value": "0x0",
        "input": "0xe73d073a4d5346540000000000000000000000000000000000000000000000000000000000000000000000000000000000000000000000000000000000000000023493400000000000000000000000000000000000000000000000000000000069af26c0",
        "nonce": "0x6",
        "chainId": "0x14a34"
      },
      "additionalContracts": [],
      "isFixedGasLimit": false
    },
    {
      "hash": "0xd63d46a8681b22fb4f09ad98bc8d058e14af5713b6e3654da69b3bb7ae706d65",
      "transactionType": "CALL",
      "contractName": null,
      "contractAddress": "0x0793531b3cce2b833298cfecaec63ad5c327302d",
      "function": "createStrikeMarket(bytes32,int64,uint64)",
      "arguments": [
        "0x4d53465400000000000000000000000000000000000000000000000000000000",
        "39000000",
        "1773086400"
      ],
      "transaction": {
        "from": "0xa695bcdd880e8108ef177f4a151cfcd3eae3b6d4",
        "to": "0x0793531b3cce2b833298cfecaec63ad5c327302d",
        "gas": "0x52caf",
        "value": "0x0",
        "input": "0xe73d073a4d5346540000000000000000000000000000000000000000000000000000000000000000000000000000000000000000000000000000000000000000025317c00000000000000000000000000000000000000000000000000000000069af26c0",
        "nonce": "0x7",
        "chainId": "0x14a34"
      },
      "additionalContracts": [],
      "isFixedGasLimit": false
    },
    {
      "hash": "0xa15be9f63233e40000ce0491da2f4166907aa2cfdd04f857faa8d2dac23a16a1",
      "transactionType": "CALL",
      "contractName": null,
      "contractAddress": "0x0793531b3cce2b833298cfecaec63ad5c327302d",
      "function": "createStrikeMarket(bytes32,int64,uint64)",
      "arguments": [
        "0x4d53465400000000000000000000000000000000000000000000000000000000",
        "40000000",
        "1773086400"
      ],
      "transaction": {
        "from": "0xa695bcdd880e8108ef177f4a151cfcd3eae3b6d4",
        "to": "0x0793531b3cce2b833298cfecaec63ad5c327302d",
        "gas": "0x57a8a",
        "value": "0x0",
        "input": "0xe73d073a4d534654000000000000000000000000000000000000000000000000000000000000000000000000000000000000000000000000000000000000000002625a000000000000000000000000000000000000000000000000000000000069af26c0",
        "nonce": "0x8",
        "chainId": "0x14a34"
      },
      "additionalContracts": [],
      "isFixedGasLimit": false
    },
    {
      "hash": "0x7d7bc9989a4b63db54121a3f63f784c0682687952ba35ec531ce3389b73eaac0",
      "transactionType": "CALL",
      "contractName": null,
      "contractAddress": "0x0793531b3cce2b833298cfecaec63ad5c327302d",
      "function": "createStrikeMarket(bytes32,int64,uint64)",
      "arguments": [
        "0x4d53465400000000000000000000000000000000000000000000000000000000",
        "41000000",
        "1773086400"
      ],
      "transaction": {
        "from": "0xa695bcdd880e8108ef177f4a151cfcd3eae3b6d4",
        "to": "0x0793531b3cce2b833298cfecaec63ad5c327302d",
        "gas": "0x52caf",
        "value": "0x0",
        "input": "0xe73d073a4d534654000000000000000000000000000000000000000000000000000000000000000000000000000000000000000000000000000000000000000002719c400000000000000000000000000000000000000000000000000000000069af26c0",
        "nonce": "0x9",
        "chainId": "0x14a34"
      },
      "additionalContracts": [],
      "isFixedGasLimit": false
    },
    {
      "hash": "0xfe2592f67044ea9b4fe5246c49fb46598bd196f8ab4010c5964ffa9fd08132b0",
      "transactionType": "CALL",
      "contractName": null,
      "contractAddress": "0x0793531b3cce2b833298cfecaec63ad5c327302d",
      "function": "createStrikeMarket(bytes32,int64,uint64)",
      "arguments": [
        "0x4d53465400000000000000000000000000000000000000000000000000000000",
        "42000000",
        "1773086400"
      ],
      "transaction": {
        "from": "0xa695bcdd880e8108ef177f4a151cfcd3eae3b6d4",
        "to": "0x0793531b3cce2b833298cfecaec63ad5c327302d",
        "gas": "0x52caf",
        "value": "0x0",
        "input": "0xe73d073a4d53465400000000000000000000000000000000000000000000000000000000000000000000000000000000000000000000000000000000000000000280de800000000000000000000000000000000000000000000000000000000069af26c0",
        "nonce": "0xa",
        "chainId": "0x14a34"
      },
      "additionalContracts": [],
      "isFixedGasLimit": false
    },
    {
      "hash": "0x43d8df9818ab26c4cf393c326c118976005ef897642d6a8ba11c305957481048",
      "transactionType": "CALL",
      "contractName": null,
      "contractAddress": "0x0793531b3cce2b833298cfecaec63ad5c327302d",
      "function": "createStrikeMarket(bytes32,int64,uint64)",
      "arguments": [
        "0x4d53465400000000000000000000000000000000000000000000000000000000",
        "43000000",
        "1773086400"
      ],
      "transaction": {
        "from": "0xa695bcdd880e8108ef177f4a151cfcd3eae3b6d4",
        "to": "0x0793531b3cce2b833298cfecaec63ad5c327302d",
        "gas": "0x52caf",
        "value": "0x0",
        "input": "0xe73d073a4d5346540000000000000000000000000000000000000000000000000000000000000000000000000000000000000000000000000000000000000000029020c00000000000000000000000000000000000000000000000000000000069af26c0",
        "nonce": "0xb",
        "chainId": "0x14a34"
      },
      "additionalContracts": [],
      "isFixedGasLimit": false
    },
    {
      "hash": "0x73dd0f9cb2023d8d0baf77c4dae2bc72d53072832c2184e18f51cbd1ecba53a3",
      "transactionType": "CALL",
      "contractName": null,
      "contractAddress": "0x0793531b3cce2b833298cfecaec63ad5c327302d",
      "function": "createStrikeMarket(bytes32,int64,uint64)",
      "arguments": [
        "0x4d53465400000000000000000000000000000000000000000000000000000000",
        "45000000",
        "1773086400"
      ],
      "transaction": {
        "from": "0xa695bcdd880e8108ef177f4a151cfcd3eae3b6d4",
        "to": "0x0793531b3cce2b833298cfecaec63ad5c327302d",
        "gas": "0x52caf",
        "value": "0x0",
        "input": "0xe73d073a4d534654000000000000000000000000000000000000000000000000000000000000000000000000000000000000000000000000000000000000000002aea5400000000000000000000000000000000000000000000000000000000069af26c0",
        "nonce": "0xc",
        "chainId": "0x14a34"
      },
      "additionalContracts": [],
      "isFixedGasLimit": false
    },
    {
      "hash": "0x12bc56e9d9090823aecec759c53309519b2360248324c7f3912c7cd7df918d04",
      "transactionType": "CALL",
      "contractName": null,
      "contractAddress": "0x0793531b3cce2b833298cfecaec63ad5c327302d",
      "function": "createStrikeMarket(bytes32,int64,uint64)",
      "arguments": [
        "0x4e56444100000000000000000000000000000000000000000000000000000000",
        "16000000",
        "1773086400"
      ],
      "transaction": {
        "from": "0xa695bcdd880e8108ef177f4a151cfcd3eae3b6d4",
        "to": "0x0793531b3cce2b833298cfecaec63ad5c327302d",
        "gas": "0x52c8e",
        "value": "0x0",
        "input": "0xe73d073a4e564441000000000000000000000000000000000000000000000000000000000000000000000000000000000000000000000000000000000000000000f424000000000000000000000000000000000000000000000000000000000069af26c0",
        "nonce": "0xd",
        "chainId": "0x14a34"
      },
      "additionalContracts": [],
      "isFixedGasLimit": false
    },
    {
      "hash": "0xfb32f486b6c883151f435ebddf10b0b8169c19dd2f6ada442537ea78c9388e32",
      "transactionType": "CALL",
      "contractName": null,
      "contractAddress": "0x0793531b3cce2b833298cfecaec63ad5c327302d",
      "function": "createStrikeMarket(bytes32,int64,uint64)",
      "arguments": [
        "0x4e56444100000000000000000000000000000000000000000000000000000000",
        "17000000",
        "1773086400"
      ],
      "transaction": {
        "from": "0xa695bcdd880e8108ef177f4a151cfcd3eae3b6d4",
        "to": "0x0793531b3cce2b833298cfecaec63ad5c327302d",
        "gas": "0x52caf",
        "value": "0x0",
        "input": "0xe73d073a4e5644410000000000000000000000000000000000000000000000000000000000000000000000000000000000000000000000000000000000000000010366400000000000000000000000000000000000000000000000000000000069af26c0",
        "nonce": "0xe",
        "chainId": "0x14a34"
      },
      "additionalContracts": [],
      "isFixedGasLimit": false
    },
    {
      "hash": "0x3f5a578386fb8bfcf439586c3b1b05705d29fb01cad29c3371a1af2d0059029d",
      "transactionType": "CALL",
      "contractName": null,
      "contractAddress": "0x0793531b3cce2b833298cfecaec63ad5c327302d",
      "function": "createStrikeMarket(bytes32,int64,uint64)",
      "arguments": [
        "0x4e56444100000000000000000000000000000000000000000000000000000000",
        "18000000",
        "1773086400"
      ],
      "transaction": {
        "from": "0xa695bcdd880e8108ef177f4a151cfcd3eae3b6d4",
        "to": "0x0793531b3cce2b833298cfecaec63ad5c327302d",
        "gas": "0x52caf",
        "value": "0x0",
        "input": "0xe73d073a4e56444100000000000000000000000000000000000000000000000000000000000000000000000000000000000000000000000000000000000000000112a8800000000000000000000000000000000000000000000000000000000069af26c0",
        "nonce": "0xf",
        "chainId": "0x14a34"
      },
      "additionalContracts": [],
      "isFixedGasLimit": false
    },
    {
      "hash": "0x7f9cc57f41ce13293d936897b821534781fa852a67c4d5ce41d24a7144252c18",
      "transactionType": "CALL",
      "contractName": null,
      "contractAddress": "0x0793531b3cce2b833298cfecaec63ad5c327302d",
      "function": "createStrikeMarket(bytes32,int64,uint64)",
      "arguments": [
        "0x4e56444100000000000000000000000000000000000000000000000000000000",
        "19000000",
        "1773086400"
      ],
      "transaction": {
        "from": "0xa695bcdd880e8108ef177f4a151cfcd3eae3b6d4",
        "to": "0x0793531b3cce2b833298cfecaec63ad5c327302d",
        "gas": "0x52caf",
        "value": "0x0",
        "input": "0xe73d073a4e56444100000000000000000000000000000000000000000000000000000000000000000000000000000000000000000000000000000000000000000121eac00000000000000000000000000000000000000000000000000000000069af26c0",
        "nonce": "0x10",
        "chainId": "0x14a34"
      },
      "additionalContracts": [],
      "isFixedGasLimit": false
    },
    {
      "hash": "0x5a78a7d401aef32f9b06fbd0145e612584d3907d471bf63f7d83cab1c94af1bb",
      "transactionType": "CALL",
      "contractName": null,
      "contractAddress": "0x0793531b3cce2b833298cfecaec63ad5c327302d",
      "function": "createStrikeMarket(bytes32,int64,uint64)",
      "arguments": [
        "0x4e56444100000000000000000000000000000000000000000000000000000000",
        "20000000",
        "1773086400"
      ],
      "transaction": {
        "from": "0xa695bcdd880e8108ef177f4a151cfcd3eae3b6d4",
        "to": "0x0793531b3cce2b833298cfecaec63ad5c327302d",
        "gas": "0x57a8a",
        "value": "0x0",
        "input": "0xe73d073a4e564441000000000000000000000000000000000000000000000000000000000000000000000000000000000000000000000000000000000000000001312d000000000000000000000000000000000000000000000000000000000069af26c0",
        "nonce": "0x11",
        "chainId": "0x14a34"
      },
      "additionalContracts": [],
      "isFixedGasLimit": false
    },
    {
      "hash": "0xcc6378e23fb27595c86f55aab336a377186a6afbef353a8930a34072804ea50d",
      "transactionType": "CALL",
      "contractName": null,
      "contractAddress": "0x0793531b3cce2b833298cfecaec63ad5c327302d",
      "function": "createStrikeMarket(bytes32,int64,uint64)",
      "arguments": [
        "0x474f4f474c000000000000000000000000000000000000000000000000000000",
        "27000000",
        "1773086400"
      ],
      "transaction": {
        "from": "0xa695bcdd880e8108ef177f4a151cfcd3eae3b6d4",
        "to": "0x0793531b3cce2b833298cfecaec63ad5c327302d",
        "gas": "0x57aae",
        "value": "0x0",
        "input": "0xe73d073a474f4f474c00000000000000000000000000000000000000000000000000000000000000000000000000000000000000000000000000000000000000019bfcc00000000000000000000000000000000000000000000000000000000069af26c0",
        "nonce": "0x12",
        "chainId": "0x14a34"
      },
      "additionalContracts": [],
      "isFixedGasLimit": false
    },
    {
      "hash": "0xd989236c482ea30ca070b59746994999d7210ee49857be0fcc8dfeaba01f13fa",
      "transactionType": "CALL",
      "contractName": null,
      "contractAddress": "0x0793531b3cce2b833298cfecaec63ad5c327302d",
      "function": "createStrikeMarket(bytes32,int64,uint64)",
      "arguments": [
        "0x474f4f474c000000000000000000000000000000000000000000000000000000",
        "28000000",
        "1773086400"
      ],
      "transaction": {
        "from": "0xa695bcdd880e8108ef177f4a151cfcd3eae3b6d4",
        "to": "0x0793531b3cce2b833298cfecaec63ad5c327302d",
        "gas": "0x52caf",
        "value": "0x0",
        "input": "0xe73d073a474f4f474c0000000000000000000000000000000000000000000000000000000000000000000000000000000000000000000000000000000000000001ab3f000000000000000000000000000000000000000000000000000000000069af26c0",
        "nonce": "0x13",
        "chainId": "0x14a34"
      },
      "additionalContracts": [],
      "isFixedGasLimit": false
    },
    {
      "hash": "0x1a6b71875df49b5c6b94c2507af23c6a6e37dcf688b5738e5b3ac634bcb2328c",
      "transactionType": "CALL",
      "contractName": null,
      "contractAddress": "0x0793531b3cce2b833298cfecaec63ad5c327302d",
      "function": "createStrikeMarket(bytes32,int64,uint64)",
      "arguments": [
        "0x474f4f474c000000000000000000000000000000000000000000000000000000",
        "29000000",
        "1773086400"
      ],
      "transaction": {
        "from": "0xa695bcdd880e8108ef177f4a151cfcd3eae3b6d4",
        "to": "0x0793531b3cce2b833298cfecaec63ad5c327302d",
        "gas": "0x57aae",
        "value": "0x0",
        "input": "0xe73d073a474f4f474c0000000000000000000000000000000000000000000000000000000000000000000000000000000000000000000000000000000000000001ba81400000000000000000000000000000000000000000000000000000000069af26c0",
        "nonce": "0x14",
        "chainId": "0x14a34"
      },
      "additionalContracts": [],
      "isFixedGasLimit": false
    },
    {
      "hash": "0x80abbc656cf749b57eacf9a330b0a7e1bef1891a41a7ac71fc98cc3116d5c204",
      "transactionType": "CALL",
      "contractName": null,
      "contractAddress": "0x0793531b3cce2b833298cfecaec63ad5c327302d",
      "function": "createStrikeMarket(bytes32,int64,uint64)",
      "arguments": [
        "0x474f4f474c000000000000000000000000000000000000000000000000000000",
        "30000000",
        "1773086400"
      ],
      "transaction": {
        "from": "0xa695bcdd880e8108ef177f4a151cfcd3eae3b6d4",
        "to": "0x0793531b3cce2b833298cfecaec63ad5c327302d",
        "gas": "0x57aae",
        "value": "0x0",
        "input": "0xe73d073a474f4f474c0000000000000000000000000000000000000000000000000000000000000000000000000000000000000000000000000000000000000001c9c3800000000000000000000000000000000000000000000000000000000069af26c0",
        "nonce": "0x15",
        "chainId": "0x14a34"
      },
      "additionalContracts": [],
      "isFixedGasLimit": false
    },
    {
      "hash": "0x334ac6ea871bbd82fd6ba10398e5bdb8cfc6e591e90a63a756b56897391effbd",
      "transactionType": "CALL",
      "contractName": null,
      "contractAddress": "0x0793531b3cce2b833298cfecaec63ad5c327302d",
      "function": "createStrikeMarket(bytes32,int64,uint64)",
      "arguments": [
        "0x474f4f474c000000000000000000000000000000000000000000000000000000",
        "31000000",
        "1773086400"
      ],
      "transaction": {
        "from": "0xa695bcdd880e8108ef177f4a151cfcd3eae3b6d4",
        "to": "0x0793531b3cce2b833298cfecaec63ad5c327302d",
        "gas": "0x57aae",
        "value": "0x0",
        "input": "0xe73d073a474f4f474c0000000000000000000000000000000000000000000000000000000000000000000000000000000000000000000000000000000000000001d905c00000000000000000000000000000000000000000000000000000000069af26c0",
        "nonce": "0x16",
        "chainId": "0x14a34"
      },
      "additionalContracts": [],
      "isFixedGasLimit": false
    },
    {
      "hash": "0xa91cd8a94075e1e50c15c156e932cec1ccb84922cdc6b53e1f4b77d5c2e7b0bc",
      "transactionType": "CALL",
      "contractName": null,
      "contractAddress": "0x0793531b3cce2b833298cfecaec63ad5c327302d",
      "function": "createStrikeMarket(bytes32,int64,uint64)",
      "arguments": [
        "0x474f4f474c000000000000000000000000000000000000000000000000000000",
        "32000000",
        "1773086400"
      ],
      "transaction": {
        "from": "0xa695bcdd880e8108ef177f4a151cfcd3eae3b6d4",
        "to": "0x0793531b3cce2b833298cfecaec63ad5c327302d",
        "gas": "0x52caf",
        "value": "0x0",
        "input": "0xe73d073a474f4f474c0000000000000000000000000000000000000000000000000000000000000000000000000000000000000000000000000000000000000001e848000000000000000000000000000000000000000000000000000000000069af26c0",
        "nonce": "0x17",
        "chainId": "0x14a34"
      },
      "additionalContracts": [],
      "isFixedGasLimit": false
    },
    {
      "hash": "0xb40c5cc41bd9094d68b3a4a62fd4e340e7da07fa11390489e684716f3c52ff3d",
      "transactionType": "CALL",
      "contractName": null,
      "contractAddress": "0x0793531b3cce2b833298cfecaec63ad5c327302d",
      "function": "createStrikeMarket(bytes32,int64,uint64)",
      "arguments": [
        "0x414d5a4e00000000000000000000000000000000000000000000000000000000",
        "20000000",
        "1773086400"
      ],
      "transaction": {
        "from": "0xa695bcdd880e8108ef177f4a151cfcd3eae3b6d4",
        "to": "0x0793531b3cce2b833298cfecaec63ad5c327302d",
        "gas": "0x57a8a",
        "value": "0x0",
        "input": "0xe73d073a414d5a4e000000000000000000000000000000000000000000000000000000000000000000000000000000000000000000000000000000000000000001312d000000000000000000000000000000000000000000000000000000000069af26c0",
        "nonce": "0x18",
        "chainId": "0x14a34"
      },
      "additionalContracts": [],
      "isFixedGasLimit": false
    },
    {
      "hash": "0x580552187664de8bfbca4e95b511a8534b89452b4dcd1cce7f04f27803510db1",
      "transactionType": "CALL",
      "contractName": null,
      "contractAddress": "0x0793531b3cce2b833298cfecaec63ad5c327302d",
      "function": "createStrikeMarket(bytes32,int64,uint64)",
      "arguments": [
        "0x414d5a4e00000000000000000000000000000000000000000000000000000000",
        "21000000",
        "1773086400"
      ],
      "transaction": {
        "from": "0xa695bcdd880e8108ef177f4a151cfcd3eae3b6d4",
        "to": "0x0793531b3cce2b833298cfecaec63ad5c327302d",
        "gas": "0x52caf",
        "value": "0x0",
        "input": "0xe73d073a414d5a4e000000000000000000000000000000000000000000000000000000000000000000000000000000000000000000000000000000000000000001406f400000000000000000000000000000000000000000000000000000000069af26c0",
        "nonce": "0x19",
        "chainId": "0x14a34"
      },
      "additionalContracts": [],
      "isFixedGasLimit": false
    },
    {
      "hash": "0x875a59d199bdaa3251609e6b7704acffce17a4fe07cde3cb52c9f7aa4d312d62",
      "transactionType": "CALL",
      "contractName": null,
      "contractAddress": "0x0793531b3cce2b833298cfecaec63ad5c327302d",
      "function": "createStrikeMarket(bytes32,int64,uint64)",
      "arguments": [
        "0x414d5a4e00000000000000000000000000000000000000000000000000000000",
        "22000000",
        "1773086400"
      ],
      "transaction": {
        "from": "0xa695bcdd880e8108ef177f4a151cfcd3eae3b6d4",
        "to": "0x0793531b3cce2b833298cfecaec63ad5c327302d",
        "gas": "0x52caf",
        "value": "0x0",
        "input": "0xe73d073a414d5a4e0000000000000000000000000000000000000000000000000000000000000000000000000000000000000000000000000000000000000000014fb1800000000000000000000000000000000000000000000000000000000069af26c0",
        "nonce": "0x1a",
        "chainId": "0x14a34"
      },
      "additionalContracts": [],
      "isFixedGasLimit": false
    },
    {
      "hash": "0x132b92ed4d8229c6533d126be3e472ddf72ae1582c4572181ae26c25cc35dce0",
      "transactionType": "CALL",
      "contractName": null,
      "contractAddress": "0x0793531b3cce2b833298cfecaec63ad5c327302d",
      "function": "createStrikeMarket(bytes32,int64,uint64)",
      "arguments": [
        "0x414d5a4e00000000000000000000000000000000000000000000000000000000",
        "23000000",
        "1773086400"
      ],
      "transaction": {
        "from": "0xa695bcdd880e8108ef177f4a151cfcd3eae3b6d4",
        "to": "0x0793531b3cce2b833298cfecaec63ad5c327302d",
        "gas": "0x52caf",
        "value": "0x0",
        "input": "0xe73d073a414d5a4e0000000000000000000000000000000000000000000000000000000000000000000000000000000000000000000000000000000000000000015ef3c00000000000000000000000000000000000000000000000000000000069af26c0",
        "nonce": "0x1b",
        "chainId": "0x14a34"
      },
      "additionalContracts": [],
      "isFixedGasLimit": false
    },
    {
      "hash": "0x12b10b40784f51de807237ffa10374de005d22b70eb6204c807a9bf5770ba1a2",
      "transactionType": "CALL",
      "contractName": null,
      "contractAddress": "0x0793531b3cce2b833298cfecaec63ad5c327302d",
      "function": "createStrikeMarket(bytes32,int64,uint64)",
      "arguments": [
        "0x4d45544100000000000000000000000000000000000000000000000000000000",
        "59000000",
        "1773086400"
      ],
      "transaction": {
        "from": "0xa695bcdd880e8108ef177f4a151cfcd3eae3b6d4",
        "to": "0x0793531b3cce2b833298cfecaec63ad5c327302d",
        "gas": "0x52caf",
        "value": "0x0",
        "input": "0xe73d073a4d4554410000000000000000000000000000000000000000000000000000000000000000000000000000000000000000000000000000000000000000038444c00000000000000000000000000000000000000000000000000000000069af26c0",
        "nonce": "0x1c",
        "chainId": "0x14a34"
      },
      "additionalContracts": [],
      "isFixedGasLimit": false
    },
    {
      "hash": "0x8b3d78237b0ffa87e043c6144af69b1a66f1675fc7106aaa167f6f4e321668de",
      "transactionType": "CALL",
      "contractName": null,
      "contractAddress": "0x0793531b3cce2b833298cfecaec63ad5c327302d",
      "function": "createStrikeMarket(bytes32,int64,uint64)",
      "arguments": [
        "0x4d45544100000000000000000000000000000000000000000000000000000000",
        "61000000",
        "1773086400"
      ],
      "transaction": {
        "from": "0xa695bcdd880e8108ef177f4a151cfcd3eae3b6d4",
        "to": "0x0793531b3cce2b833298cfecaec63ad5c327302d",
        "gas": "0x52caf",
        "value": "0x0",
        "input": "0xe73d073a4d455441000000000000000000000000000000000000000000000000000000000000000000000000000000000000000000000000000000000000000003a2c9400000000000000000000000000000000000000000000000000000000069af26c0",
        "nonce": "0x1d",
        "chainId": "0x14a34"
      },
      "additionalContracts": [],
      "isFixedGasLimit": false
    },
    {
      "hash": "0xd70d4c32a16e16c000436050439218988daa09a7a38557a718f578a6442ecc53",
      "transactionType": "CALL",
      "contractName": null,
      "contractAddress": "0x0793531b3cce2b833298cfecaec63ad5c327302d",
      "function": "createStrikeMarket(bytes32,int64,uint64)",
      "arguments": [
        "0x4d45544100000000000000000000000000000000000000000000000000000000",
        "63000000",
        "1773086400"
      ],
      "transaction": {
        "from": "0xa695bcdd880e8108ef177f4a151cfcd3eae3b6d4",
        "to": "0x0793531b3cce2b833298cfecaec63ad5c327302d",
        "gas": "0x52caf",
        "value": "0x0",
        "input": "0xe73d073a4d455441000000000000000000000000000000000000000000000000000000000000000000000000000000000000000000000000000000000000000003c14dc00000000000000000000000000000000000000000000000000000000069af26c0",
        "nonce": "0x1e",
        "chainId": "0x14a34"
      },
      "additionalContracts": [],
      "isFixedGasLimit": false
    },
    {
      "hash": "0x4c31bf60c2af13220d9124ae810df6c2ed6f8ec657b44308413d3be49b2295e8",
      "transactionType": "CALL",
      "contractName": null,
      "contractAddress": "0x0793531b3cce2b833298cfecaec63ad5c327302d",
      "function": "createStrikeMarket(bytes32,int64,uint64)",
      "arguments": [
        "0x4d45544100000000000000000000000000000000000000000000000000000000",
        "65000000",
        "1773086400"
      ],
      "transaction": {
        "from": "0xa695bcdd880e8108ef177f4a151cfcd3eae3b6d4",
        "to": "0x0793531b3cce2b833298cfecaec63ad5c327302d",
        "gas": "0x52caf",
        "value": "0x0",
        "input": "0xe73d073a4d455441000000000000000000000000000000000000000000000000000000000000000000000000000000000000000000000000000000000000000003dfd2400000000000000000000000000000000000000000000000000000000069af26c0",
        "nonce": "0x1f",
        "chainId": "0x14a34"
      },
      "additionalContracts": [],
      "isFixedGasLimit": false
    },
    {
      "hash": "0x8d919d1515fe47c3ec9523fdb692ed596713523b4ec2db484958f8022109aa86",
      "transactionType": "CALL",
      "contractName": null,
      "contractAddress": "0x0793531b3cce2b833298cfecaec63ad5c327302d",
      "function": "createStrikeMarket(bytes32,int64,uint64)",
      "arguments": [
        "0x4d45544100000000000000000000000000000000000000000000000000000000",
        "66000000",
        "1773086400"
      ],
      "transaction": {
        "from": "0xa695bcdd880e8108ef177f4a151cfcd3eae3b6d4",
        "to": "0x0793531b3cce2b833298cfecaec63ad5c327302d",
        "gas": "0x52caf",
        "value": "0x0",
        "input": "0xe73d073a4d455441000000000000000000000000000000000000000000000000000000000000000000000000000000000000000000000000000000000000000003ef14800000000000000000000000000000000000000000000000000000000069af26c0",
        "nonce": "0x20",
        "chainId": "0x14a34"
      },
      "additionalContracts": [],
      "isFixedGasLimit": false
    },
    {
      "hash": "0x5eaedb7502e659b193b1e7f26b05e5a4693cb25ee8bf94770ddc86f4d432e0df",
      "transactionType": "CALL",
      "contractName": null,
      "contractAddress": "0x0793531b3cce2b833298cfecaec63ad5c327302d",
      "function": "createStrikeMarket(bytes32,int64,uint64)",
      "arguments": [
        "0x4d45544100000000000000000000000000000000000000000000000000000000",
        "68000000",
        "1773086400"
      ],
      "transaction": {
        "from": "0xa695bcdd880e8108ef177f4a151cfcd3eae3b6d4",
        "to": "0x0793531b3cce2b833298cfecaec63ad5c327302d",
        "gas": "0x57a8a",
        "value": "0x0",
        "input": "0xe73d073a4d4554410000000000000000000000000000000000000000000000000000000000000000000000000000000000000000000000000000000000000000040d99000000000000000000000000000000000000000000000000000000000069af26c0",
        "nonce": "0x21",
        "chainId": "0x14a34"
      },
      "additionalContracts": [],
      "isFixedGasLimit": false
    },
    {
      "hash": "0x2d38e2ebf851b06e0427cb6cdf35e6ad422e6dcf72538830a56acc019736e60e",
      "transactionType": "CALL",
      "contractName": null,
      "contractAddress": "0x0793531b3cce2b833298cfecaec63ad5c327302d",
      "function": "createStrikeMarket(bytes32,int64,uint64)",
      "arguments": [
        "0x4d45544100000000000000000000000000000000000000000000000000000000",
        "70000000",
        "1773086400"
      ],
      "transaction": {
        "from": "0xa695bcdd880e8108ef177f4a151cfcd3eae3b6d4",
        "to": "0x0793531b3cce2b833298cfecaec63ad5c327302d",
        "gas": "0x52caf",
        "value": "0x0",
        "input": "0xe73d073a4d4554410000000000000000000000000000000000000000000000000000000000000000000000000000000000000000000000000000000000000000042c1d800000000000000000000000000000000000000000000000000000000069af26c0",
        "nonce": "0x22",
        "chainId": "0x14a34"
      },
      "additionalContracts": [],
      "isFixedGasLimit": false
    },
    {
      "hash": "0x1d14edb3dbdf6ebff49426e4f6e6bf67f538c95dec97751b16ebacfd9ea948e0",
      "transactionType": "CALL",
      "contractName": null,
      "contractAddress": "0x0793531b3cce2b833298cfecaec63ad5c327302d",
      "function": "createStrikeMarket(bytes32,int64,uint64)",
      "arguments": [
        "0x54534c4100000000000000000000000000000000000000000000000000000000",
        "36000000",
        "1773086400"
      ],
      "transaction": {
        "from": "0xa695bcdd880e8108ef177f4a151cfcd3eae3b6d4",
        "to": "0x0793531b3cce2b833298cfecaec63ad5c327302d",
        "gas": "0x57a8a",
        "value": "0x0",
        "input": "0xe73d073a54534c410000000000000000000000000000000000000000000000000000000000000000000000000000000000000000000000000000000000000000022551000000000000000000000000000000000000000000000000000000000069af26c0",
        "nonce": "0x23",
        "chainId": "0x14a34"
      },
      "additionalContracts": [],
      "isFixedGasLimit": false
    },
    {
      "hash": "0x31bff4bd2984dac9da72d11577dd7332a4bdfbbc9bd96d9f7f5a6b43ee5b9a62",
      "transactionType": "CALL",
      "contractName": null,
      "contractAddress": "0x0793531b3cce2b833298cfecaec63ad5c327302d",
      "function": "createStrikeMarket(bytes32,int64,uint64)",
      "arguments": [
        "0x54534c4100000000000000000000000000000000000000000000000000000000",
        "37000000",
        "1773086400"
      ],
      "transaction": {
        "from": "0xa695bcdd880e8108ef177f4a151cfcd3eae3b6d4",
        "to": "0x0793531b3cce2b833298cfecaec63ad5c327302d",
        "gas": "0x52caf",
        "value": "0x0",
        "input": "0xe73d073a54534c410000000000000000000000000000000000000000000000000000000000000000000000000000000000000000000000000000000000000000023493400000000000000000000000000000000000000000000000000000000069af26c0",
        "nonce": "0x24",
        "chainId": "0x14a34"
      },
      "additionalContracts": [],
      "isFixedGasLimit": false
    },
    {
      "hash": "0x6f0f4d119b92a53a55987d0787391d9cfd34d036dfc364f212a796c31cf19ded",
      "transactionType": "CALL",
      "contractName": null,
      "contractAddress": "0x0793531b3cce2b833298cfecaec63ad5c327302d",
      "function": "createStrikeMarket(bytes32,int64,uint64)",
      "arguments": [
        "0x54534c4100000000000000000000000000000000000000000000000000000000",
        "39000000",
        "1773086400"
      ],
      "transaction": {
        "from": "0xa695bcdd880e8108ef177f4a151cfcd3eae3b6d4",
        "to": "0x0793531b3cce2b833298cfecaec63ad5c327302d",
        "gas": "0x52caf",
        "value": "0x0",
        "input": "0xe73d073a54534c410000000000000000000000000000000000000000000000000000000000000000000000000000000000000000000000000000000000000000025317c00000000000000000000000000000000000000000000000000000000069af26c0",
        "nonce": "0x25",
        "chainId": "0x14a34"
      },
      "additionalContracts": [],
      "isFixedGasLimit": false
    },
    {
      "hash": "0x04adcdfe9524b65567a242c1000a1094a7fc8fd9feabe486fafa4dde10e98bd7",
      "transactionType": "CALL",
      "contractName": null,
      "contractAddress": "0x0793531b3cce2b833298cfecaec63ad5c327302d",
      "function": "createStrikeMarket(bytes32,int64,uint64)",
      "arguments": [
        "0x54534c4100000000000000000000000000000000000000000000000000000000",
        "40000000",
        "1773086400"
      ],
      "transaction": {
        "from": "0xa695bcdd880e8108ef177f4a151cfcd3eae3b6d4",
        "to": "0x0793531b3cce2b833298cfecaec63ad5c327302d",
        "gas": "0x57a8a",
        "value": "0x0",
        "input": "0xe73d073a54534c41000000000000000000000000000000000000000000000000000000000000000000000000000000000000000000000000000000000000000002625a000000000000000000000000000000000000000000000000000000000069af26c0",
        "nonce": "0x26",
        "chainId": "0x14a34"
      },
      "additionalContracts": [],
      "isFixedGasLimit": false
    },
    {
      "hash": "0x6604994aa5b56a441c30eeaa229780cfd15446481b76b01b8903d8b8d837d60f",
      "transactionType": "CALL",
      "contractName": null,
      "contractAddress": "0x0793531b3cce2b833298cfecaec63ad5c327302d",
      "function": "createStrikeMarket(bytes32,int64,uint64)",
      "arguments": [
        "0x54534c4100000000000000000000000000000000000000000000000000000000",
        "41000000",
        "1773086400"
      ],
      "transaction": {
        "from": "0xa695bcdd880e8108ef177f4a151cfcd3eae3b6d4",
        "to": "0x0793531b3cce2b833298cfecaec63ad5c327302d",
        "gas": "0x52caf",
        "value": "0x0",
        "input": "0xe73d073a54534c41000000000000000000000000000000000000000000000000000000000000000000000000000000000000000000000000000000000000000002719c400000000000000000000000000000000000000000000000000000000069af26c0",
        "nonce": "0x27",
        "chainId": "0x14a34"
      },
      "additionalContracts": [],
      "isFixedGasLimit": false
    },
    {
      "hash": "0x1c0b89503e55b360ac6b0e2bce2b3b85503f82b015790adaf8aa95a38dc00a08",
      "transactionType": "CALL",
      "contractName": null,
      "contractAddress": "0x0793531b3cce2b833298cfecaec63ad5c327302d",
      "function": "createStrikeMarket(bytes32,int64,uint64)",
      "arguments": [
        "0x54534c4100000000000000000000000000000000000000000000000000000000",
        "42000000",
        "1773086400"
      ],
      "transaction": {
        "from": "0xa695bcdd880e8108ef177f4a151cfcd3eae3b6d4",
        "to": "0x0793531b3cce2b833298cfecaec63ad5c327302d",
        "gas": "0x52caf",
        "value": "0x0",
        "input": "0xe73d073a54534c4100000000000000000000000000000000000000000000000000000000000000000000000000000000000000000000000000000000000000000280de800000000000000000000000000000000000000000000000000000000069af26c0",
        "nonce": "0x28",
        "chainId": "0x14a34"
      },
      "additionalContracts": [],
      "isFixedGasLimit": false
    },
    {
      "hash": "0x8aada6b247fff19ea2c65ecfbcb4ad65a145916f790db46fa750cb5dc1804ced",
      "transactionType": "CALL",
      "contractName": null,
      "contractAddress": "0x0793531b3cce2b833298cfecaec63ad5c327302d",
      "function": "createStrikeMarket(bytes32,int64,uint64)",
      "arguments": [
        "0x54534c4100000000000000000000000000000000000000000000000000000000",
        "43000000",
        "1773086400"
      ],
      "transaction": {
        "from": "0xa695bcdd880e8108ef177f4a151cfcd3eae3b6d4",
        "to": "0x0793531b3cce2b833298cfecaec63ad5c327302d",
        "gas": "0x52caf",
        "value": "0x0",
        "input": "0xe73d073a54534c410000000000000000000000000000000000000000000000000000000000000000000000000000000000000000000000000000000000000000029020c00000000000000000000000000000000000000000000000000000000069af26c0",
        "nonce": "0x29",
        "chainId": "0x14a34"
      },
      "additionalContracts": [],
      "isFixedGasLimit": false
    }
  ],
  "receipts": [
    {
      "status": "0x1",
      "cumulativeGasUsed": "0x5b0cd",
      "logs": [
        {
          "address": "0x0793531b3cce2b833298cfecaec63ad5c327302d",
          "topics": [
            "0x124a2b0b0384b7455ace5c25664b94d4ad3f77adbe0440be9e42b0a8880e04ca",
            "0x1d256c06c4043631f4972eed6416c1f924ebb4e108a93653021bdbb68f3a6e93",
            "0x4141504c00000000000000000000000000000000000000000000000000000000"
          ],
          "data": "0x00000000000000000000000000000000000000000000000000000000015ef3c00000000000000000000000000000000000000000000000000000000069af26c049f6b65cb1de6b10eaf75e7c03ca029c306d0357e91b5311b175084a5ad55688",
          "blockHash": "0x0000000000000000000000000000000000000000000000000000000000000000",
          "blockNumber": "0x24d4683",
          "blockTimestamp": "0x69adebe6",
          "transactionHash": "0xf0e86aad667da548ba0ca888f0b8914d50cd071abb749cb8888583a6d7f8de20",
          "transactionIndex": "0x3",
          "logIndex": "0x0",
          "removed": false
        }
      ],
      "logsBloom": "0x00000000000000000000000000000000000000000000000000000000000000000000000000000000000008000000000000000000002000000000000000000000000000000000000000000000000000000000000000000000000000000000000000000000000000010000000000000000000000000000000000000000000000000000000000000000000000000000000000000000000000000000000000000000000000000000000201000000000000000000000000000000000000000040000000000000000000000000000000000000000000000000000000000000000000010000000000000030000008008000000000000000000000000000002000000000",
      "type": "0x2",
      "transactionHash": "0xf0e86aad667da548ba0ca888f0b8914d50cd071abb749cb8888583a6d7f8de20",
      "transactionIndex": "0x3",
      "blockHash": "0x0000000000000000000000000000000000000000000000000000000000000000",
      "blockNumber": "0x24d4683",
      "gasUsed": "0x401d9",
      "effectiveGasPrice": "0x5b8d80",
      "blobGasUsed": "0x364c",
      "from": "0xa695bcdd880e8108ef177f4a151cfcd3eae3b6d4",
      "to": "0x0793531b3cce2b833298cfecaec63ad5c327302d",
      "contractAddress": null,
      "daFootprintGasScalar": "0x8b",
      "l1BaseFeeScalar": "0x44d",
      "l1BlobBaseFee": "0x1",
      "l1BlobBaseFeeScalar": "0xa118b",
      "l1Fee": "0x6f",
      "l1GasPrice": "0x1a",
      "l1GasUsed": "0x640"
    },
    {
      "status": "0x1",
      "cumulativeGasUsed": "0x96fce",
      "logs": [
        {
          "address": "0x0793531b3cce2b833298cfecaec63ad5c327302d",
          "topics": [
            "0x124a2b0b0384b7455ace5c25664b94d4ad3f77adbe0440be9e42b0a8880e04ca",
            "0x7b6ed2fc52af9a0e4425c207ce77b0a2e323c869afb06402a11299c4b57983ef",
            "0x4141504c00000000000000000000000000000000000000000000000000000000"
          ],
          "data": "0x00000000000000000000000000000000000000000000000000000000016e36000000000000000000000000000000000000000000000000000000000069af26c049f6b65cb1de6b10eaf75e7c03ca029c306d0357e91b5311b175084a5ad55688",
          "blockHash": "0x0000000000000000000000000000000000000000000000000000000000000000",
          "blockNumber": "0x24d4683",
          "blockTimestamp": "0x69adebe6",
          "transactionHash": "0x73dd0f9cb2023d8d0baf77c4dae2bc72d53072832c2184e18f51cbd1ecba53a3",
          "transactionIndex": "0x4",
          "logIndex": "0x1",
          "removed": false
        }
      ],
      "logsBloom": "0x00000000000000000000000000000000000000000000000000000000000000000000000000000000000000000000000000000000002000000000000000000000000000000000000000000000000000000000000000000000000000000000000000000000000000010000000000400200000000000000000000000000000000000000000000000000000000000000000000000000000000000000000000000000000000000000000001000000000000000000000000000000000000000040000000000000000000000000000020000000000000000000000000000000000000010000000000000010000008008000000000000000000000000000002000000000",
      "type": "0x2",
      "transactionHash": "0x73dd0f9cb2023d8d0baf77c4dae2bc72d53072832c2184e18f51cbd1ecba53a3",
      "transactionIndex": "0x4",
      "blockHash": "0x0000000000000000000000000000000000000000000000000000000000000000",
      "blockNumber": "0x24d4683",
      "gasUsed": "0x3bf01",
      "effectiveGasPrice": "0x5b8d80",
      "blobGasUsed": "0x364c",
      "from": "0xa695bcdd880e8108ef177f4a151cfcd3eae3b6d4",
      "to": "0x0793531b3cce2b833298cfecaec63ad5c327302d",
      "contractAddress": null,
      "daFootprintGasScalar": "0x8b",
      "l1BaseFeeScalar": "0x44d",
      "l1BlobBaseFee": "0x1",
      "l1BlobBaseFeeScalar": "0xa118b",
      "l1Fee": "0x6f",
      "l1GasPrice": "0x1a",
      "l1GasUsed": "0x640"
    },
    {
      "status": "0x1",
      "cumulativeGasUsed": "0xd2edb",
      "logs": [
        {
          "address": "0x0793531b3cce2b833298cfecaec63ad5c327302d",
          "topics": [
            "0x124a2b0b0384b7455ace5c25664b94d4ad3f77adbe0440be9e42b0a8880e04ca",
            "0x43c7a8096d94e8357d8a3f6c92e93deba77c4b9649b6c5d335d8bb37058c5e62",
            "0x4141504c00000000000000000000000000000000000000000000000000000000"
          ],
          "data": "0x00000000000000000000000000000000000000000000000000000000017d78400000000000000000000000000000000000000000000000000000000069af26c049f6b65cb1de6b10eaf75e7c03ca029c306d0357e91b5311b175084a5ad55688",
          "blockHash": "0x0000000000000000000000000000000000000000000000000000000000000000",
          "blockNumber": "0x24d4683",
          "blockTimestamp": "0x69adebe6",
          "transactionHash": "0x12b10b40784f51de807237ffa10374de005d22b70eb6204c807a9bf5770ba1a2",
          "transactionIndex": "0x5",
          "logIndex": "0x2",
          "removed": false
        }
      ],
      "logsBloom": "0x00000000000100000000000000000000000000000000000000000000000000400000000000000000000000000000000000000000002000000000000000000000000000000000000000000000000000040000000000000000000000000000000000000000000000010000000000000000000000000000000000000000000000000000000000000000000000000000000000000000000000000000000000000000000000000000000001000000000000000000000000000000000000000040000000000000000000000000000000000000000000000000000000000000000000010000000000000010000008008000000000000000000000000000002000000000",
      "type": "0x2",
      "transactionHash": "0x12b10b40784f51de807237ffa10374de005d22b70eb6204c807a9bf5770ba1a2",
      "transactionIndex": "0x5",
      "blockHash": "0x0000000000000000000000000000000000000000000000000000000000000000",
      "blockNumber": "0x24d4683",
      "gasUsed": "0x3bf0d",
      "effectiveGasPrice": "0x5b8d80",
      "blobGasUsed": "0x364c",
      "from": "0xa695bcdd880e8108ef177f4a151cfcd3eae3b6d4",
      "to": "0x0793531b3cce2b833298cfecaec63ad5c327302d",
      "contractAddress": null,
      "daFootprintGasScalar": "0x8b",
      "l1BaseFeeScalar": "0x44d",
      "l1BlobBaseFee": "0x1",
      "l1BlobBaseFeeScalar": "0xa118b",
      "l1Fee": "0x6f",
      "l1GasPrice": "0x1a",
      "l1GasUsed": "0x640"
    },
    {
      "status": "0x1",
      "cumulativeGasUsed": "0x10ede8",
      "logs": [
        {
          "address": "0x0793531b3cce2b833298cfecaec63ad5c327302d",
          "topics": [
            "0x124a2b0b0384b7455ace5c25664b94d4ad3f77adbe0440be9e42b0a8880e04ca",
            "0xa3bae56c0f75ff26e35f5dd7f1b1cf6351873f6e8d4976f06dca6f24493ab75c",
            "0x4141504c00000000000000000000000000000000000000000000000000000000"
          ],
          "data": "0x00000000000000000000000000000000000000000000000000000000018cba800000000000000000000000000000000000000000000000000000000069af26c049f6b65cb1de6b10eaf75e7c03ca029c306d0357e91b5311b175084a5ad55688",
          "blockHash": "0x0000000000000000000000000000000000000000000000000000000000000000",
          "blockNumber": "0x24d4683",
          "blockTimestamp": "0x69adebe6",
          "transactionHash": "0x8b3d78237b0ffa87e043c6144af69b1a66f1675fc7106aaa167f6f4e321668de",
          "transactionIndex": "0x6",
          "logIndex": "0x3",
          "removed": false
        }
      ],
      "logsBloom": "0x00000000000000000000000040000000200000000000000000000000000000000000000000000000000000000000000000000000002000000000000000000000000000000000000000000000000000000000000000000000000000000000000000000000000000010000000000000000000000000000000000000000000000000000000000000000000000000000000000000000000000000000000000000000000000000000000001000000000000000000000000000000000000000040000000000000000000000000000000000000000000000000000000000000000000010000000000000010000008008000000000000000000000000010002000000000",
      "type": "0x2",
      "transactionHash": "0x8b3d78237b0ffa87e043c6144af69b1a66f1675fc7106aaa167f6f4e321668de",
      "transactionIndex": "0x6",
      "blockHash": "0x0000000000000000000000000000000000000000000000000000000000000000",
      "blockNumber": "0x24d4683",
      "gasUsed": "0x3bf0d",
      "effectiveGasPrice": "0x5b8d80",
      "blobGasUsed": "0x364c",
      "from": "0xa695bcdd880e8108ef177f4a151cfcd3eae3b6d4",
      "to": "0x0793531b3cce2b833298cfecaec63ad5c327302d",
      "contractAddress": null,
      "daFootprintGasScalar": "0x8b",
      "l1BaseFeeScalar": "0x44d",
      "l1BlobBaseFee": "0x1",
      "l1BlobBaseFeeScalar": "0xa118b",
      "l1Fee": "0x6f",
      "l1GasPrice": "0x1a",
      "l1GasUsed": "0x640"
    },
    {
      "status": "0x1",
      "cumulativeGasUsed": "0x14acf5",
      "logs": [
        {
          "address": "0x0793531b3cce2b833298cfecaec63ad5c327302d",
          "topics": [
            "0x124a2b0b0384b7455ace5c25664b94d4ad3f77adbe0440be9e42b0a8880e04ca",
            "0x7f31dd281dac29af45a9957b840251dc27f1e7424aa533621bd89c535b047c93",
            "0x4141504c00000000000000000000000000000000000000000000000000000000"
          ],
          "data": "0x00000000000000000000000000000000000000000000000000000000019bfcc00000000000000000000000000000000000000000000000000000000069af26c049f6b65cb1de6b10eaf75e7c03ca029c306d0357e91b5311b175084a5ad55688",
          "blockHash": "0x0000000000000000000000000000000000000000000000000000000000000000",
          "blockNumber": "0x24d4683",
          "blockTimestamp": "0x69adebe6",
          "transactionHash": "0xdc237477f49e6c047262215642ef7e1ef308510889633b971e14a61743ef841a",
          "transactionIndex": "0x7",
          "logIndex": "0x4",
          "removed": false
        }
      ],
      "logsBloom": "0x00000000000000000080000000000000000000000000000000000000000000000000000000000000000000000000000000000000002000000000000000000000000000000001000000000000000000000000000000000000000000000000000000000000000000010000000000000000000000000000000000000000000000000000000000000000000000000000000000000000000000000000000000000000000000000000000001000000000000000000000000000000000000000040000000000000000000000000000000000000000000000000080000000000000000010000000000000010000008008000000000000000000000000000002000000000",
      "type": "0x2",
      "transactionHash": "0xdc237477f49e6c047262215642ef7e1ef308510889633b971e14a61743ef841a",
      "transactionIndex": "0x7",
      "blockHash": "0x0000000000000000000000000000000000000000000000000000000000000000",
      "blockNumber": "0x24d4683",
      "gasUsed": "0x3bf0d",
      "effectiveGasPrice": "0x5b8d80",
      "blobGasUsed": "0x364c",
      "from": "0xa695bcdd880e8108ef177f4a151cfcd3eae3b6d4",
      "to": "0x0793531b3cce2b833298cfecaec63ad5c327302d",
      "contractAddress": null,
      "daFootprintGasScalar": "0x8b",
      "l1BaseFeeScalar": "0x44d",
      "l1BlobBaseFee": "0x1",
      "l1BlobBaseFeeScalar": "0xa118b",
      "l1Fee": "0x6f",
      "l1GasPrice": "0x1a",
      "l1GasUsed": "0x640"
    },
    {
      "status": "0x1",
      "cumulativeGasUsed": "0x186bf6",
      "logs": [
        {
          "address": "0x0793531b3cce2b833298cfecaec63ad5c327302d",
          "topics": [
            "0x124a2b0b0384b7455ace5c25664b94d4ad3f77adbe0440be9e42b0a8880e04ca",
            "0x32009c56fa62fdb2d7f9c8280737aeeebc2c1c9a57feb8e39f295029c28db216",
            "0x4141504c00000000000000000000000000000000000000000000000000000000"
          ],
          "data": "0x0000000000000000000000000000000000000000000000000000000001ab3f000000000000000000000000000000000000000000000000000000000069af26c049f6b65cb1de6b10eaf75e7c03ca029c306d0357e91b5311b175084a5ad55688",
          "blockHash": "0x0000000000000000000000000000000000000000000000000000000000000000",
          "blockNumber": "0x24d4683",
          "blockTimestamp": "0x69adebe6",
          "transactionHash": "0x89ce340dd726364af09118e35f6d9321e294e35c413ddf3e292c9f13d1d5cf23",
          "transactionIndex": "0x8",
          "logIndex": "0x5",
          "removed": false
        }
      ],
      "logsBloom": "0x00000000000000000000000000000000000000000000000000000000000000000000000000000000000000000000000000000000002000000000000000000000000000000000000000000000000000000000000008000000000000000000000000000000000000010000000000000000000000000000000000000000000000000000000000000000000000000000000000000080000000000000000000000000000000000000000001000000000000000000000000000000000000000040000000000000000000000002000000000000000000000000000000000000000000010000000000000010000008008000000000000000000000000000002000000000",
      "type": "0x2",
      "transactionHash": "0x89ce340dd726364af09118e35f6d9321e294e35c413ddf3e292c9f13d1d5cf23",
      "transactionIndex": "0x8",
      "blockHash": "0x0000000000000000000000000000000000000000000000000000000000000000",
      "blockNumber": "0x24d4683",
      "gasUsed": "0x3bf01",
      "effectiveGasPrice": "0x5b8d80",
      "blobGasUsed": "0x364c",
      "from": "0xa695bcdd880e8108ef177f4a151cfcd3eae3b6d4",
      "to": "0x0793531b3cce2b833298cfecaec63ad5c327302d",
      "contractAddress": null,
      "daFootprintGasScalar": "0x8b",
      "l1BaseFeeScalar": "0x44d",
      "l1BlobBaseFee": "0x1",
      "l1BlobBaseFeeScalar": "0xa118b",
      "l1Fee": "0x6f",
      "l1GasPrice": "0x1a",
      "l1GasUsed": "0x640"
    },
    {
      "status": "0x1",
      "cumulativeGasUsed": "0x1c2b03",
      "logs": [
        {
          "address": "0x0793531b3cce2b833298cfecaec63ad5c327302d",
          "topics": [
            "0x124a2b0b0384b7455ace5c25664b94d4ad3f77adbe0440be9e42b0a8880e04ca",
            "0x47b7b1fa880b1777d15335a56075c1f61823e12cf68f3f91d3dabf009af6fb51",
            "0x4d53465400000000000000000000000000000000000000000000000000000000"
          ],
          "data": "0x00000000000000000000000000000000000000000000000000000000023493400000000000000000000000000000000000000000000000000000000069af26c0d0ca23c1cc005e004ccf1db5bf76aeb6a49218f43dac3d4b275e92de12ded4d1",
          "blockHash": "0x0000000000000000000000000000000000000000000000000000000000000000",
          "blockNumber": "0x24d4683",
          "blockTimestamp": "0x69adebe6",
          "transactionHash": "0x5763c3ec7e7fe5aa801fbd349135e81dfe8869ea639e638327f5076b1d183bf5",
          "transactionIndex": "0x9",
          "logIndex": "0x6",
          "removed": false
        }
      ],
      "logsBloom": "0x00000000000000000000000001000000000000000000000000000000000000000000000000000000000000000000000000000000000000000000000000000000000000000000000000000008000000000000000000000000000000000000000000000000000000010000000000000000000000000000000000000000000000000000000000000000000000000000000000000000400008000000000000000000000000000000000001000000000000000000000000400000000000000040000000000000000000000000000000000000000000000000000000000000000000000000000000000014000008008000000000000000000000000000000000000000",
      "type": "0x2",
      "transactionHash": "0x5763c3ec7e7fe5aa801fbd349135e81dfe8869ea639e638327f5076b1d183bf5",
      "transactionIndex": "0x9",
      "blockHash": "0x0000000000000000000000000000000000000000000000000000000000000000",
      "blockNumber": "0x24d4683",
      "gasUsed": "0x3bf0d",
      "effectiveGasPrice": "0x5b8d80",
      "blobGasUsed": "0x364c",
      "from": "0xa695bcdd880e8108ef177f4a151cfcd3eae3b6d4",
      "to": "0x0793531b3cce2b833298cfecaec63ad5c327302d",
      "contractAddress": null,
      "daFootprintGasScalar": "0x8b",
      "l1BaseFeeScalar": "0x44d",
      "l1BlobBaseFee": "0x1",
      "l1BlobBaseFeeScalar": "0xa118b",
      "l1Fee": "0x6f",
      "l1GasPrice": "0x1a",
      "l1GasUsed": "0x640"
    },
    {
      "status": "0x1",
      "cumulativeGasUsed": "0x1fea10",
      "logs": [
        {
          "address": "0x0793531b3cce2b833298cfecaec63ad5c327302d",
          "topics": [
            "0x124a2b0b0384b7455ace5c25664b94d4ad3f77adbe0440be9e42b0a8880e04ca",
            "0xed15cf4c15ba0649c150d5623f928ce2584cb1787ac3d7c25f0dac799c2bfaeb",
            "0x4d53465400000000000000000000000000000000000000000000000000000000"
          ],
          "data": "0x00000000000000000000000000000000000000000000000000000000025317c00000000000000000000000000000000000000000000000000000000069af26c0d0ca23c1cc005e004ccf1db5bf76aeb6a49218f43dac3d4b275e92de12ded4d1",
          "blockHash": "0x0000000000000000000000000000000000000000000000000000000000000000",
          "blockNumber": "0x24d4683",
          "blockTimestamp": "0x69adebe6",
          "transactionHash": "0x08bc3e77eb6ae998c5f49cf11f8e5ce60116fc51df172621c6ac86fa52d67dde",
          "transactionIndex": "0xa",
          "logIndex": "0x7",
          "removed": false
        }
      ],
      "logsBloom": "0x00000000000000000000000000000000000000000000000000000000000000000000000000000000000000000000000000000000000000000000000000000000000000000000000000000008000000000000000000000000000000000000000000000000000000010000000000000000000000000000000000000000000000000000000000000000000020000000000000000000000008000000000000000000000000000000000001000000000000000000000000020000000000000040000000000000000000000000000000000000000000000000020000000000000000000000000000000014000008008000000000000000000000000000000000000000",
      "type": "0x2",
      "transactionHash": "0x08bc3e77eb6ae998c5f49cf11f8e5ce60116fc51df172621c6ac86fa52d67dde",
      "transactionIndex": "0xa",
      "blockHash": "0x0000000000000000000000000000000000000000000000000000000000000000",
      "blockNumber": "0x24d4683",
      "gasUsed": "0x3bf0d",
      "effectiveGasPrice": "0x5b8d80",
      "blobGasUsed": "0x364c",
      "from": "0xa695bcdd880e8108ef177f4a151cfcd3eae3b6d4",
      "to": "0x0793531b3cce2b833298cfecaec63ad5c327302d",
      "contractAddress": null,
      "daFootprintGasScalar": "0x8b",
      "l1BaseFeeScalar": "0x44d",
      "l1BlobBaseFee": "0x1",
      "l1BlobBaseFeeScalar": "0xa118b",
      "l1Fee": "0x6f",
      "l1GasPrice": "0x1a",
      "l1GasUsed": "0x640"
    },
    {
      "status": "0x1",
      "cumulativeGasUsed": "0x23a911",
      "logs": [
        {
          "address": "0x0793531b3cce2b833298cfecaec63ad5c327302d",
          "topics": [
            "0x124a2b0b0384b7455ace5c25664b94d4ad3f77adbe0440be9e42b0a8880e04ca",
            "0x2d2798a40ab7b067ea97621e782e277eeae8fd4879aee159759a0e8f1721dd0e",
            "0x4d53465400000000000000000000000000000000000000000000000000000000"
          ],
          "data": "0x0000000000000000000000000000000000000000000000000000000002625a000000000000000000000000000000000000000000000000000000000069af26c0d0ca23c1cc005e004ccf1db5bf76aeb6a49218f43dac3d4b275e92de12ded4d1",
          "blockHash": "0x0000000000000000000000000000000000000000000000000000000000000000",
          "blockNumber": "0x24d4683",
          "blockTimestamp": "0x69adebe6",
          "transactionHash": "0xfe2592f67044ea9b4fe5246c49fb46598bd196f8ab4010c5964ffa9fd08132b0",
          "transactionIndex": "0xb",
          "logIndex": "0x8",
          "removed": false
        }
      ],
      "logsBloom": "0x00000000000000000000000000000000000000000000000400000000000000000000000000000000000000000000000000000000000000000000000000000000000000000000000000000008000000000000000000000000000000000000000000000000000000010000000000000000000000000000000000000000000000000000000000000000000000000000000000000000000008000000000000000000000000100000000001000000000000000000000000000000000000000040000000000000000000000000000000000000000000000000000000000000000000000000000000000014000008008000000000000001000000000000000000000000",
      "type": "0x2",
      "transactionHash": "0xfe2592f67044ea9b4fe5246c49fb46598bd196f8ab4010c5964ffa9fd08132b0",
      "transactionIndex": "0xb",
      "blockHash": "0x0000000000000000000000000000000000000000000000000000000000000000",
      "blockNumber": "0x24d4683",
      "gasUsed": "0x3bf01",
      "effectiveGasPrice": "0x5b8d80",
      "blobGasUsed": "0x364c",
      "from": "0xa695bcdd880e8108ef177f4a151cfcd3eae3b6d4",
      "to": "0x0793531b3cce2b833298cfecaec63ad5c327302d",
      "contractAddress": null,
      "daFootprintGasScalar": "0x8b",
      "l1BaseFeeScalar": "0x44d",
      "l1BlobBaseFee": "0x1",
      "l1BlobBaseFeeScalar": "0xa118b",
      "l1Fee": "0x6f",
      "l1GasPrice": "0x1a",
      "l1GasUsed": "0x640"
    },
    {
      "status": "0x1",
      "cumulativeGasUsed": "0x27681e",
      "logs": [
        {
          "address": "0x0793531b3cce2b833298cfecaec63ad5c327302d",
          "topics": [
            "0x124a2b0b0384b7455ace5c25664b94d4ad3f77adbe0440be9e42b0a8880e04ca",
            "0xd2663735dce7373a4d4ca2842e52c83370422ce3c23419882f60c13ea49d1490",
            "0x4d53465400000000000000000000000000000000000000000000000000000000"
          ],
          "data": "0x0000000000000000000000000000000000000000000000000000000002719c400000000000000000000000000000000000000000000000000000000069af26c0d0ca23c1cc005e004ccf1db5bf76aeb6a49218f43dac3d4b275e92de12ded4d1",
          "blockHash": "0x0000000000000000000000000000000000000000000000000000000000000000",
          "blockNumber": "0x24d4683",
          "blockTimestamp": "0x69adebe6",
          "transactionHash": "0xd70d4c32a16e16c000436050439218988daa09a7a38557a718f578a6442ecc53",
          "transactionIndex": "0xc",
          "logIndex": "0x9",
          "removed": false
        }
      ],
      "logsBloom": "0x00080000000000000000000000000000000000000000000000000000000000000000000000000000000000000000000000000000000000000000000000000000000000000000000000000008000000000000000000000000000000000000000000000000000000010000000000000000000000000000000000000000000000000000000000000000000000000000000000100000000008000000000000000000000000000000000001000000000000000000000000000000000000000040000000000000000000000000000000000000000000000000000000000000000000000000000000008014000008008000000000000000000000000000000000000000",
      "type": "0x2",
      "transactionHash": "0xd70d4c32a16e16c000436050439218988daa09a7a38557a718f578a6442ecc53",
      "transactionIndex": "0xc",
      "blockHash": "0x0000000000000000000000000000000000000000000000000000000000000000",
      "blockNumber": "0x24d4683",
      "gasUsed": "0x3bf0d",
      "effectiveGasPrice": "0x5b8d80",
      "blobGasUsed": "0x364c",
      "from": "0xa695bcdd880e8108ef177f4a151cfcd3eae3b6d4",
      "to": "0x0793531b3cce2b833298cfecaec63ad5c327302d",
      "contractAddress": null,
      "daFootprintGasScalar": "0x8b",
      "l1BaseFeeScalar": "0x44d",
      "l1BlobBaseFee": "0x1",
      "l1BlobBaseFeeScalar": "0xa118b",
      "l1Fee": "0x6f",
      "l1GasPrice": "0x1a",
      "l1GasUsed": "0x640"
    },
    {
      "status": "0x1",
      "cumulativeGasUsed": "0x2b272b",
      "logs": [
        {
          "address": "0x0793531b3cce2b833298cfecaec63ad5c327302d",
          "topics": [
            "0x124a2b0b0384b7455ace5c25664b94d4ad3f77adbe0440be9e42b0a8880e04ca",
            "0xeade926bc7f1f3ecff53cfd1a7044c57d3da698f961e3d2ce9039258b1ca1853",
            "0x4d53465400000000000000000000000000000000000000000000000000000000"
          ],
          "data": "0x000000000000000000000000000000000000000000000000000000000280de800000000000000000000000000000000000000000000000000000000069af26c0d0ca23c1cc005e004ccf1db5bf76aeb6a49218f43dac3d4b275e92de12ded4d1",
          "blockHash": "0x0000000000000000000000000000000000000000000000000000000000000000",
          "blockNumber": "0x24d4683",
          "blockTimestamp": "0x69adebe6",
          "transactionHash": "0xa15be9f63233e40000ce0491da2f4166907aa2cfdd04f857faa8d2dac23a16a1",
          "transactionIndex": "0xd",
          "logIndex": "0xa",
          "removed": false
        }
      ],
      "logsBloom": "0x00010000000000000000000000000000000000000000000000000000000000000000000000000000000000000000000000000000000000000000000000000000000000000000000000000008080000000000000000000000000000000000000000000002000000010000000000000000000000000000000000000000000000000000000000000000000000000000000000000000000008000000000000000000000000000000000001000000000000000000000000000000000000000040000000000000000000000000000000000000000000000000000000000000000000000000000000000014000008008000000000000000000000000000000000000000",
      "type": "0x2",
      "transactionHash": "0xa15be9f63233e40000ce0491da2f4166907aa2cfdd04f857faa8d2dac23a16a1",
      "transactionIndex": "0xd",
      "blockHash": "0x0000000000000000000000000000000000000000000000000000000000000000",
      "blockNumber": "0x24d4683",
      "gasUsed": "0x3bf0d",
      "effectiveGasPrice": "0x5b8d80",
      "blobGasUsed": "0x364c",
      "from": "0xa695bcdd880e8108ef177f4a151cfcd3eae3b6d4",
      "to": "0x0793531b3cce2b833298cfecaec63ad5c327302d",
      "contractAddress": null,
      "daFootprintGasScalar": "0x8b",
      "l1BaseFeeScalar": "0x44d",
      "l1BlobBaseFee": "0x1",
      "l1BlobBaseFeeScalar": "0xa118b",
      "l1Fee": "0x6f",
      "l1GasPrice": "0x1a",
      "l1GasUsed": "0x640"
    },
    {
      "status": "0x1",
      "cumulativeGasUsed": "0x2ee638",
      "logs": [
        {
          "address": "0x0793531b3cce2b833298cfecaec63ad5c327302d",
          "topics": [
            "0x124a2b0b0384b7455ace5c25664b94d4ad3f77adbe0440be9e42b0a8880e04ca",
            "0x361e2af44eb0c04cecb732a00ec78a6825e843245894e12e886f493c97e5d91d",
            "0x4d53465400000000000000000000000000000000000000000000000000000000"
          ],
          "data": "0x00000000000000000000000000000000000000000000000000000000029020c00000000000000000000000000000000000000000000000000000000069af26c0d0ca23c1cc005e004ccf1db5bf76aeb6a49218f43dac3d4b275e92de12ded4d1",
          "blockHash": "0x0000000000000000000000000000000000000000000000000000000000000000",
          "blockNumber": "0x24d4683",
          "blockTimestamp": "0x69adebe6",
          "transactionHash": "0x3cb85e98a478b6858ec425a4eba573348e7801a96fc11df6a2479cb4a34a5048",
          "transactionIndex": "0xe",
          "logIndex": "0xb",
          "removed": false
        }
      ],
      "logsBloom": "0x00000000000000000000000000000000000000000000000000000000000000000000000000000100000000000000000000000000000000000000000000000000000000000000000000000008000000000000000000000000000000000000000800000000000000014000000000000000000000000000000000000000000000000000000000000000000000000000000000000000000008000000000000000000000000000000000001000000000000000000000000000000000000000040000000000000000000000000000000000000000000000000000000000000000000000000000000000014000008008000000000000000000000000000000000000000",
      "type": "0x2",
      "transactionHash": "0x3cb85e98a478b6858ec425a4eba573348e7801a96fc11df6a2479cb4a34a5048",
      "transactionIndex": "0xe",
      "blockHash": "0x0000000000000000000000000000000000000000000000000000000000000000",
      "blockNumber": "0x24d4683",
      "gasUsed": "0x3bf0d",
      "effectiveGasPrice": "0x5b8d80",
      "blobGasUsed": "0x364c",
      "from": "0xa695bcdd880e8108ef177f4a151cfcd3eae3b6d4",
      "to": "0x0793531b3cce2b833298cfecaec63ad5c327302d",
      "contractAddress": null,
      "daFootprintGasScalar": "0x8b",
      "l1BaseFeeScalar": "0x44d",
      "l1BlobBaseFee": "0x1",
      "l1BlobBaseFeeScalar": "0xa118b",
      "l1Fee": "0x6f",
      "l1GasPrice": "0x1a",
      "l1GasUsed": "0x640"
    },
    {
      "status": "0x1",
      "cumulativeGasUsed": "0x32a545",
      "logs": [
        {
          "address": "0x0793531b3cce2b833298cfecaec63ad5c327302d",
          "topics": [
            "0x124a2b0b0384b7455ace5c25664b94d4ad3f77adbe0440be9e42b0a8880e04ca",
            "0x2bfd65a16640af062b39606171907e930b5169d80959fd3019029924dacbd2f3",
            "0x4d53465400000000000000000000000000000000000000000000000000000000"
          ],
          "data": "0x0000000000000000000000000000000000000000000000000000000002aea5400000000000000000000000000000000000000000000000000000000069af26c0d0ca23c1cc005e004ccf1db5bf76aeb6a49218f43dac3d4b275e92de12ded4d1",
          "blockHash": "0x0000000000000000000000000000000000000000000000000000000000000000",
          "blockNumber": "0x24d4683",
          "blockTimestamp": "0x69adebe6",
          "transactionHash": "0x43d8df9818ab26c4cf393c326c118976005ef897642d6a8ba11c305957481048",
          "transactionIndex": "0xf",
          "logIndex": "0xc",
          "removed": false
        }
      ],
      "logsBloom": "0x00000000000000000000000000000000000000000004000000000000000000000000000000000000000000000000000000000000000000000000000000000000000000000000000000000008000000000000000000000000000040000000000000040000000000010000000000000000000000000000000000000000000000000000000000000000000000000000000000000000000008000000000000000000000000000000000001000000000000000000000000000000000000000040000000000000000000000000000000000000000000000000000000000000000000000000000000000014000008008000000000000000000000000000000000000000",
      "type": "0x2",
      "transactionHash": "0x43d8df9818ab26c4cf393c326c118976005ef897642d6a8ba11c305957481048",
      "transactionIndex": "0xf",
      "blockHash": "0x0000000000000000000000000000000000000000000000000000000000000000",
      "blockNumber": "0x24d4683",
      "gasUsed": "0x3bf0d",
      "effectiveGasPrice": "0x5b8d80",
      "blobGasUsed": "0x364c",
      "from": "0xa695bcdd880e8108ef177f4a151cfcd3eae3b6d4",
      "to": "0x0793531b3cce2b833298cfecaec63ad5c327302d",
      "contractAddress": null,
      "daFootprintGasScalar": "0x8b",
      "l1BaseFeeScalar": "0x44d",
      "l1BlobBaseFee": "0x1",
      "l1BlobBaseFeeScalar": "0xa118b",
      "l1Fee": "0x6f",
      "l1GasPrice": "0x1a",
      "l1GasUsed": "0x640"
    },
    {
      "status": "0x1",
      "cumulativeGasUsed": "0x36643a",
      "logs": [
        {
          "address": "0x0793531b3cce2b833298cfecaec63ad5c327302d",
          "topics": [
            "0x124a2b0b0384b7455ace5c25664b94d4ad3f77adbe0440be9e42b0a8880e04ca",
            "0x06360b439a7d160094aaf33775270999966d344e3f25de9c2ea43dfc96b96ce9",
            "0x4e56444100000000000000000000000000000000000000000000000000000000"
          ],
          "data": "0x0000000000000000000000000000000000000000000000000000000000f424000000000000000000000000000000000000000000000000000000000069af26c061c4ca5b9731a79e285a01e24432d57d89f0ecdd4cd7828196ca8992d5eafef6",
          "blockHash": "0x0000000000000000000000000000000000000000000000000000000000000000",
          "blockNumber": "0x24d4683",
          "blockTimestamp": "0x69adebe6",
          "transactionHash": "0x4c31bf60c2af13220d9124ae810df6c2ed6f8ec657b44308413d3be49b2295e8",
          "transactionIndex": "0x10",
          "logIndex": "0xd",
          "removed": false
        }
      ],
      "logsBloom": "0x00000000000000000000000000000080000010000000000000000000000000000000000000000000000000000000000000000000000000000000000000000000000000000000000000000000000000000000000000000000020000000000000000000000000000010000000000000000000000000000000000000000000000000000000000000000000000000000000000000000000010000000000000000000000000000000000001000000000000000000000000000000000000000040000000000000000000000000000000000000040000000000000000000000000000000000000010000010000008008000000000000000000000000000000000000000",
      "type": "0x2",
      "transactionHash": "0x4c31bf60c2af13220d9124ae810df6c2ed6f8ec657b44308413d3be49b2295e8",
      "transactionIndex": "0x10",
      "blockHash": "0x0000000000000000000000000000000000000000000000000000000000000000",
      "blockNumber": "0x24d4683",
      "gasUsed": "0x3bef5",
      "effectiveGasPrice": "0x5b8d80",
      "blobGasUsed": "0x364c",
      "from": "0xa695bcdd880e8108ef177f4a151cfcd3eae3b6d4",
      "to": "0x0793531b3cce2b833298cfecaec63ad5c327302d",
      "contractAddress": null,
      "daFootprintGasScalar": "0x8b",
      "l1BaseFeeScalar": "0x44d",
      "l1BlobBaseFee": "0x1",
      "l1BlobBaseFeeScalar": "0xa118b",
      "l1Fee": "0x6f",
      "l1GasPrice": "0x1a",
      "l1GasUsed": "0x640"
    },
    {
      "status": "0x1",
      "cumulativeGasUsed": "0x3a2347",
      "logs": [
        {
          "address": "0x0793531b3cce2b833298cfecaec63ad5c327302d",
          "topics": [
            "0x124a2b0b0384b7455ace5c25664b94d4ad3f77adbe0440be9e42b0a8880e04ca",
            "0x8e7edd370d0bbc9e4c927591a6e67e4ac3bafdbd2e5e86968ac05970dd99450c",
            "0x4e56444100000000000000000000000000000000000000000000000000000000"
          ],
          "data": "0x00000000000000000000000000000000000000000000000000000000010366400000000000000000000000000000000000000000000000000000000069af26c061c4ca5b9731a79e285a01e24432d57d89f0ecdd4cd7828196ca8992d5eafef6",
          "blockHash": "0x0000000000000000000000000000000000000000000000000000000000000000",
          "blockNumber": "0x24d4683",
          "blockTimestamp": "0x69adebe6",
          "transactionHash": "0xd63d46a8681b22fb4f09ad98bc8d058e14af5713b6e3654da69b3bb7ae706d65",
          "transactionIndex": "0x11",
          "logIndex": "0xe",
          "removed": false
        }
      ],
      "logsBloom": "0x00000000000000000000000000000000000010000000000000000000000000000000000000000000000000000000000000000000000000000000000000000000000000000000000000000000000000000000000000000000020000000400000000000000000000010000000000000000000000000000000000000000000000000000000001000000000000000000000000000000000000000000000000000000000000000000000001000000000000000000000000000000000000000040000000000000000000000000000000000000000400000000000000000000000000000000000010000010000008008000000000000000000000000000000000000000",
      "type": "0x2",
      "transactionHash": "0xd63d46a8681b22fb4f09ad98bc8d058e14af5713b6e3654da69b3bb7ae706d65",
      "transactionIndex": "0x11",
      "blockHash": "0x0000000000000000000000000000000000000000000000000000000000000000",
      "blockNumber": "0x24d4683",
      "gasUsed": "0x3bf0d",
      "effectiveGasPrice": "0x5b8d80",
      "blobGasUsed": "0x364c",
      "from": "0xa695bcdd880e8108ef177f4a151cfcd3eae3b6d4",
      "to": "0x0793531b3cce2b833298cfecaec63ad5c327302d",
      "contractAddress": null,
      "daFootprintGasScalar": "0x8b",
      "l1BaseFeeScalar": "0x44d",
      "l1BlobBaseFee": "0x1",
      "l1BlobBaseFeeScalar": "0xa118b",
      "l1Fee": "0x6f",
      "l1GasPrice": "0x1a",
      "l1GasUsed": "0x640"
    },
    {
      "status": "0x1",
      "cumulativeGasUsed": "0x3de254",
      "logs": [
        {
          "address": "0x0793531b3cce2b833298cfecaec63ad5c327302d",
          "topics": [
            "0x124a2b0b0384b7455ace5c25664b94d4ad3f77adbe0440be9e42b0a8880e04ca",
            "0x5282d25f627d2edcd47c23f0e26a8a708b36432f4fc3cf099a04f8d5d1bd97fa",
            "0x4e56444100000000000000000000000000000000000000000000000000000000"
          ],
          "data": "0x000000000000000000000000000000000000000000000000000000000112a8800000000000000000000000000000000000000000000000000000000069af26c061c4ca5b9731a79e285a01e24432d57d89f0ecdd4cd7828196ca8992d5eafef6",
          "blockHash": "0x0000000000000000000000000000000000000000000000000000000000000000",
          "blockNumber": "0x24d4683",
          "blockTimestamp": "0x69adebe6",
          "transactionHash": "0x7d7bc9989a4b63db54121a3f63f784c0682687952ba35ec531ce3389b73eaac0",
          "transactionIndex": "0x12",
          "logIndex": "0xf",
          "removed": false
        }
      ],
      "logsBloom": "0x00000000000000000000000000000000000010000000000000000000000000000000000000000000000000000000000000000000000000000000000000000000000000000000000000000000000000000000000000000000020000000000000000000000000040010000000000000000000000000000000000000000000000000000000000000000000000000000000000000000000020000000000000000000000000000000000001000000000000000000000000000000000000000040000000000000000000000000000000000000000000080000000000000000000000000000000010000010000008008000000000000000000000000000000000000000",
      "type": "0x2",
      "transactionHash": "0x7d7bc9989a4b63db54121a3f63f784c0682687952ba35ec531ce3389b73eaac0",
      "transactionIndex": "0x12",
      "blockHash": "0x0000000000000000000000000000000000000000000000000000000000000000",
      "blockNumber": "0x24d4683",
      "gasUsed": "0x3bf0d",
      "effectiveGasPrice": "0x5b8d80",
      "blobGasUsed": "0x364c",
      "from": "0xa695bcdd880e8108ef177f4a151cfcd3eae3b6d4",
      "to": "0x0793531b3cce2b833298cfecaec63ad5c327302d",
      "contractAddress": null,
      "daFootprintGasScalar": "0x8b",
      "l1BaseFeeScalar": "0x44d",
      "l1BlobBaseFee": "0x1",
      "l1BlobBaseFeeScalar": "0xa118b",
      "l1Fee": "0x6f",
      "l1GasPrice": "0x1a",
      "l1GasUsed": "0x640"
    },
    {
      "status": "0x1",
      "cumulativeGasUsed": "0x41a161",
      "logs": [
        {
          "address": "0x0793531b3cce2b833298cfecaec63ad5c327302d",
          "topics": [
            "0x124a2b0b0384b7455ace5c25664b94d4ad3f77adbe0440be9e42b0a8880e04ca",
            "0x75f12b7d3361161380fa372e63185b6485106bdbfd68f3ca78a9ae6ee080671e",
            "0x4e56444100000000000000000000000000000000000000000000000000000000"
          ],
          "data": "0x000000000000000000000000000000000000000000000000000000000121eac00000000000000000000000000000000000000000000000000000000069af26c061c4ca5b9731a79e285a01e24432d57d89f0ecdd4cd7828196ca8992d5eafef6",
          "blockHash": "0x0000000000000000000000000000000000000000000000000000000000000000",
          "blockNumber": "0x24d4683",
          "blockTimestamp": "0x69adebe6",
          "transactionHash": "0x56b99def6f5bd68bea70ab755cd33797eb07d48278f6a07c46e1498f35da972e",
          "transactionIndex": "0x13",
          "logIndex": "0x10",
          "removed": false
        }
      ],
      "logsBloom": "0x00000000000000020000000000000000000010000000000000000000000000000000000000000000000000000000000000000000000000000000000000000000000000000000000000000000000000000000000000000000020000000000000000800000000000010000000000000000002000000000000000000000000000000000000000000000000000000000000000000000000000000000000000000000000000000000000001000000000000000000000000000000000000000040000000000000000000000000000000000000000000000000000000000000000000000000000010000010000008008000000000000000000000000000000000000000",
      "type": "0x2",
      "transactionHash": "0x56b99def6f5bd68bea70ab755cd33797eb07d48278f6a07c46e1498f35da972e",
      "transactionIndex": "0x13",
      "blockHash": "0x0000000000000000000000000000000000000000000000000000000000000000",
      "blockNumber": "0x24d4683",
      "gasUsed": "0x3bf0d",
      "effectiveGasPrice": "0x5b8d80",
      "blobGasUsed": "0x364c",
      "from": "0xa695bcdd880e8108ef177f4a151cfcd3eae3b6d4",
      "to": "0x0793531b3cce2b833298cfecaec63ad5c327302d",
      "contractAddress": null,
      "daFootprintGasScalar": "0x8b",
      "l1BaseFeeScalar": "0x44d",
      "l1BlobBaseFee": "0x1",
      "l1BlobBaseFeeScalar": "0xa118b",
      "l1Fee": "0x6f",
      "l1GasPrice": "0x1a",
      "l1GasUsed": "0x640"
    },
    {
      "status": "0x1",
      "cumulativeGasUsed": "0x456062",
      "logs": [
        {
          "address": "0x0793531b3cce2b833298cfecaec63ad5c327302d",
          "topics": [
            "0x124a2b0b0384b7455ace5c25664b94d4ad3f77adbe0440be9e42b0a8880e04ca",
            "0x7cdd368ce3eda895888107c82c8c4560d706a27122675ff694800833eb3bcf62",
            "0x4e56444100000000000000000000000000000000000000000000000000000000"
          ],
          "data": "0x0000000000000000000000000000000000000000000000000000000001312d000000000000000000000000000000000000000000000000000000000069af26c061c4ca5b9731a79e285a01e24432d57d89f0ecdd4cd7828196ca8992d5eafef6",
          "blockHash": "0x0000000000000000000000000000000000000000000000000000000000000000",
          "blockNumber": "0x24d4683",
          "blockTimestamp": "0x69adebe6",
          "transactionHash": "0xb40c5cc41bd9094d68b3a4a62fd4e340e7da07fa11390489e684716f3c52ff3d",
          "transactionIndex": "0x14",
          "logIndex": "0x11",
          "removed": false
        }
      ],
      "logsBloom": "0x00000000000000000000000000000000000010000000000000000000000000000000000000000000000000000000000000000000000004000000000000000000000000000000000000000000000000000000000000000000020000000000000000000000000000010000000000000000000000200000000000000000000000000000000000000000000000000000000000000000000000000000000000000000000000000000000001000000000000000000000000000000000000000040000000000000000000000000000020000000000000000000000000000000000000000000000010000010000008008000000000000000000000000000000000000000",
      "type": "0x2",
      "transactionHash": "0xb40c5cc41bd9094d68b3a4a62fd4e340e7da07fa11390489e684716f3c52ff3d",
      "transactionIndex": "0x14",
      "blockHash": "0x0000000000000000000000000000000000000000000000000000000000000000",
      "blockNumber": "0x24d4683",
      "gasUsed": "0x3bf01",
      "effectiveGasPrice": "0x5b8d80",
      "blobGasUsed": "0x364c",
      "from": "0xa695bcdd880e8108ef177f4a151cfcd3eae3b6d4",
      "to": "0x0793531b3cce2b833298cfecaec63ad5c327302d",
      "contractAddress": null,
      "daFootprintGasScalar": "0x8b",
      "l1BaseFeeScalar": "0x44d",
      "l1BlobBaseFee": "0x1",
      "l1BlobBaseFeeScalar": "0xa118b",
      "l1Fee": "0x6f",
      "l1GasPrice": "0x1a",
      "l1GasUsed": "0x640"
    },
    {
      "status": "0x1",
      "cumulativeGasUsed": "0x491f7b",
      "logs": [
        {
          "address": "0x0793531b3cce2b833298cfecaec63ad5c327302d",
          "topics": [
            "0x124a2b0b0384b7455ace5c25664b94d4ad3f77adbe0440be9e42b0a8880e04ca",
            "0xa12b7a7fe239edcd572a7a6c6c2c148d9287abbe9e91cca9a0c8c7266dfc200e",
            "0x474f4f474c000000000000000000000000000000000000000000000000000000"
          ],
          "data": "0x00000000000000000000000000000000000000000000000000000000019bfcc00000000000000000000000000000000000000000000000000000000069af26c0e65ff435be42630439c96396653a342829e877e2aafaeaf1a10d0ee5fd2cf3f2",
          "blockHash": "0x0000000000000000000000000000000000000000000000000000000000000000",
          "blockNumber": "0x24d4683",
          "blockTimestamp": "0x69adebe6",
          "transactionHash": "0x2d38e2ebf851b06e0427cb6cdf35e6ad422e6dcf72538830a56acc019736e60e",
          "transactionIndex": "0x15",
          "logIndex": "0x12",
          "removed": false
        }
      ],
      "logsBloom": "0x00000080000000000000000000000000000000000000000000000000000000000000000000000000000000000000020000000000000000000000000000000000000000002020000000000000000000000000000000000000000000000000000000000000000000010000000000000000000000000000000000000000000000000000000000000000000000000000000000000000000000000000000000000000000000000000001009000000000000000000000000000000000000000040000000000000000000000000000000000000000000000000000000000000000000000000000000000010000008008000000000000000000000000000000000000000",
      "type": "0x2",
      "transactionHash": "0x2d38e2ebf851b06e0427cb6cdf35e6ad422e6dcf72538830a56acc019736e60e",
      "transactionIndex": "0x15",
      "blockHash": "0x0000000000000000000000000000000000000000000000000000000000000000",
      "blockNumber": "0x24d4683",
      "gasUsed": "0x3bf19",
      "effectiveGasPrice": "0x5b8d80",
      "blobGasUsed": "0x364c",
      "from": "0xa695bcdd880e8108ef177f4a151cfcd3eae3b6d4",
      "to": "0x0793531b3cce2b833298cfecaec63ad5c327302d",
      "contractAddress": null,
      "daFootprintGasScalar": "0x8b",
      "l1BaseFeeScalar": "0x44d",
      "l1BlobBaseFee": "0x1",
      "l1BlobBaseFeeScalar": "0xa118b",
      "l1Fee": "0x6f",
      "l1GasPrice": "0x1a",
      "l1GasUsed": "0x640"
    },
    {
      "status": "0x1",
      "cumulativeGasUsed": "0x4cde88",
      "logs": [
        {
          "address": "0x0793531b3cce2b833298cfecaec63ad5c327302d",
          "topics": [
            "0x124a2b0b0384b7455ace5c25664b94d4ad3f77adbe0440be9e42b0a8880e04ca",
            "0x97ccde5093fc33937b6dac6d13b4cde7257789641c84b429fb1ea9d553c0aa63",
            "0x474f4f474c000000000000000000000000000000000000000000000000000000"
          ],
          "data": "0x0000000000000000000000000000000000000000000000000000000001ab3f000000000000000000000000000000000000000000000000000000000069af26c0e65ff435be42630439c96396653a342829e877e2aafaeaf1a10d0ee5fd2cf3f2",
          "blockHash": "0x0000000000000000000000000000000000000000000000000000000000000000",
          "blockNumber": "0x24d4683",
          "blockTimestamp": "0x69adebe6",
          "transactionHash": "0x1a6b71875df49b5c6b94c2507af23c6a6e37dcf688b5738e5b3ac634bcb2328c",
          "transactionIndex": "0x16",
          "logIndex": "0x13",
          "removed": false
        }
      ],
      "logsBloom": "0x00000000000000000000000000000000000000000000000000000000000000000000000000000000000000000000020000000000000000000000000000000000000000000020000000000000000000000000000000000000000000000000000000040000000000010000000000000000000000000000000000000000200000000000000000000000000000000000400000000000000000000000000000000000000000000000001001000000000000000000000000000000000000000040000000000000000000000000000000000000000000000000000000000000000000000000000000000010000008008000000000000000000000000000000000000000",
      "type": "0x2",
      "transactionHash": "0x1a6b71875df49b5c6b94c2507af23c6a6e37dcf688b5738e5b3ac634bcb2328c",
      "transactionIndex": "0x16",
      "blockHash": "0x0000000000000000000000000000000000000000000000000000000000000000",
      "blockNumber": "0x24d4683",
      "gasUsed": "0x3bf0d",
      "effectiveGasPrice": "0x5b8d80",
      "blobGasUsed": "0x364c",
      "from": "0xa695bcdd880e8108ef177f4a151cfcd3eae3b6d4",
      "to": "0x0793531b3cce2b833298cfecaec63ad5c327302d",
      "contractAddress": null,
      "daFootprintGasScalar": "0x8b",
      "l1BaseFeeScalar": "0x44d",
      "l1BlobBaseFee": "0x1",
      "l1BlobBaseFeeScalar": "0xa118b",
      "l1Fee": "0x6f",
      "l1GasPrice": "0x1a",
      "l1GasUsed": "0x640"
    },
    {
      "status": "0x1",
      "cumulativeGasUsed": "0x509da1",
      "logs": [
        {
          "address": "0x0793531b3cce2b833298cfecaec63ad5c327302d",
          "topics": [
            "0x124a2b0b0384b7455ace5c25664b94d4ad3f77adbe0440be9e42b0a8880e04ca",
            "0xd4bdddb098cef8f8601233e1445347718a66bc031bb0d14a1aee4b6254026a95",
            "0x474f4f474c000000000000000000000000000000000000000000000000000000"
          ],
          "data": "0x0000000000000000000000000000000000000000000000000000000001ba81400000000000000000000000000000000000000000000000000000000069af26c0e65ff435be42630439c96396653a342829e877e2aafaeaf1a10d0ee5fd2cf3f2",
          "blockHash": "0x0000000000000000000000000000000000000000000000000000000000000000",
          "blockNumber": "0x24d4683",
          "blockTimestamp": "0x69adebe6",
          "transactionHash": "0x875a59d199bdaa3251609e6b7704acffce17a4fe07cde3cb52c9f7aa4d312d62",
          "transactionIndex": "0x17",
          "logIndex": "0x14",
          "removed": false
        }
      ],
      "logsBloom": "0x00000000000000000000000000000000000000000000000000000000000000400000000000000000000000000000020000000000000000000000000000000000000000000020000000000000000000000000000000000000000000001000000000000040000000010000000000000000000000000000000000000000000000000000000000000000000000000000000000000000000000000000000000000000000000000000001001000000000000000000000000000000000000000040000000000000000000000000000000000000000000000000000000000000000000000000000000000010000008008000000000000000000000000000000000000000",
      "type": "0x2",
      "transactionHash": "0x875a59d199bdaa3251609e6b7704acffce17a4fe07cde3cb52c9f7aa4d312d62",
      "transactionIndex": "0x17",
      "blockHash": "0x0000000000000000000000000000000000000000000000000000000000000000",
      "blockNumber": "0x24d4683",
      "gasUsed": "0x3bf19",
      "effectiveGasPrice": "0x5b8d80",
      "blobGasUsed": "0x364c",
      "from": "0xa695bcdd880e8108ef177f4a151cfcd3eae3b6d4",
      "to": "0x0793531b3cce2b833298cfecaec63ad5c327302d",
      "contractAddress": null,
      "daFootprintGasScalar": "0x8b",
      "l1BaseFeeScalar": "0x44d",
      "l1BlobBaseFee": "0x1",
      "l1BlobBaseFeeScalar": "0xa118b",
      "l1Fee": "0x6f",
      "l1GasPrice": "0x1a",
      "l1GasUsed": "0x640"
    },
    {
      "status": "0x1",
      "cumulativeGasUsed": "0x545cba",
      "logs": [
        {
          "address": "0x0793531b3cce2b833298cfecaec63ad5c327302d",
          "topics": [
            "0x124a2b0b0384b7455ace5c25664b94d4ad3f77adbe0440be9e42b0a8880e04ca",
            "0x9039f34776fedcc665539b01c01735a356a89d195e7e17bbe8690f76e2765d5b",
            "0x474f4f474c000000000000000000000000000000000000000000000000000000"
          ],
          "data": "0x0000000000000000000000000000000000000000000000000000000001c9c3800000000000000000000000000000000000000000000000000000000069af26c0e65ff435be42630439c96396653a342829e877e2aafaeaf1a10d0ee5fd2cf3f2",
          "blockHash": "0x0000000000000000000000000000000000000000000000000000000000000000",
          "blockNumber": "0x24d4683",
          "blockTimestamp": "0x69adebe6",
          "transactionHash": "0x7f9cc57f41ce13293d936897b821534781fa852a67c4d5ce41d24a7144252c18",
          "transactionIndex": "0x18",
          "logIndex": "0x15",
          "removed": false
        }
      ],
      "logsBloom": "0x00000000000000000000000000000000000000000000000000000000000000000000000000000000000000000000020000000000000000000000000000000000000000000020000001004000000000000000000000000000000000000000000000000000000000010000000000000000000000000000000000000000000000000000000000000000000000000000000000000000000010000000000000000000000000000000001001000000000000000000000000000000000000000040000000000000000000000000000000000000000000000000000000000000000000000000000000000010000008008000000000000000000000000000000000000000",
      "type": "0x2",
      "transactionHash": "0x7f9cc57f41ce13293d936897b821534781fa852a67c4d5ce41d24a7144252c18",
      "transactionIndex": "0x18",
      "blockHash": "0x0000000000000000000000000000000000000000000000000000000000000000",
      "blockNumber": "0x24d4683",
      "gasUsed": "0x3bf19",
      "effectiveGasPrice": "0x5b8d80",
      "blobGasUsed": "0x364c",
      "from": "0xa695bcdd880e8108ef177f4a151cfcd3eae3b6d4",
      "to": "0x0793531b3cce2b833298cfecaec63ad5c327302d",
      "contractAddress": null,
      "daFootprintGasScalar": "0x8b",
      "l1BaseFeeScalar": "0x44d",
      "l1BlobBaseFee": "0x1",
      "l1BlobBaseFeeScalar": "0xa118b",
      "l1Fee": "0x6f",
      "l1GasPrice": "0x1a",
      "l1GasUsed": "0x640"
    },
    {
      "status": "0x1",
      "cumulativeGasUsed": "0x581bd3",
      "logs": [
        {
          "address": "0x0793531b3cce2b833298cfecaec63ad5c327302d",
          "topics": [
            "0x124a2b0b0384b7455ace5c25664b94d4ad3f77adbe0440be9e42b0a8880e04ca",
            "0xd537c6790657a1eb5e0a0440b035011a9f29ce0e2ec6c316a6b41e50a095b44b",
            "0x474f4f474c000000000000000000000000000000000000000000000000000000"
          ],
          "data": "0x0000000000000000000000000000000000000000000000000000000001d905c00000000000000000000000000000000000000000000000000000000069af26c0e65ff435be42630439c96396653a342829e877e2aafaeaf1a10d0ee5fd2cf3f2",
          "blockHash": "0x0000000000000000000000000000000000000000000000000000000000000000",
          "blockNumber": "0x24d4683",
          "blockTimestamp": "0x69adebe6",
          "transactionHash": "0x334ac6ea871bbd82fd6ba10398e5bdb8cfc6e591e90a63a756b56897391effbd",
          "transactionIndex": "0x19",
          "logIndex": "0x16",
          "removed": false
        }
      ],
      "logsBloom": "0x00000000000004000000000000000000000000000000000000000000000000000000000000000000000000000000020000000000000000000000000000000000000000000020000000000000000000000000000000000000000000000000000000000000000000010000000000000000000000000000000000000000000000000000000000000000000000000000000000000000000000000000000000000000000000000000001001000000000000000000000000000000020000000040000000002000000000000000000000000000000000000000000000000000000000000000000000000010000008008000000000000000000000000000000000000000",
      "type": "0x2",
      "transactionHash": "0x334ac6ea871bbd82fd6ba10398e5bdb8cfc6e591e90a63a756b56897391effbd",
      "transactionIndex": "0x19",
      "blockHash": "0x0000000000000000000000000000000000000000000000000000000000000000",
      "blockNumber": "0x24d4683",
      "gasUsed": "0x3bf19",
      "effectiveGasPrice": "0x5b8d80",
      "blobGasUsed": "0x364c",
      "from": "0xa695bcdd880e8108ef177f4a151cfcd3eae3b6d4",
      "to": "0x0793531b3cce2b833298cfecaec63ad5c327302d",
      "contractAddress": null,
      "daFootprintGasScalar": "0x8b",
      "l1BaseFeeScalar": "0x44d",
      "l1BlobBaseFee": "0x1",
      "l1BlobBaseFeeScalar": "0xa118b",
      "l1Fee": "0x6f",
      "l1GasPrice": "0x1a",
      "l1GasUsed": "0x640"
    },
    {
      "status": "0x1",
      "cumulativeGasUsed": "0x5bdae0",
      "logs": [
        {
          "address": "0x0793531b3cce2b833298cfecaec63ad5c327302d",
          "topics": [
            "0x124a2b0b0384b7455ace5c25664b94d4ad3f77adbe0440be9e42b0a8880e04ca",
            "0x6d6beff97709bef7562aa5b8f9b3f0719d908eb7ff53e6c4eb599c4f82144dcb",
            "0x474f4f474c000000000000000000000000000000000000000000000000000000"
          ],
          "data": "0x0000000000000000000000000000000000000000000000000000000001e848000000000000000000000000000000000000000000000000000000000069af26c0e65ff435be42630439c96396653a342829e877e2aafaeaf1a10d0ee5fd2cf3f2",
          "blockHash": "0x0000000000000000000000000000000000000000000000000000000000000000",
          "blockNumber": "0x24d4683",
          "blockTimestamp": "0x69adebe6",
          "transactionHash": "0x8d919d1515fe47c3ec9523fdb692ed596713523b4ec2db484958f8022109aa86",
          "transactionIndex": "0x1a",
          "logIndex": "0x17",
          "removed": false
        }
      ],
      "logsBloom": "0x00000000000000000000000000000000000000000000000000000000000000000000000000000000000000000000020000000000000000000000000000000000000000000020000000000000000000000000000000000000000000000000000000000000000000010000000000000000000000000000000000000000000200000000000000000000000000000000000000000000000000000000000000000000000000000000001001000000000000000000000000000000000000000040000000000000000000000200000000008000000000000000000000000000000000000000000000000010000008008000000000000000000000000000000000000000",
      "type": "0x2",
      "transactionHash": "0x8d919d1515fe47c3ec9523fdb692ed596713523b4ec2db484958f8022109aa86",
      "transactionIndex": "0x1a",
      "blockHash": "0x0000000000000000000000000000000000000000000000000000000000000000",
      "blockNumber": "0x24d4683",
      "gasUsed": "0x3bf0d",
      "effectiveGasPrice": "0x5b8d80",
      "blobGasUsed": "0x364c",
      "from": "0xa695bcdd880e8108ef177f4a151cfcd3eae3b6d4",
      "to": "0x0793531b3cce2b833298cfecaec63ad5c327302d",
      "contractAddress": null,
      "daFootprintGasScalar": "0x8b",
      "l1BaseFeeScalar": "0x44d",
      "l1BlobBaseFee": "0x1",
      "l1BlobBaseFeeScalar": "0xa118b",
      "l1Fee": "0x6f",
      "l1GasPrice": "0x1a",
      "l1GasUsed": "0x640"
    },
    {
      "status": "0x1",
      "cumulativeGasUsed": "0x5f99e1",
      "logs": [
        {
          "address": "0x0793531b3cce2b833298cfecaec63ad5c327302d",
          "topics": [
            "0x124a2b0b0384b7455ace5c25664b94d4ad3f77adbe0440be9e42b0a8880e04ca",
            "0x04df66ee18a794adff1a141bcc6631192935eb438eb326aaa2d041138b1f23d9",
            "0x414d5a4e00000000000000000000000000000000000000000000000000000000"
          ],
          "data": "0x0000000000000000000000000000000000000000000000000000000001312d000000000000000000000000000000000000000000000000000000000069af26c082c59e36a8e0247e15283748d6cd51f5fa1019d73fbf3ab6d927e17d9e357a7f",
          "blockHash": "0x0000000000000000000000000000000000000000000000000000000000000000",
          "blockNumber": "0x24d4683",
          "blockTimestamp": "0x69adebe6",
          "transactionHash": "0x132b92ed4d8229c6533d126be3e472ddf72ae1582c4572181ae26c25cc35dce0",
          "transactionIndex": "0x1b",
          "logIndex": "0x18",
          "removed": false
        }
      ],
      "logsBloom": "0x00000000000008000000000000000000000000000000000000000000000000000800000000000000000000000000000000000000000000000000000000000000000000000000000000000000000000000000000000000000000000000000000000000000000000010000000000000000000000000000000000000000000000000000000000000000000000000000000000000000000000000000000000000000000000000000080001000000000000000000000000000000000000000040000000000000000000000000000000000000000000020000000000000000000000000000000000000010000008008000000080000000000000000000000040000000",
      "type": "0x2",
      "transactionHash": "0x132b92ed4d8229c6533d126be3e472ddf72ae1582c4572181ae26c25cc35dce0",
      "transactionIndex": "0x1b",
      "blockHash": "0x0000000000000000000000000000000000000000000000000000000000000000",
      "blockNumber": "0x24d4683",
      "gasUsed": "0x3bf01",
      "effectiveGasPrice": "0x5b8d80",
      "blobGasUsed": "0x364c",
      "from": "0xa695bcdd880e8108ef177f4a151cfcd3eae3b6d4",
      "to": "0x0793531b3cce2b833298cfecaec63ad5c327302d",
      "contractAddress": null,
      "daFootprintGasScalar": "0x8b",
      "l1BaseFeeScalar": "0x44d",
      "l1BlobBaseFee": "0x1",
      "l1BlobBaseFeeScalar": "0xa118b",
      "l1Fee": "0x6f",
      "l1GasPrice": "0x1a",
      "l1GasUsed": "0x640"
    },
    {
      "status": "0x1",
      "cumulativeGasUsed": "0x6358ee",
      "logs": [
        {
          "address": "0x0793531b3cce2b833298cfecaec63ad5c327302d",
          "topics": [
            "0x124a2b0b0384b7455ace5c25664b94d4ad3f77adbe0440be9e42b0a8880e04ca",
            "0x76e392e9513fccd72e6cd9e855a3aecad1b08efb223a99a0a34775440da47ee3",
            "0x414d5a4e00000000000000000000000000000000000000000000000000000000"
          ],
          "data": "0x0000000000000000000000000000000000000000000000000000000001406f400000000000000000000000000000000000000000000000000000000069af26c082c59e36a8e0247e15283748d6cd51f5fa1019d73fbf3ab6d927e17d9e357a7f",
          "blockHash": "0x0000000000000000000000000000000000000000000000000000000000000000",
          "blockNumber": "0x24d4683",
          "blockTimestamp": "0x69adebe6",
          "transactionHash": "0xfb32f486b6c883151f435ebddf10b0b8169c19dd2f6ada442537ea78c9388e32",
          "transactionIndex": "0x1c",
          "logIndex": "0x19",
          "removed": false
        }
      ],
      "logsBloom": "0x00000000000008000000000000000000000000000000000000000000000000000800000000000000000000000000000000000000000000000000000000000000000000000000000000000000000000000000000000000000000000000000000000000000000000010000000000000000000000000000000000000010000000000000000000000000000000400000000000000000000000000000000000000000000000000000000001000000000000000000000000000020000000000040000000000000000000000000000000000000000000020000000000000000000000000000000000000010000008008000000000000000000000000000000000000000",
      "type": "0x2",
      "transactionHash": "0xfb32f486b6c883151f435ebddf10b0b8169c19dd2f6ada442537ea78c9388e32",
      "transactionIndex": "0x1c",
      "blockHash": "0x0000000000000000000000000000000000000000000000000000000000000000",
      "blockNumber": "0x24d4683",
      "gasUsed": "0x3bf0d",
      "effectiveGasPrice": "0x5b8d80",
      "blobGasUsed": "0x364c",
      "from": "0xa695bcdd880e8108ef177f4a151cfcd3eae3b6d4",
      "to": "0x0793531b3cce2b833298cfecaec63ad5c327302d",
      "contractAddress": null,
      "daFootprintGasScalar": "0x8b",
      "l1BaseFeeScalar": "0x44d",
      "l1BlobBaseFee": "0x1",
      "l1BlobBaseFeeScalar": "0xa118b",
      "l1Fee": "0x6f",
      "l1GasPrice": "0x1a",
      "l1GasUsed": "0x640"
    },
    {
      "status": "0x1",
      "cumulativeGasUsed": "0x6785a7",
      "logs": [
        {
          "address": "0x0793531b3cce2b833298cfecaec63ad5c327302d",
          "topics": [
            "0x124a2b0b0384b7455ace5c25664b94d4ad3f77adbe0440be9e42b0a8880e04ca",
            "0x574346ead2372e39d7b6f10bc44f94d394ab02acbcd0b1b09b61e030d95bb287",
            "0x414d5a4e00000000000000000000000000000000000000000000000000000000"
          ],
          "data": "0x00000000000000000000000000000000000000000000000000000000014fb1800000000000000000000000000000000000000000000000000000000069af26c082c59e36a8e0247e15283748d6cd51f5fa1019d73fbf3ab6d927e17d9e357a7f",
          "blockHash": "0x0000000000000000000000000000000000000000000000000000000000000000",
          "blockNumber": "0x24d4683",
          "blockTimestamp": "0x69adebe6",
          "transactionHash": "0x6f0f4d119b92a53a55987d0787391d9cfd34d036dfc364f212a796c31cf19ded",
          "transactionIndex": "0x1e",
          "logIndex": "0x1a",
          "removed": false
        }
      ],
      "logsBloom": "0x00000000000008000000000000000000000000020000000000000000000000000800000000000000000000000002000000000000000000000000000000000200000000000000000000000000000000000000000000000000000000000000000000000000000000010000000000000000000000000000000000000000000000000000000000000000000000000000000000000000000000000000000000000000000000000000000001000000000000000000000000000000000000000040000000000000000000000000000000000000000000020000000000000000000000000000000000000010000008008000000000000000000000000000000000000000",
      "type": "0x2",
      "transactionHash": "0x6f0f4d119b92a53a55987d0787391d9cfd34d036dfc364f212a796c31cf19ded",
      "transactionIndex": "0x1e",
      "blockHash": "0x0000000000000000000000000000000000000000000000000000000000000000",
      "blockNumber": "0x24d4683",
      "gasUsed": "0x3bf0d",
      "effectiveGasPrice": "0x5b8d80",
      "blobGasUsed": "0x364c",
      "from": "0xa695bcdd880e8108ef177f4a151cfcd3eae3b6d4",
      "to": "0x0793531b3cce2b833298cfecaec63ad5c327302d",
      "contractAddress": null,
      "daFootprintGasScalar": "0x8b",
      "l1BaseFeeScalar": "0x44d",
      "l1BlobBaseFee": "0x1",
      "l1BlobBaseFeeScalar": "0xa118b",
      "l1Fee": "0x6f",
      "l1GasPrice": "0x1a",
      "l1GasUsed": "0x640"
    },
    {
      "status": "0x1",
      "cumulativeGasUsed": "0x6b44b4",
      "logs": [
        {
          "address": "0x0793531b3cce2b833298cfecaec63ad5c327302d",
          "topics": [
            "0x124a2b0b0384b7455ace5c25664b94d4ad3f77adbe0440be9e42b0a8880e04ca",
            "0x8b57f363af96f3252af2ae1c135c5966179c507427a0738862e2479509d4c131",
            "0x414d5a4e00000000000000000000000000000000000000000000000000000000"
          ],
          "data": "0x00000000000000000000000000000000000000000000000000000000015ef3c00000000000000000000000000000000000000000000000000000000069af26c082c59e36a8e0247e15283748d6cd51f5fa1019d73fbf3ab6d927e17d9e357a7f",
          "blockHash": "0x0000000000000000000000000000000000000000000000000000000000000000",
          "blockNumber": "0x24d4683",
          "blockTimestamp": "0x69adebe6",
          "transactionHash": "0x12bc56e9d9090823aecec759c53309519b2360248324c7f3912c7cd7df918d04",
          "transactionIndex": "0x1f",
          "logIndex": "0x1b",
          "removed": false
        }
      ],
      "logsBloom": "0x00000000000008000000000000000000000000000000000000000000000000000800000000000000100000000000000000000000000000000000000000000000000000000000000000000000000000000000000000000000000000000000000000000000000000010000000000000000000000000000000000000000000000000800000000000000000000000400000000000000000000000000000000000000000000000000000001000000000000000000000000000000000000000040000000000000000000000000000000000000000000020000000000000000000000000000000000000010000008008000000000000000000000000000000000000000",
      "type": "0x2",
      "transactionHash": "0x12bc56e9d9090823aecec759c53309519b2360248324c7f3912c7cd7df918d04",
      "transactionIndex": "0x1f",
      "blockHash": "0x0000000000000000000000000000000000000000000000000000000000000000",
      "blockNumber": "0x24d4683",
      "gasUsed": "0x3bf0d",
      "effectiveGasPrice": "0x5b8d80",
      "blobGasUsed": "0x364c",
      "from": "0xa695bcdd880e8108ef177f4a151cfcd3eae3b6d4",
      "to": "0x0793531b3cce2b833298cfecaec63ad5c327302d",
      "contractAddress": null,
      "daFootprintGasScalar": "0x8b",
      "l1BaseFeeScalar": "0x44d",
      "l1BlobBaseFee": "0x1",
      "l1BlobBaseFeeScalar": "0xa118b",
      "l1Fee": "0x6f",
      "l1GasPrice": "0x1a",
      "l1GasUsed": "0x640"
    },
    {
      "status": "0x1",
      "cumulativeGasUsed": "0x6f03c1",
      "logs": [
        {
          "address": "0x0793531b3cce2b833298cfecaec63ad5c327302d",
          "topics": [
            "0x124a2b0b0384b7455ace5c25664b94d4ad3f77adbe0440be9e42b0a8880e04ca",
            "0x8ee8cd5e517ba4bea7c7a1720debaf33e731dd659fb82486472af57b36840ab5",
            "0x4d45544100000000000000000000000000000000000000000000000000000000"
          ],
          "data": "0x00000000000000000000000000000000000000000000000000000000038444c00000000000000000000000000000000000000000000000000000000069af26c078a3e3b8e676a8f73c439f5d749737034b139bbbe899ba5775216fba596607fe",
          "blockHash": "0x0000000000000000000000000000000000000000000000000000000000000000",
          "blockNumber": "0x24d4683",
          "blockTimestamp": "0x69adebe6",
          "transactionHash": "0x1d14edb3dbdf6ebff49426e4f6e6bf67f538c95dec97751b16ebacfd9ea948e0",
          "transactionIndex": "0x20",
          "logIndex": "0x1c",
          "removed": false
        }
      ],
      "logsBloom": "0x00000000000000000080000000000000000000200000000000000000000000000000000000000000000000000000000000000000000000000000000002000000000000000000000000000000000000000000000000000000000000000200000000000000000000010000000000000000000000000000000000000000000000000000000000000000000000000000000000000000000000000000000000000000000000000000000001000000000000000000000000000000000000080040000000000000000000000000000000000000000000000000000000000000000000000000000000000010000008008000000000000000000001000000000000000000",
      "type": "0x2",
      "transactionHash": "0x1d14edb3dbdf6ebff49426e4f6e6bf67f538c95dec97751b16ebacfd9ea948e0",
      "transactionIndex": "0x20",
      "blockHash": "0x0000000000000000000000000000000000000000000000000000000000000000",
      "blockNumber": "0x24d4683",
      "gasUsed": "0x3bf0d",
      "effectiveGasPrice": "0x5b8d80",
      "blobGasUsed": "0x364c",
      "from": "0xa695bcdd880e8108ef177f4a151cfcd3eae3b6d4",
      "to": "0x0793531b3cce2b833298cfecaec63ad5c327302d",
      "contractAddress": null,
      "daFootprintGasScalar": "0x8b",
      "l1BaseFeeScalar": "0x44d",
      "l1BlobBaseFee": "0x1",
      "l1BlobBaseFeeScalar": "0xa118b",
      "l1Fee": "0x6f",
      "l1GasPrice": "0x1a",
      "l1GasUsed": "0x640"
    },
    {
      "status": "0x1",
      "cumulativeGasUsed": "0x7ace5f",
      "logs": [
        {
          "address": "0x0793531b3cce2b833298cfecaec63ad5c327302d",
          "topics": [
            "0x124a2b0b0384b7455ace5c25664b94d4ad3f77adbe0440be9e42b0a8880e04ca",
            "0x2cf63e70144d134c7fea95254ca55e0ac93021c1e670e59d1b4d260c2adde844",
            "0x4d45544100000000000000000000000000000000000000000000000000000000"
          ],
          "data": "0x0000000000000000000000000000000000000000000000000000000003a2c9400000000000000000000000000000000000000000000000000000000069af26c078a3e3b8e676a8f73c439f5d749737034b139bbbe899ba5775216fba596607fe",
          "blockHash": "0x0000000000000000000000000000000000000000000000000000000000000000",
          "blockNumber": "0x24d4683",
          "blockTimestamp": "0x69adebe6",
          "transactionHash": "0x1c0b89503e55b360ac6b0e2bce2b3b85503f82b015790adaf8aa95a38dc00a08",
          "transactionIndex": "0x22",
          "logIndex": "0x31",
          "removed": false
        }
      ],
      "logsBloom": "0x00000000000000000080000000000000000000200000000000000000000010000000000000000000000000000000000000000000000000000000000002000000040000000000000000000000000000000000000000000000000000000000000000000000000000010000000000000000000000000000000000000000000000000000000000000000000000000000000000000000000000000000000000000000000000000000000001000000000000000000000000000000000000000040000000000000000000000000000000000000000000000000000000000000000000000000000000000010002008008000000000000000000000000000000000000000",
      "type": "0x2",
      "transactionHash": "0x1c0b89503e55b360ac6b0e2bce2b3b85503f82b015790adaf8aa95a38dc00a08",
      "transactionIndex": "0x22",
      "blockHash": "0x0000000000000000000000000000000000000000000000000000000000000000",
      "blockNumber": "0x24d4683",
      "gasUsed": "0x3bf0d",
      "effectiveGasPrice": "0x5b8d80",
      "blobGasUsed": "0x364c",
      "from": "0xa695bcdd880e8108ef177f4a151cfcd3eae3b6d4",
      "to": "0x0793531b3cce2b833298cfecaec63ad5c327302d",
      "contractAddress": null,
      "daFootprintGasScalar": "0x8b",
      "l1BaseFeeScalar": "0x44d",
      "l1BlobBaseFee": "0x1",
      "l1BlobBaseFeeScalar": "0xa118b",
      "l1Fee": "0x6f",
      "l1GasPrice": "0x1a",
      "l1GasUsed": "0x640"
    },
    {
      "status": "0x1",
      "cumulativeGasUsed": "0x7e8d6c",
      "logs": [
        {
          "address": "0x0793531b3cce2b833298cfecaec63ad5c327302d",
          "topics": [
            "0x124a2b0b0384b7455ace5c25664b94d4ad3f77adbe0440be9e42b0a8880e04ca",
            "0xee16d8c3abea7a04fd664cff922d9acf506eff980e35e24fb184ee07feec0370",
            "0x4d45544100000000000000000000000000000000000000000000000000000000"
          ],
          "data": "0x0000000000000000000000000000000000000000000000000000000003c14dc00000000000000000000000000000000000000000000000000000000069af26c078a3e3b8e676a8f73c439f5d749737034b139bbbe899ba5775216fba596607fe",
          "blockHash": "0x0000000000000000000000000000000000000000000000000000000000000000",
          "blockNumber": "0x24d4683",
          "blockTimestamp": "0x69adebe6",
          "transactionHash": "0x6604994aa5b56a441c30eeaa229780cfd15446481b76b01b8903d8b8d837d60f",
          "transactionIndex": "0x23",
          "logIndex": "0x32",
          "removed": false
        }
      ],
      "logsBloom": "0x00000000000000000080000000000000001000200000000000000000000000000000000000000000000000000000000000000000000000000000000002000000000000000000000000000000000000000000000000000000000000000000000000000000000000010000000000000000000000000000000000000000000000000000000000000000000000000000000000000000000000000000000000000000000200000000000001000000000000000000000000000000040000000040000000000000000000000000000000000000000000000000000000000000000000000000000000000010000008008000000000000000000000000000000000000000",
      "type": "0x2",
      "transactionHash": "0x6604994aa5b56a441c30eeaa229780cfd15446481b76b01b8903d8b8d837d60f",
      "transactionIndex": "0x23",
      "blockHash": "0x0000000000000000000000000000000000000000000000000000000000000000",
      "blockNumber": "0x24d4683",
      "gasUsed": "0x3bf0d",
      "effectiveGasPrice": "0x5b8d80",
      "blobGasUsed": "0x364c",
      "from": "0xa695bcdd880e8108ef177f4a151cfcd3eae3b6d4",
      "to": "0x0793531b3cce2b833298cfecaec63ad5c327302d",
      "contractAddress": null,
      "daFootprintGasScalar": "0x8b",
      "l1BaseFeeScalar": "0x44d",
      "l1BlobBaseFee": "0x1",
      "l1BlobBaseFeeScalar": "0xa118b",
      "l1Fee": "0x6f",
      "l1GasPrice": "0x1a",
      "l1GasUsed": "0x640"
    },
    {
      "status": "0x1",
      "cumulativeGasUsed": "0x824c79",
      "logs": [
        {
          "address": "0x0793531b3cce2b833298cfecaec63ad5c327302d",
          "topics": [
            "0x124a2b0b0384b7455ace5c25664b94d4ad3f77adbe0440be9e42b0a8880e04ca",
            "0xbfc684404e9cfb65089dd8a4e4f872ee2b8fd4430eadeb7ead4c95c397413f36",
            "0x4d45544100000000000000000000000000000000000000000000000000000000"
          ],
          "data": "0x0000000000000000000000000000000000000000000000000000000003dfd2400000000000000000000000000000000000000000000000000000000069af26c078a3e3b8e676a8f73c439f5d749737034b139bbbe899ba5775216fba596607fe",
          "blockHash": "0x0000000000000000000000000000000000000000000000000000000000000000",
          "blockNumber": "0x24d4683",
          "blockTimestamp": "0x69adebe6",
          "transactionHash": "0x31bff4bd2984dac9da72d11577dd7332a4bdfbbc9bd96d9f7f5a6b43ee5b9a62",
          "transactionIndex": "0x24",
          "logIndex": "0x33",
          "removed": false
        }
      ],
      "logsBloom": "0x00000000000000000080000000000000000000200000000000000000000000000000000000000000000000000000000000000000000000000000000002000000000000000000000000000000000000000000000000000000000000000000040000000000000000010000000000000000000000000000000000000000000000000000000000000000000000000000000000000000000000000000000000200000000000000000000001000000000000000000000000000000000000000040000000000000000000000000000000000000000000000000000000000000000000000000000000000010000008008000000000000000000100000000000000000000",
      "type": "0x2",
      "transactionHash": "0x31bff4bd2984dac9da72d11577dd7332a4bdfbbc9bd96d9f7f5a6b43ee5b9a62",
      "transactionIndex": "0x24",
      "blockHash": "0x0000000000000000000000000000000000000000000000000000000000000000",
      "blockNumber": "0x24d4683",
      "gasUsed": "0x3bf0d",
      "effectiveGasPrice": "0x5b8d80",
      "blobGasUsed": "0x364c",
      "from": "0xa695bcdd880e8108ef177f4a151cfcd3eae3b6d4",
      "to": "0x0793531b3cce2b833298cfecaec63ad5c327302d",
      "contractAddress": null,
      "daFootprintGasScalar": "0x8b",
      "l1BaseFeeScalar": "0x44d",
      "l1BlobBaseFee": "0x1",
      "l1BlobBaseFeeScalar": "0xa118b",
      "l1Fee": "0x6f",
      "l1GasPrice": "0x1a",
      "l1GasUsed": "0x640"
    },
    {
      "status": "0x1",
      "cumulativeGasUsed": "0x860b86",
      "logs": [
        {
          "address": "0x0793531b3cce2b833298cfecaec63ad5c327302d",
          "topics": [
            "0x124a2b0b0384b7455ace5c25664b94d4ad3f77adbe0440be9e42b0a8880e04ca",
            "0xedd219090570bad9d153f1f4b5cab7fdcd646608f52891ce532e62c746209690",
            "0x4d45544100000000000000000000000000000000000000000000000000000000"
          ],
          "data": "0x0000000000000000000000000000000000000000000000000000000003ef14800000000000000000000000000000000000000000000000000000000069af26c078a3e3b8e676a8f73c439f5d749737034b139bbbe899ba5775216fba596607fe",
          "blockHash": "0x0000000000000000000000000000000000000000000000000000000000000000",
          "blockNumber": "0x24d4683",
          "blockTimestamp": "0x69adebe6",
          "transactionHash": "0x3f5a578386fb8bfcf439586c3b1b05705d29fb01cad29c3371a1af2d0059029d",
          "transactionIndex": "0x25",
          "logIndex": "0x34",
          "removed": false
        }
      ],
      "logsBloom": "0x00000000000000000080000000000000000000200000000000000000000000000000000000000000000000000000000000010000000000000000000002000000000000000000000000000000000000000000000000000000000000000000000000000000000000010000000000000000000000000000000000080000000000000000000000000000000008000000000000000000000000000000000000000000000000000000000001000000000000000000000000000000000000000040000000000000000000000000000000000000000000000000000000000000000000000000000000000010000008008000000000000000000000000000000000000000",
      "type": "0x2",
      "transactionHash": "0x3f5a578386fb8bfcf439586c3b1b05705d29fb01cad29c3371a1af2d0059029d",
      "transactionIndex": "0x25",
      "blockHash": "0x0000000000000000000000000000000000000000000000000000000000000000",
      "blockNumber": "0x24d4683",
      "gasUsed": "0x3bf0d",
      "effectiveGasPrice": "0x5b8d80",
      "blobGasUsed": "0x364c",
      "from": "0xa695bcdd880e8108ef177f4a151cfcd3eae3b6d4",
      "to": "0x0793531b3cce2b833298cfecaec63ad5c327302d",
      "contractAddress": null,
      "daFootprintGasScalar": "0x8b",
      "l1BaseFeeScalar": "0x44d",
      "l1BlobBaseFee": "0x1",
      "l1BlobBaseFeeScalar": "0xa118b",
      "l1Fee": "0x6f",
      "l1GasPrice": "0x1a",
      "l1GasUsed": "0x640"
    },
    {
      "status": "0x1",
      "cumulativeGasUsed": "0x89ca87",
      "logs": [
        {
          "address": "0x0793531b3cce2b833298cfecaec63ad5c327302d",
          "topics": [
            "0x124a2b0b0384b7455ace5c25664b94d4ad3f77adbe0440be9e42b0a8880e04ca",
            "0x59b2b168f8c001d474409caf0d7e6a22befea333d4a638de11635c661e897b33",
            "0x4d45544100000000000000000000000000000000000000000000000000000000"
          ],
          "data": "0x00000000000000000000000000000000000000000000000000000000040d99000000000000000000000000000000000000000000000000000000000069af26c078a3e3b8e676a8f73c439f5d749737034b139bbbe899ba5775216fba596607fe",
          "blockHash": "0x0000000000000000000000000000000000000000000000000000000000000000",
          "blockNumber": "0x24d4683",
          "blockTimestamp": "0x69adebe6",
          "transactionHash": "0xd989236c482ea30ca070b59746994999d7210ee49857be0fcc8dfeaba01f13fa",
          "transactionIndex": "0x26",
          "logIndex": "0x35",
          "removed": false
        }
      ],
      "logsBloom": "0x00000000000000000080000000000000000000200000000800000000000000000000000000000000000000000080000000000000000000000000000002000000000000000000000000000000000000000000000000000000000000000000000000000000000000010000000000000000000000000000000000000000000000000000001000000000000000000000000000000000000000000000000000000000000000000000000001000000000000000000000000000000000000000040000000000000000000000000000000000000000000000000000000000000000000000000000000000010000008008000000000000000000000000000000000000000",
      "type": "0x2",
      "transactionHash": "0xd989236c482ea30ca070b59746994999d7210ee49857be0fcc8dfeaba01f13fa",
      "transactionIndex": "0x26",
      "blockHash": "0x0000000000000000000000000000000000000000000000000000000000000000",
      "blockNumber": "0x24d4683",
      "gasUsed": "0x3bf01",
      "effectiveGasPrice": "0x5b8d80",
      "blobGasUsed": "0x364c",
      "from": "0xa695bcdd880e8108ef177f4a151cfcd3eae3b6d4",
      "to": "0x0793531b3cce2b833298cfecaec63ad5c327302d",
      "contractAddress": null,
      "daFootprintGasScalar": "0x8b",
      "l1BaseFeeScalar": "0x44d",
      "l1BlobBaseFee": "0x1",
      "l1BlobBaseFeeScalar": "0xa118b",
      "l1Fee": "0x6f",
      "l1GasPrice": "0x1a",
      "l1GasUsed": "0x640"
    },
    {
      "status": "0x1",
      "cumulativeGasUsed": "0x8d8994",
      "logs": [
        {
          "address": "0x0793531b3cce2b833298cfecaec63ad5c327302d",
          "topics": [
            "0x124a2b0b0384b7455ace5c25664b94d4ad3f77adbe0440be9e42b0a8880e04ca",
            "0x1869e1b5b083945b3a88ae5490420d523de0f1b3cc03fd2aaf451f3c083e2140",
            "0x4d45544100000000000000000000000000000000000000000000000000000000"
          ],
          "data": "0x00000000000000000000000000000000000000000000000000000000042c1d800000000000000000000000000000000000000000000000000000000069af26c078a3e3b8e676a8f73c439f5d749737034b139bbbe899ba5775216fba596607fe",
          "blockHash": "0x0000000000000000000000000000000000000000000000000000000000000000",
          "blockNumber": "0x24d4683",
          "blockTimestamp": "0x69adebe6",
          "transactionHash": "0x5eaedb7502e659b193b1e7f26b05e5a4693cb25ee8bf94770ddc86f4d432e0df",
          "transactionIndex": "0x27",
          "logIndex": "0x36",
          "removed": false
        }
      ],
      "logsBloom": "0x00000000000000000080000000000000000000200000000000000000000000000000000000000000000000000000000000000000000000400000000002000000000000000000000000000000000000000000000000000000000000000000000000000000000000010000000000000000000000000000000000000000000000000000000000000000000000000000000000000000000000000000000000000000000000000000000001000000000000000000000000000000000000000040000000000000000000000000000000000000000000000000000000000000040000000000000000000010000008008000080000000000000000000000000000000000",
      "type": "0x2",
      "transactionHash": "0x5eaedb7502e659b193b1e7f26b05e5a4693cb25ee8bf94770ddc86f4d432e0df",
      "transactionIndex": "0x27",
      "blockHash": "0x0000000000000000000000000000000000000000000000000000000000000000",
      "blockNumber": "0x24d4683",
      "gasUsed": "0x3bf0d",
      "effectiveGasPrice": "0x5b8d80",
      "blobGasUsed": "0x364c",
      "from": "0xa695bcdd880e8108ef177f4a151cfcd3eae3b6d4",
      "to": "0x0793531b3cce2b833298cfecaec63ad5c327302d",
      "contractAddress": null,
      "daFootprintGasScalar": "0x8b",
      "l1BaseFeeScalar": "0x44d",
      "l1BlobBaseFee": "0x1",
      "l1BlobBaseFeeScalar": "0xa118b",
      "l1Fee": "0x6f",
      "l1GasPrice": "0x1a",
      "l1GasUsed": "0x640"
    },
    {
      "status": "0x1",
      "cumulativeGasUsed": "0x914895",
      "logs": [
        {
          "address": "0x0793531b3cce2b833298cfecaec63ad5c327302d",
          "topics": [
            "0x124a2b0b0384b7455ace5c25664b94d4ad3f77adbe0440be9e42b0a8880e04ca",
            "0xf4a636c5c4b3251f2904cc11177d8fd7dede2324962f6079ecefe582e2632cbe",
            "0x54534c4100000000000000000000000000000000000000000000000000000000"
          ],
          "data": "0x00000000000000000000000000000000000000000000000000000000022551000000000000000000000000000000000000000000000000000000000069af26c042676a595d0099c381687124805c8bb22c75424dffcaa55e3dc6549854ebe20a",
          "blockHash": "0x0000000000000000000000000000000000000000000000000000000000000000",
          "blockNumber": "0x24d4683",
          "blockTimestamp": "0x69adebe6",
          "transactionHash": "0x5a78a7d401aef32f9b06fbd0145e612584d3907d471bf63f7d83cab1c94af1bb",
          "transactionIndex": "0x28",
          "logIndex": "0x37",
          "removed": false
        }
      ],
      "logsBloom": "0x00000000000000000000000000000000000000000000000080000000000000000000000000000000000000000000001000000000000000000000000000000000000000000000000000000000000000000000000000000000000000000000000000000000000000010000000000000000000000000000000400000000000000000000000000000000000000000000000000200000000000000000000000000000000000000000000001000000000000000040000000000400000000000040000000000000000000000000000000000000000000000000000000000000000000000000000000000010000008008000000000000000000000000000000000000000",
      "type": "0x2",
      "transactionHash": "0x5a78a7d401aef32f9b06fbd0145e612584d3907d471bf63f7d83cab1c94af1bb",
      "transactionIndex": "0x28",
      "blockHash": "0x0000000000000000000000000000000000000000000000000000000000000000",
      "blockNumber": "0x24d4683",
      "gasUsed": "0x3bf01",
      "effectiveGasPrice": "0x5b8d80",
      "blobGasUsed": "0x364c",
      "from": "0xa695bcdd880e8108ef177f4a151cfcd3eae3b6d4",
      "to": "0x0793531b3cce2b833298cfecaec63ad5c327302d",
      "contractAddress": null,
      "daFootprintGasScalar": "0x8b",
      "l1BaseFeeScalar": "0x44d",
      "l1BlobBaseFee": "0x1",
      "l1BlobBaseFeeScalar": "0xa118b",
      "l1Fee": "0x6f",
      "l1GasPrice": "0x1a",
      "l1GasUsed": "0x640"
    },
    {
      "status": "0x1",
      "cumulativeGasUsed": "0x9507a2",
      "logs": [
        {
          "address": "0x0793531b3cce2b833298cfecaec63ad5c327302d",
          "topics": [
            "0x124a2b0b0384b7455ace5c25664b94d4ad3f77adbe0440be9e42b0a8880e04ca",
            "0xc756abc0d0ac38a690b6c524b0fe6fc844ef17a2195b8fc551bc0223c7f15ba6",
            "0x54534c4100000000000000000000000000000000000000000000000000000000"
          ],
          "data": "0x00000000000000000000000000000000000000000000000000000000023493400000000000000000000000000000000000000000000000000000000069af26c042676a595d0099c381687124805c8bb22c75424dffcaa55e3dc6549854ebe20a",
          "blockHash": "0x0000000000000000000000000000000000000000000000000000000000000000",
          "blockNumber": "0x24d4683",
          "blockTimestamp": "0x69adebe6",
          "transactionHash": "0x580552187664de8bfbca4e95b511a8534b89452b4dcd1cce7f04f27803510db1",
          "transactionIndex": "0x29",
          "logIndex": "0x38",
          "removed": false
        }
      ],
      "logsBloom": "0x00000000000000000000000000000000000000000000000000000000000000000000000000000000000000000000001000040000000000000000000000000000000000000000000000000000000000008000000000000000000000000000000000000000000000010000000000000020000000000000000400000000000000000000000000000000000000000000000000200000000000000000000000000000000000000000000001000000000000000000000000000000000000000040000000000000000000000000000000000000000000000000000000000000000000000000000000000010000008008000000000000000000000000000000000000000",
      "type": "0x2",
      "transactionHash": "0x580552187664de8bfbca4e95b511a8534b89452b4dcd1cce7f04f27803510db1",
      "transactionIndex": "0x29",
      "blockHash": "0x0000000000000000000000000000000000000000000000000000000000000000",
      "blockNumber": "0x24d4683",
      "gasUsed": "0x3bf0d",
      "effectiveGasPrice": "0x5b8d80",
      "blobGasUsed": "0x364c",
      "from": "0xa695bcdd880e8108ef177f4a151cfcd3eae3b6d4",
      "to": "0x0793531b3cce2b833298cfecaec63ad5c327302d",
      "contractAddress": null,
      "daFootprintGasScalar": "0x8b",
      "l1BaseFeeScalar": "0x44d",
      "l1BlobBaseFee": "0x1",
      "l1BlobBaseFeeScalar": "0xa118b",
      "l1Fee": "0x6f",
      "l1GasPrice": "0x1a",
      "l1GasUsed": "0x640"
    },
    {
      "status": "0x1",
      "cumulativeGasUsed": "0x98c6af",
      "logs": [
        {
          "address": "0x0793531b3cce2b833298cfecaec63ad5c327302d",
          "topics": [
            "0x124a2b0b0384b7455ace5c25664b94d4ad3f77adbe0440be9e42b0a8880e04ca",
            "0x7190bcaf5714549be433e2d5b9887f738c4905ef5402bd222b76df2a75af9e50",
            "0x54534c4100000000000000000000000000000000000000000000000000000000"
          ],
          "data": "0x00000000000000000000000000000000000000000000000000000000025317c00000000000000000000000000000000000000000000000000000000069af26c042676a595d0099c381687124805c8bb22c75424dffcaa55e3dc6549854ebe20a",
          "blockHash": "0x0000000000000000000000000000000000000000000000000000000000000000",
          "blockNumber": "0x24d4683",
          "blockTimestamp": "0x69adebe6",
          "transactionHash": "0x04adcdfe9524b65567a242c1000a1094a7fc8fd9feabe486fafa4dde10e98bd7",
          "transactionIndex": "0x2a",
          "logIndex": "0x39",
          "removed": false
        }
      ],
      "logsBloom": "0x00000000000000000000000000000000000000000000000000000000000000000000000000000000000000000000001000000000000000000000000000000000000200000000000000000000000000000000000000000000000000000000000000000000100000010000000000000000000000000000000400000000000000000000000000000000000000000000000000200000000000000000000000000000000000000000000001000000000000000000000000000000000000000040000000000000000000000000000000000000000000000000000002000000000000000000000000000010000008008000000000000000000000000000000000000000",
      "type": "0x2",
      "transactionHash": "0x04adcdfe9524b65567a242c1000a1094a7fc8fd9feabe486fafa4dde10e98bd7",
      "transactionIndex": "0x2a",
      "blockHash": "0x0000000000000000000000000000000000000000000000000000000000000000",
      "blockNumber": "0x24d4683",
      "gasUsed": "0x3bf0d",
      "effectiveGasPrice": "0x5b8d80",
      "blobGasUsed": "0x364c",
      "from": "0xa695bcdd880e8108ef177f4a151cfcd3eae3b6d4",
      "to": "0x0793531b3cce2b833298cfecaec63ad5c327302d",
      "contractAddress": null,
      "daFootprintGasScalar": "0x8b",
      "l1BaseFeeScalar": "0x44d",
      "l1BlobBaseFee": "0x1",
      "l1BlobBaseFeeScalar": "0xa118b",
      "l1Fee": "0x6f",
      "l1GasPrice": "0x1a",
      "l1GasUsed": "0x640"
    },
    {
      "status": "0x1",
      "cumulativeGasUsed": "0x9c85b0",
      "logs": [
        {
          "address": "0x0793531b3cce2b833298cfecaec63ad5c327302d",
          "topics": [
            "0x124a2b0b0384b7455ace5c25664b94d4ad3f77adbe0440be9e42b0a8880e04ca",
            "0xd817894a8eab658a39d583dfd9dc0a49a536128371273bc0649a4411ee199ee7",
            "0x54534c4100000000000000000000000000000000000000000000000000000000"
          ],
          "data": "0x0000000000000000000000000000000000000000000000000000000002625a000000000000000000000000000000000000000000000000000000000069af26c042676a595d0099c381687124805c8bb22c75424dffcaa55e3dc6549854ebe20a",
          "blockHash": "0x0000000000000000000000000000000000000000000000000000000000000000",
          "blockNumber": "0x24d4683",
          "blockTimestamp": "0x69adebe6",
          "transactionHash": "0xcc6378e23fb27595c86f55aab336a377186a6afbef353a8930a34072804ea50d",
          "transactionIndex": "0x2b",
          "logIndex": "0x3a",
          "removed": false
        }
      ],
      "logsBloom": "0x00000000000000000000000000000000000000000000000000000000000000000000000000000000000000000000001000000000000000000000000000000000000000000000000000000000000000000000000000001000000000000000000000000000000000010000000000000000000000000000000400000000000000000000000000000000000000000000000000200000000000000000000000000000000000000100000001000000000000000020000000000000000000000040000000000000000000000000000000000000000000000000000000000000000000000000000000000010000008008000000000000000000000000000000000000000",
      "type": "0x2",
      "transactionHash": "0xcc6378e23fb27595c86f55aab336a377186a6afbef353a8930a34072804ea50d",
      "transactionIndex": "0x2b",
      "blockHash": "0x0000000000000000000000000000000000000000000000000000000000000000",
      "blockNumber": "0x24d4683",
      "gasUsed": "0x3bf01",
      "effectiveGasPrice": "0x5b8d80",
      "blobGasUsed": "0x364c",
      "from": "0xa695bcdd880e8108ef177f4a151cfcd3eae3b6d4",
      "to": "0x0793531b3cce2b833298cfecaec63ad5c327302d",
      "contractAddress": null,
      "daFootprintGasScalar": "0x8b",
      "l1BaseFeeScalar": "0x44d",
      "l1BlobBaseFee": "0x1",
      "l1BlobBaseFeeScalar": "0xa118b",
      "l1Fee": "0x6f",
      "l1GasPrice": "0x1a",
      "l1GasUsed": "0x640"
    },
    {
      "status": "0x1",
      "cumulativeGasUsed": "0xa044bd",
      "logs": [
        {
          "address": "0x0793531b3cce2b833298cfecaec63ad5c327302d",
          "topics": [
            "0x124a2b0b0384b7455ace5c25664b94d4ad3f77adbe0440be9e42b0a8880e04ca",
            "0x7ad479f13e8081e1e44779fafef66194098f30dcd65687dd997f6565666e292e",
            "0x54534c4100000000000000000000000000000000000000000000000000000000"
          ],
          "data": "0x0000000000000000000000000000000000000000000000000000000002719c400000000000000000000000000000000000000000000000000000000069af26c042676a595d0099c381687124805c8bb22c75424dffcaa55e3dc6549854ebe20a",
          "blockHash": "0x0000000000000000000000000000000000000000000000000000000000000000",
          "blockNumber": "0x24d4683",
          "blockTimestamp": "0x69adebe6",
          "transactionHash": "0x80abbc656cf749b57eacf9a330b0a7e1bef1891a41a7ac71fc98cc3116d5c204",
          "transactionIndex": "0x2c",
          "logIndex": "0x3b",
          "removed": false
        }
      ],
      "logsBloom": "0x00000000000000000000000000000000000000000080000000800000000000000000000000000000000000000000001000000000000000000000000000000000000000000008000000000000000000000000000000000000000000000000000000000000000000010000000000000000000000000000000400000000000000000000000000000000000000000000000000200000000000000000000000000000000000000000000001000000000000000000000000000000000000000040000000000000000000000000000000000000000000000000000000000000000000000000000000000010000008008000000000000000000000000000000000000000",
      "type": "0x2",
      "transactionHash": "0x80abbc656cf749b57eacf9a330b0a7e1bef1891a41a7ac71fc98cc3116d5c204",
      "transactionIndex": "0x2c",
      "blockHash": "0x0000000000000000000000000000000000000000000000000000000000000000",
      "blockNumber": "0x24d4683",
      "gasUsed": "0x3bf0d",
      "effectiveGasPrice": "0x5b8d80",
      "blobGasUsed": "0x364c",
      "from": "0xa695bcdd880e8108ef177f4a151cfcd3eae3b6d4",
      "to": "0x0793531b3cce2b833298cfecaec63ad5c327302d",
      "contractAddress": null,
      "daFootprintGasScalar": "0x8b",
      "l1BaseFeeScalar": "0x44d",
      "l1BlobBaseFee": "0x1",
      "l1BlobBaseFeeScalar": "0xa118b",
      "l1Fee": "0x6f",
      "l1GasPrice": "0x1a",
      "l1GasUsed": "0x640"
    },
    {
      "status": "0x1",
      "cumulativeGasUsed": "0xa403ca",
      "logs": [
        {
          "address": "0x0793531b3cce2b833298cfecaec63ad5c327302d",
          "topics": [
            "0x124a2b0b0384b7455ace5c25664b94d4ad3f77adbe0440be9e42b0a8880e04ca",
            "0x84788673439e8726d86ef3d0e9d3245c2880f18a2234e2d51608a175cc82f11e",
            "0x54534c4100000000000000000000000000000000000000000000000000000000"
          ],
          "data": "0x000000000000000000000000000000000000000000000000000000000280de800000000000000000000000000000000000000000000000000000000069af26c042676a595d0099c381687124805c8bb22c75424dffcaa55e3dc6549854ebe20a",
          "blockHash": "0x0000000000000000000000000000000000000000000000000000000000000000",
          "blockNumber": "0x24d4683",
          "blockTimestamp": "0x69adebe6",
          "transactionHash": "0xa91cd8a94075e1e50c15c156e932cec1ccb84922cdc6b53e1f4b77d5c2e7b0bc",
          "transactionIndex": "0x2d",
          "logIndex": "0x3c",
          "removed": false
        }
      ],
      "logsBloom": "0x00000000000000000000000000000000000000000000000400000000000000000000000000000000000000000000001000000000000000000000000000000000000000000000000000000000000000000000000000040000000000000000000000000000000000010000000000000000000000000000000400000000000000000000000000000000000000000000000000200000000000000000000000000800000000000000000001000000000000000000000000000000000000000040000000000000000000000000000000000000000000000000000000000000000000000000000000000010000008008000000000000000000000000000000000000000",
      "type": "0x2",
      "transactionHash": "0xa91cd8a94075e1e50c15c156e932cec1ccb84922cdc6b53e1f4b77d5c2e7b0bc",
      "transactionIndex": "0x2d",
      "blockHash": "0x0000000000000000000000000000000000000000000000000000000000000000",
      "blockNumber": "0x24d4683",
      "gasUsed": "0x3bf0d",
      "effectiveGasPrice": "0x5b8d80",
      "blobGasUsed": "0x364c",
      "from": "0xa695bcdd880e8108ef177f4a151cfcd3eae3b6d4",
      "to": "0x0793531b3cce2b833298cfecaec63ad5c327302d",
      "contractAddress": null,
      "daFootprintGasScalar": "0x8b",
      "l1BaseFeeScalar": "0x44d",
      "l1BlobBaseFee": "0x1",
      "l1BlobBaseFeeScalar": "0xa118b",
      "l1Fee": "0x6f",
      "l1GasPrice": "0x1a",
      "l1GasUsed": "0x640"
    },
    {
      "status": "0x1",
      "cumulativeGasUsed": "0xa7c2d7",
      "logs": [
        {
          "address": "0x0793531b3cce2b833298cfecaec63ad5c327302d",
          "topics": [
            "0x124a2b0b0384b7455ace5c25664b94d4ad3f77adbe0440be9e42b0a8880e04ca",
            "0x2bbf52073e8f2f593f07313d3becafe65c6e86c805e52deccef8bb32b27252f9",
            "0x54534c4100000000000000000000000000000000000000000000000000000000"
          ],
          "data": "0x00000000000000000000000000000000000000000000000000000000029020c00000000000000000000000000000000000000000000000000000000069af26c042676a595d0099c381687124805c8bb22c75424dffcaa55e3dc6549854ebe20a",
          "blockHash": "0x0000000000000000000000000000000000000000000000000000000000000000",
          "blockNumber": "0x24d4683",
          "blockTimestamp": "0x69adebe6",
          "transactionHash": "0x8aada6b247fff19ea2c65ecfbcb4ad65a145916f790db46fa750cb5dc1804ced",
          "transactionIndex": "0x2e",
          "logIndex": "0x3d",
          "removed": false
        }
      ],
      "logsBloom": "0x00000000000000000000000000000000000000000000000000000000000000000000000000000000000000000000001000000000000000000000000000000000000000000000000000000000000000000000000000000000000000000000000000000000000000010000000000000000000000000000000400000000000000000000000000000010000000000000000100200000000000000000000000000000000000000000000001000000000000000000000000000000000000000040000000000000000000000000000000000000000000000000000000001000000000000000000000000010000008008000000000000000000000000000000000000000",
      "type": "0x2",
      "transactionHash": "0x8aada6b247fff19ea2c65ecfbcb4ad65a145916f790db46fa750cb5dc1804ced",
      "transactionIndex": "0x2e",
      "blockHash": "0x0000000000000000000000000000000000000000000000000000000000000000",
      "blockNumber": "0x24d4683",
      "gasUsed": "0x3bf0d",
      "effectiveGasPrice": "0x5b8d80",
      "blobGasUsed": "0x364c",
      "from": "0xa695bcdd880e8108ef177f4a151cfcd3eae3b6d4",
      "to": "0x0793531b3cce2b833298cfecaec63ad5c327302d",
      "contractAddress": null,
      "daFootprintGasScalar": "0x8b",
      "l1BaseFeeScalar": "0x44d",
      "l1BlobBaseFee": "0x1",
      "l1BlobBaseFeeScalar": "0xa118b",
      "l1Fee": "0x6f",
      "l1GasPrice": "0x1a",
      "l1GasUsed": "0x640"
    }
  ],
  "libraries": [],
  "pending": [],
  "returns": {},
  "timestamp": 1773005797075,
  "chain": 84532,
  "commit": null
}